:020000040800F2
:10000000600900202D0200089F250008C71B00087A
:100010009D25000875070008052B0008000000005A
:10002000000000000000000000000000E5250008BE
:100030007707000800000000A1250008E725000858
:10004000470200084702000847020008470200086C
:10005000470200084702000847020008470200085C
:10006000470200084702000847020008470200084C
:10007000470200084702000847020008470200083C
:10008000470200084702000847020008470200082C
:10009000470200084702000847020008470200081C
:1000A000470200084702000847020008470200080C
:1000B00047020008470200084D26000847020008D2
:1000C00047020008470200084702000847020008EC
:1000D000470200089D2A000847020008470200085E
:1000E00047020008470200084702000847020008CC
:1000F00047020008470200084702000847020008BC
:10010000470200084702000881260008470200084D
:10011000470200084702000847020008470200089B
:10012000470200084702000847020008470200088B
:1001300000F002F800F06BF80AA090E8000C82448E
:100140008344AAF10107DA4501D100F060F8AFF26B
:10015000090EBAE80F0013F0010F18BFFB1A43F0A5
:1001600001031847A0540000C05400000A444FF097
:10017000000C10F8013B13F0070408BF10F8014B06
:100180001D1108BF10F8015B641E05D010F8016B4B
:10019000641E01F8016BF9D113F0080F1EBF10F8AF
:1001A000014BAD1C0C1B09D16D1E58BF01F801CBD2
:1001B000FAD505E014F8016B01F8016B6D1EF9D555
:1001C0009142D6D37047000000230024002500266A
:1001D000103A28BF78C1FBD8520728BF30C148BFAA
:1001E0000B607047642900F09F80752900F09C80A7
:1001F000782900F0D580632900F05082732900F03F
:100200005582002070471FB51FBD10B510BD00F00E
:100210007FFA1146FFF7F7FF02F09AFC00F09DFA13
:1002200003B4FFF7F2FF03BC02F084FC09488047E7
:1002300009480047FEE7FEE7FEE7FEE7FEE7FEE7C8
:10024000FEE7FEE7FEE7FEE704480549054A064BE0
:1002500070470000492600083101000860030020B3
:100260006009002060050020600500207047000044
:100270000FB4044910B503AA029800F01BFA10BC91
:100280005DF814FB0800002070B50446856900681D
:10029000C10601D5302600E02026C00707D070BD7A
:1002A000D4E9012130469047206A401C20626D1E2F
:1002B000F6D570BD70B5044685690078C00707D1D2
:1002C00070BDD4E9012120209047206A401C2062A3
:1002D0006D1EF6D570BD70B50C460546012A05D0D9
:1002E0002878800600D5EA69002302E0012305E0B2
:1002F0005B1C934202D2E05C0028F9D1A869E618A1
:10030000C01AA861286A184428622846FFF7BCFF73
:1003100004E0D5E9012114F8010B9047B442F8D369
:100320002846FFF7C7FF70BD2DE9F04106460024BF
:1003300010687529314616A510D0AFF3008000284B
:1003400002DA404213A507E031688A0701D512A5F9
:1003500002E0490704D511A5012401E0AFF30080B4
:1003600000210A2206F1240709E0B0FBF2FCB0FBF1
:10037000F2F302FB1C00303078541846491C002868
:10038000F3D123462A463046BDE8F04100F023B9B8
:10039000000000002D0000002B00000020000000E5
:1003A00070B504460D4621461068AFF300802188E1
:1003B000090502D50F4A7A4402E00E4A7A440E3209
:1003C000002104F1240305E000F00F060009965D0A
:1003D0005E54491C0028F7D120780023000704D57B
:1003E000702D02D009B1022311322046BDE87040C1
:1003F00000F0F1B8765100002DE9F05F894604461F
:100400004FF0000ADFF874B1FB44C0F820A020468A
:10041000E1688847002874D0252806D0D4E9012156
:100420009047206A401C2062F1E700265F46204684
:10043000E16888472028054607DB312D05D2781969
:1004400010F8200C08B10643F1E7B00701D526F0FB
:100450000406C4F81CA00027C4F818A02A2D09D04F
:10046000284602F060FB38B304EB8708303DC8F83B
:10047000185019E059F8041B204604EB87029161DB
:10048000E1688847012F054618D1E069002820DA85
:1004900026F020061DE0D8F8180000EB800005EBE0
:1004A00040003038C8F818002046E1688847054603
:1004B00002F039FB0028EED1012F0AD02E2D08D1F1
:1004C0002046E16888477F1C0546022F46F020063B
:1004D000C4DBA069002803DA404246F00106A061AF
:1004E000F00701D026F010066C2D0BD0682D09D036
:1004F0004C2D39D06A2D35D0742D35D07A2D33D08E
:1005000016E038E0E1682F4620468847B8420546A5
:1005100009D16C2F26D04FF48060E1680643204655
:100520008847054604E06C2F1AD04FF480700643CC
:100530000DB3A5F14100192802D8203546F4006614
:100540004A462946204626604E46FFF74BFE80B1BC
:1005500001280BD0F61D26F0070000F1080956E728
:100560004020E4E78020D8E70020D6E706F1040920
:100570004DE7284652E7206ABDE8F09F4C51000045
:100580004FF0000200B5134694469646203922BF2C
:10059000A0E80C50A0E80C50B1F12001BFF4F7AF77
:1005A000090728BFA0E80C5048BF0CC05DF804EB59
:1005B000890028BF40F8042B08BF704748BF20F8C7
:1005C000022B11F0804F18BF00F8012B70477047C5
:1005D0007047704770472DE9F0470D46994692469F
:1005E000044600F124080168880604D5E06921F07A
:1005F0001001216000E00120A84201DD471B00E05E
:100600000027A1697A1902EB0900081AA061207875
:10061000C00602D42046FFF737FE002608E0D4E9E2
:1006200001211AF806009047206A401C761C2062BF
:100630004E45F4DB2078C0060AD52046FFF724FE9D
:1006400006E0D4E9012130209047206A401C206256
:10065000381EA7F10107F4DC07E0D4E9012118F8FE
:1006600005009047206A401C2062281EA5F1010564
:10067000F3DC2046FFF71EFE2078000602D502209C
:10068000BDE8F0870120FBE710B5436913B1AFF374
:10069000008001E0FFF71FFE012010BD127800F17D
:1006A00024010A7000224A700122EDE711684FF020
:1006B000FF32E9E7074B70B50D467B4400F011F8B7
:1006C0000446284600F020F810B14FF0FF3070BD0E
:1006D000204670BD7B24000001694A1C0261087835
:1006E000704700B58FB0CDE9013100210591054972
:1006F0007944CDE9031011466846FFF77DFE0FB03F
:1007000000BD0000E5FFFFFF007B00F080007047A8
:10071000754600F02BF8AE4605006946534620F0BA
:100720000700854618B020B5FFF78EFDBDE82040D4
:100730004FF000064FF000074FF000084FF0000B9D
:1007400021F00701AC46ACE8C009ACE8C009ACE850
:10075000C009ACE8C0098D46704710B50446AFF338
:1007600000802046BDE81040FFF75ABD00487047A2
:10077000FC020020FEE7704772B6FEE710B590F865
:1007800021100022022905D00421816380F8202055
:10079000012010BD01680B6823F00E030B60016897
:1007A0000B6823F001030B6090F84030C46B01210B
:1007B00001FA03F3636080F8211080F820201046CE
:1007C00010BD00002DE9F05F90F8211000240229EF
:1007D00003D004218163012485E001680A6822F0C6
:1007E0000E020A6001680A6822F001020A603F4EA8
:1007F0003E4FB215DFF8F4C0DFF8F090DFF8ECA060
:10080000DFF8E8B0DFF8E4E00168783F1301150293
:10081000ACF1640CA9F15009AAF13C0AABF1280B28
:10082000AEF1140E4FF48018B14227D9B9420ED060
:10083000614512D049451DD0514518D0594518D0B1
:10084000714501D1424615E0294EB14201D1012244
:1008500010E0274E1436B14201D110220AE0244E96
:100860002836B14206D0224A3C32914201D11A4682
:1008700000E02A461E49091F0A602BE0B94213D046
:10088000614517D0494522D051451DD059451DD04D
:10089000714501D142461AE0B14202D14FF0807257
:1008A00015E0134EB14201D1012210E0104E143672
:1008B000B14201D110220AE00D4E2836B14206D0D5
:1008C0000B4A3C32914201D11A4600E02A460749C0
:1008D00080394A60012180F82110002180F8201021
:1008E000416B01B188472046BDE8F09F800002407F
:1008F0000804024070B5044600F014F90546601C77
:1009000002D004480078044400F00CF9401BA042D7
:10091000FAD370BD400100202DE9F84FDFF8C891EF
:10092000002409F1040A0AF1040B23460F270BF1F6
:10093000040ED1E00125A54006EA0502AA4276D1BF
:10094000DFF8A8C14E68A6EB0C0866452BD00DDC7D
:10095000032E34D005DC36B3012E19D0022E2FD150
:100960001BE0112E16D0122E2AD119E0B8F5881FDF
:1009700019D006DCB8F5803F15D0B8F5801F1FD11F
:1009800011E0B8F5001F0ED0B8F5041F18D10AE029
:10099000CB6815E0CB681B1D12E0CB6808330FE075
:1009A000CB680C330CE08B682BB1012B4FF00803A4
:1009B00003D0456104E0042302E0056100E0002368
:1009C000FF2A01D8064601E000F104064FEA84053B
:1009D00001D9A5F12005D6F8008007FA05FC28EA20
:1009E0000C0803FA05F548EA0508C6F800804D68CA
:1009F000ED0070D53E4DAE6946F00106AE61AD69C1
:100A000024F0030605F0010500953A4D06EB050CB0
:100A1000DCF80850A607360F07FA06F825EA08059D
:100A2000DFF8D480404503D14FF0000825E052E0C4
:100A3000DFF8C880404502D14FF001081DE0DFF823
:100A4000C080404502D14FF0020816E0DFF8B480C4
:100A5000404502D14FF003080FE0DFF8AC8040457D
:100A600002D14FF0040808E0DFF8A080404502D131
:100A70004FF0050801E04FF0060808FA06F848EACA
:100A80000508CCF808804D68D9F80060ED034D46A4
:100A900001D5164300E096432E604D68DAF80060F9
:100AA000AD03554601D5164300E096432E604D68D0
:100AB000DBF80060ED025D4601D5164300E0964389
:100AC0002E604D68DEF80060AD02754601D5164314
:100AD00000E096432E60641C0A681646E2407FF4EC
:100AE00029AFBDE8F88F000000040140000011109C
:100AF000001002400000014000080140000C0140CD
:100B0000001001400014014000180140001C014089
:100B10008068084000D0012070470AB10161704729
:100B20000904FBE70148806870470000400100208D
:100B300002488168027811448160704740010020BA
:100B4000074810B5016841F010010160032000F072
:100B500075F80F2000F006F800F024F8002010BD12
:100B60000020024070B50D4D04464FF47A7128788C
:100B7000B1FBF0F00A490968B1FBF0F000F0ECFAC3
:100B800048B9102C07D200222146501E00F036F83A
:100B900000206C6070BD012070BD0000400100208D
:100BA0004C0100200C4808B5816941F001018161C8
:100BB000816901F001010091C16941F08051C16179
:100BC000C06900F0805000900448416821F0E06165
:100BD00041F00071416008BD00100240000001407A
:100BE000002809DB00F01F0201219140400980002C
:100BF00000F1E020C0F8001170470000F0B40E4B87
:100C00001B680C46C3F30223C3F10705042D00D96A
:100C10000425191D072901D2002300E0DB1E01264F
:100C200006FA05F1491E214099409E40761E164065
:100C30003143F0BC01F067BF0CED00E0064900F065
:100C4000070208684FF6FF03184040EA0220034AF3
:100C500010430860704700000CED00E00000FA054A
:100C60002DE9F0470F46050061D0434E306800F093
:100C70000700B84209D2306820F0070038433060DE
:100C8000306800F00700B84251D128683B4C81071A
:100C900012D5400703D5606840F4E06060602878B2
:100CA000000703D5606840F4605060606068A96820
:100CB00020F0F000084360602878C00728D06868FA
:100CC000012810D02168022810D0890700292EDAC7
:100CD000616821F0030101436160FFF723FF804653
:100CE00041F288390DE021688903EFE78901EDE7DA
:100CF000FFF718FFA0EB0801494502D90320BDE822
:100D0000F0876068696800F00C00B0EB810FEFD1EC
:100D1000306800F00700B8420BD9306820F00700B7
:100D200038433060306800F00700B84201D001203D
:100D3000E5E72878400705D56068E96820F4E060B9
:100D4000084360602878000706D56068296920F4A8
:100D5000605040EAC100606000F038F86168084AFD
:100D6000C1F30311515CC840064908600648006899
:100D7000FFF7F8FE0020C2E700200240001002400A
:100D8000185500084C010020440100200448054982
:100D900000684968044AC1F30221515CC8407047A9
:100DA0004C01002000100240285500080448054965
:100DB00000684968044AC1F3C221515CC8407047C9
:100DC0004C010020001002402855000812A185B0F7
:100DD0000FC98DE80F0014A0144A006804905168F0
:100DE000134801F00C03042B10D0082B0ED1C1F3D3
:100DF0008343C9031DF803000AD5516804AAC1F34F
:100E00004041515C0A4A5043B0FBF1F005B07047D5
:100E100008494843FAE700000203040506070809E9
:100E20000A0B0C0D0E0F1010010200000010024002
:100E300000127A0000093D002DE9F84F040070D03F
:100E40002078C04DC00749D06868C0F381000128F0
:100E500007D06868C0F38100022809D16868C00320
:100E600006D52868800339D560680028E7D035E0CA
:100E70006068B0F5803F0BD010B1B0F5A02F11D055
:100E8000286820F480302860286820F4802002E060
:100E9000286840F480302860606890B1FFF742FE17
:100EA00006460AE0286840F480202860F0E700BF8A
:100EB000FFF738FE801B642873D828688003F7D5B5
:100EC0000CE0FFF72FFE064605E000BFFFF72AFE05
:100ED000801B6428F0D828688003F7D420789A4EC5
:100EE00080074FF001094FF0000839D5686810F00D
:100EF0000C0F07D06868C0F38100022809D1686828
:100F0000C00306D42868800714D52069012808D1B9
:100F100010E02069B0B1C6F80090FFF703FE074665
:100F200005E00AE1FFF7FEFDC01B0228C4D82868CF
:100F30008007F7D52868616920F0F80040EAC10011
:100F400028600DE0C6F80080FFF7ECFD074604E0DE
:100F5000FFF7E8FDC01B022823D828688007F7D4D4
:100F6000207800072CD57948A169D9B1C0F8009044
:100F7000FFF7D8FD074604E0FFF7D4FDC01B0228A9
:100F80000FD8686A8007F7D571484FF4FA510068A6
:100F9000B0FBF1F0009000BF0098411E0091FAD222
:100FA0000EE080E0C0F80080FFF7BCFD074604E0DB
:100FB000FFF7B8FDC01B022875D8686A8007F7D410
:100FC0002078400760D5E8690027C00008D4E869A8
:100FD00040F08050E861E869012700F080500090FF
:100FE0005C480168C90513D40168834641F48071E7
:100FF0000160FFF797FD824606E000BFFFF792FD14
:10100000A0EB0A0064284ED8DBF80000C005F5D537
:10101000E06801280AD008B1052813D0286A20F01A
:1010200001002862286A20F0040002E0286A40F0EB
:1010300001002862E06841F2883B98B1FFF772FD39
:1010400082460BE0286A40F004002862EEE700BF09
:10105000FFF768FDA0EB0A0159455AD8286A8007B6
:10106000F6D50CE0FFF75EFD824605E0FFF75AFD7E
:10107000A0EB0A0159454CD8286A8007F6D41FB165
:10108000E86920F08050E861E06988B36968C1F3DD
:101090008101022944D00228C6F8608004D0FFF7FD
:1010A00041FD044638E034E0FFF73CFD074604E02C
:1010B000FFF738FDC01B02282BD828688001F7D421
:1010C000206AB0F5803F05D16868A16820F400303F
:1010D00008436860D4E908010843696821F4741181
:1010E00008436860C6F86090FFF71CFD044606E000
:1010F00025E000BFFFF716FD001B022809D828686D
:101100008001F7D51BE000BFFFF70CFD001B022894
:1011100002D90320BDE8F88F28688001F4D40EE0DE
:101120000128F7D06868226A00F48031914204D126
:10113000616A00F47010884201D00120EAE70020C3
:10114000E8E70000001002400000424280044242F2
:101150004C0100200070004010B5401EB0F1807FAF
:1011600001D3012010BD4FF0E02460610F21601712
:1011700001F0C9FC0020A06107202061002010BD03
:101180007047704770B590F83C20012A2CD001249C
:1011900080F83C40022280F83D2003685A689D6830
:1011A00022F070060A6832435A60104B02689A4275
:1011B0000ED00F4B9A420BD0B2F1804F08D00D4B9E
:1011C0009A4205D00C4B9A4202D00C4B9A4204D161
:1011D000496825F080031943916080F83D40002163
:1011E00080F83C10084670BD022070BD002C014004
:1011F000003401400004004000080040000C0040A2
:1012000010B5040003D094F83D0010B107E00120B0
:1012100010BD002084F83C00204600F01FF802209A
:1012200084F83D00211D206801F030FA012084F887
:10123000460084F83E0084F83F0084F8400084F8BB
:10124000410084F8420084F8430084F8440084F8A4
:10125000450084F83D00002010BD000000B585B0B9
:1012600000210091019102910391194A01681948E6
:10127000914209D1C16941F00401C161C06900F026
:101280000400049005B000BD134A9142FAD1C1692F
:1012900041F00801C161C16901F00801049181694F
:1012A00041F0040181618069694600F00400049006
:1012B00002200090012002900848FFF72DFB002239
:1012C0000A213220FFF79AFC3220FFF789FCD9E788
:1012D0000008004000100240000C004000080140DF
:1012E00090F83D10012901D001207047022180F8BB
:1012F0003D100168CA6842F00102CA6000680E49E8
:1013000088420ED00D4988420BD0B0F1804F08D0F2
:101310000B49884205D00B49884202D00A498842CD
:1013200004D1816801F00701062903D0016841F06A
:101330000101016000207047002C01400034014091
:101340000004004000080040000C004070B5006838
:101350002F4988425AD102212E48FFF7D9FB2E4D42
:101360002E4C002690B12EA0FEF782FF2868016A5D
:1013700021F0A00101622868016A41F020010162A8
:1013800028684662207840F010003EE004212248A0
:1013900000F04EFA80B2608029680A6A22F0A0024A
:1013A0000A6229680A6A0A622178CA062AD50B06E7
:1013B0004FF4F9721DD5A0F22D13934202D8606844
:1013C000400009E0A0F279524FF4C7739A4205D861
:1013D0006068400040F00100606013E0A0F69900F2
:1013E00098420FD86078401C607001F0F0002070C7
:1013F00008E0A0F580506938904203D841F08000A1
:1014000020706670207820F01000207070BD000001
:10141000000C00400008014070020020380100204C
:10142000670000002DE9F041054690F83C000C46AD
:10143000012836D0012085F83C008AB3042A42D026
:101440002868082A51D0D4E90023E168066A26F406
:1014500080560662C669076A26F4407646EA032388
:101460004FF6FF7606EA013123F4704319434FF437
:10147000005627F4005306EA02321A43C1610262A1
:101480002868C16921F44061C1612868C169A26806
:1014900041EA0221C161002085F83C00BDE8F081ED
:1014A00001E00220FAE7D4E90012E368286801F0BD
:1014B0009FF92868816921F00C01816128688169A0
:1014C000A26811430FE0D4E90012E368286801F034
:1014D000D7F92868816921F44061816128688169B0
:1014E000A26841EA02218161D5E7D4E90027267B81
:1014F000016A21F480710162C169036A21F003016C
:10150000394321F0F00731074FF4007647EA1161C3
:1015100023F4007306EA02221A43C16102622868BA
:10152000C16921F00C01C1612868C169A268114339
:10153000B0E710B5040003D094F83D0010B107E007
:10154000012010BD002084F83C00204600F01EF869
:10155000022084F83D00211D206801F097F8012049
:1015600084F8460084F83E0084F83F0084F8400088
:1015700084F8410084F8420084F8430084F8440071
:1015800084F8450084F83D00002010BD704700003D
:1015900010B5044651B104290DD0082910D094F893
:1015A000410094F84520012811D10EE094F83E0046
:1015B00094F84220F7E794F83F0094F84320F2E7CC
:1015C00094F8400094F84420EDE7012A01D001206E
:1015D00010BD022051B1042911D0082918D084F877
:1015E000410084F845000C291BD13CE084F83E0002
:1015F00084F842002068C26842F0020210E084F8D9
:101600003F0084F843002068C26842F0040207E00B
:1016100084F8400084F844002068C26842F0080260
:10162000C2600122206801F077F8114920688842E1
:101630000ED0104988420BD0B0F1804F08D00E492F
:10164000884205D00D49884202D00D49884204D114
:10165000816801F00701062903D0016841F001010A
:101660000160002010BD2068C26842F01002D7E778
:10167000002C0140003401400004004000080040FC
:10168000000C004070B50446006801694FF0000589
:10169000C943890715D4C168C943890711D4E91E14
:1016A000016101202077206880698007204602D0F0
:1016B000FFF74CFE04E000F098F8204600F096F8A2
:1016C000257720680169C943490717D4C168C94310
:1016D000490713D46FF004010161022020772068CC
:1016E000806910F4407F204602D0FFF72FFE04E00F
:1016F00000F07BF8204600F079F825772068016932
:10170000C943090716D4C168C943090712D46FF049
:1017100008010161042020772068C0698007204605
:1017200002D0FFF713FE04E000F05FF8204600F05F
:101730005DF8257720680169C943C90617D4C168D7
:10174000C943C90613D46FF0100101610820207746
:101750002068C06910F4407F204602D0FFF7F6FDF4
:1017600004E000F042F8204600F040F825772068B9
:101770000169C943C90708D1C168C943C90704D170
:10178000891E0161204600F033F820680169C943D1
:10179000090609D4C168C943090605D46FF0800160
:1017A00001612046FFF7ECFC20680169C943490646
:1017B00009D4C168C943490605D46FF040010161ED
:1017C000204600F075F820680169C94389060BD4EA
:1017D000C168C943890607D46FF020010161204622
:1017E000BDE87040FFF7CDBC70BD7047704700008A
:1017F00000680D49884215D10C4801780A0611D5B8
:1018000021F0100101700A0702D141F0400101707E
:10181000C9B201F00F020E2A01D2491C01E001F009
:101820007001017070470000000C0040380100207A
:101830000246002041B1042909D008290AD00C2908
:1018400001D11068006C70471068406B70471068D9
:10185000806B70471068C06B704770B5044690F895
:101860003C00012812D0012584F83C50022084F865
:101870003D00204600F067FF01004FF0000007D058
:1018800084F83D5084F83C00012070BD022070BDFA
:101890002168CA6822F04002CA602168CA6822F43E
:1018A0008042CA6084F83D5084F83C00002070BD3E
:1018B0007047704770470000F8B50268044610682A
:1018C000D168536910F00F0F4FF0000554D003F0AA
:1018D000010601F4907737435FD0C20705D0CA05EF
:1018E00003D5226C42F001022264420705D5DA07D3
:1018F00003D0226C42F002022264820705D5DA0787
:1019000003D0226C42F004022264020707D501F0E2
:101910002002324303D0226C42F008022264226C7F
:10192000002A35D0800604D5880602D5204600F06E
:10193000E2FF20684069216CC0F3801001F00801CB
:101940000143204625D000F0BEFF206841694906CA
:101950001BD5416921F040014161A06BA8B15849F4
:101960004163A06BFEF72EFF002811D0A06B416BE6
:1019700001B0BDE8F040084783060ED58B060CD5B4
:101980002046BDE8F84000F0B6BF2046FFF792FFC2
:10199000F8BDFFF78FFF2564F8BD266B2023012ECD
:1019A00052D1C60650D5CE064ED51068506800906C
:1019B000506940062AD5A16B086840680004000CF5
:1019C000EAD0A68D8642E7D9E0858869202818D01C
:1019D000D06820F48070D0602068416921F0010156
:1019E00041612068416921F04001416184F83E3045
:1019F00025632068C16821F01001C160A06BFEF76B
:101A0000BDFEA08DE18D401A81B219E0A08DE18D5F
:101A1000401A81B2E08D0028BED00029BCD0D06829
:101A200020F49070D0602068426922F00102426187
:101A300084F83E3025632068C26822F01002C2603C
:101A40002046FFF736FFF8BD05062BD50D0629D534
:101A500094F83D002128F6D1A068B0F5805F01D14F
:101A60002069B0B1206A411C216221680078486079
:101A7000E08C401E0004000CE084E4D12068C168C2
:101A800021F08001C1602068C16841F04001C1605F
:101A9000F8BD206A0088C0F308005060206A801CEE
:101AA0002062E5E74006F3D54806F1D5D168204627
:101AB00021F04001D16084F83D3000F083F8F8BD9A
:101AC000B728000870B5040004D094F83D00002544
:101AD00010B106E0012070BD84F83C50204600F0B3
:101AE00023F8242084F83D002068C16821F40051C7
:101AF000C160204600F05AFF2068016921F490413E
:101B000001612068416921F02A0141612068C168B2
:101B100041F40051C1602564202084F83D0084F820
:101B20003E00002070BD000030B585B00024009458
:101B300001940294039400681449884224D1144803
:101B4000816941F480418161816901F4804104919E
:101B5000816941F00401816180690E4D00F004004B
:101B600004904FF400700090022001900320039035
:101B700069462846FEF7D0FE2815CDE900046946DF
:101B800028460294FEF7C8FE05B030BD003801407B
:101B9000001002400008014090F83E30202B0ED18A
:101BA00059B152B190F83C30012B08D0012380F894
:101BB0003C300023036300F055BF01207047022032
:101BC000704770477047FEE7F0B50F49064600249E
:101BD00008884D8821464543204600F077FA00F0FA
:101BE000ABFB0A494FF480774A15DFF824C0802305
:101BF00007E00F614A61CCF800604B610B610A613C
:101C0000641CAC42F5D3F0BD50010020001001402F
:101C10000C0C014070B40C49F0222C242A254FF4FE
:101C2000A0732B2650B1012088710B804A800C8153
:101C30004D818E8170BC002000F026BA0020887192
:101C40000A804B80F3E70000500100202DE9F74F98
:101C5000DFF8909082468B46B9F80A0000F05AFBF4
:101C6000214C4FF48077276165156561DFF87C8032
:101C70004FEA1A21C8F800108026666126612561A6
:101C8000276165610AF0FF01C8F8001066612661EE
:101C90002561B9F80C0000F03DFB276165614FEA52
:101CA0001B21C8F800106661266125612761656106
:101CB0000BF0FF01C8F800106661266125616761BD
:101CC0006561B9F80810C8F80010666126612561E1
:101CD000276165610298C8F8000066612661256188
:101CE000BDE8FE8F50010020001001400C0C0140A7
:101CF0002DE9FF4F1F4600980C46101A401C86B273
:101D00004FF48078124D4FF4007A4FF0800BDDF8DD
:101D1000349019E02146009800F0D8F900F00CFB4F
:101D2000002051460B4B5A460AE000BFC5F8108010
:101D30006961C3F800906A612A612961401C80B220
:101D4000B042F3D3641CA4B2BC42E3D9BDE8FF8F18
:101D5000001001400C0C014070B5AA48416821F008
:101D6000E06141F0806141603220FEF7C3FD012156
:101D7000002000F0E7FA3220FEF7BCFD002000F062
:101D80007BF9A14C4FF6FF75FF28A08004D3A84231
:101D900002D0B0F5134F10D1D32000F0BBFA00F001
:101DA00047F900F045F900F043F905EA0020A0806A
:101DB00000F03EF9A1880843A08081B293A0FEF70D
:101DC00057FACF2000F0A6FA002000F091FAC120C7
:101DD00000F08EFA302000F08BFAED2000F09AFA35
:101DE000642000F085FA032000F082FA122000F04F
:101DF0007FFA812000F07CFAE82000F08BFA852041
:101E000000F076FA102000F073FA7A2000F070FAF1
:101E1000CB2000F07FFA392000F06AFA2C2000F085
:101E200067FA002000F064FA342000F061FA022022
:101E300000F05EFAF72000F06DFA202000F058FA6A
:101E4000EA2000F067FA002000F052FA002000F0CB
:101E50004FFAC02000F05EFA1B2000F049FAC120C2
:101E600000F058FA012000F043FAC52000F052FAC1
:101E7000302000F03DFA302000F03AFAC72000F0A0
:101E800049FAB72000F034FA362000F043FA48202F
:101E900000F02EFA3A2000F03DFA552000F028FA22
:101EA000B12000F037FA002000F022FA1A2000F0EA
:101EB0001FFAB62000F02EFA0A2000F019FAA2202C
:101EC00000F016FAF22000F025FA002000F010FAD7
:101ED000262000F01FFA012000F00AFAE02000F0AE
:101EE00019FA0F2000F004FA2A2000F001FA282045
:101EF00000F0FEF9082000F0FBF90E2000F0F8F9E0
:101F0000082000F0F5F9542000F0F2F9A92000F0C3
:101F1000EFF9432000F0ECF90A2000F0E9F90F2076
:101F200000F0E6F9002000F0E3F9002000F0E0F90D
:101F3000002000F0DDF9002000F0DAF9E12000F0E7
:101F4000E9F9002000F0D4F9152000F0D1F91720AC
:101F500000F0CEF9072000F0CBF9112000F0C8F90D
:101F6000062000F0C5F92B2000F0C2F9562000F041
:101F7000BFF93C2000F0BCF9052000F0B9F91020B1
:101F800000F0B6F90F2000F0B3F93F2000F0B0F9EF
:101F90003F2000F0ADF90F2000F0AAF92B2000F04F
:101FA000B9F9002000F0A4F9002000F0A1F9012007
:101FB00000F09EF93F2000F09BF92A2000F0AAF9DA
:101FC000002000F095F9002000F092F9002000F0C8
:101FD0008FF9EF2000F08CF9112000F09BF97820A8
:101FE000FEF788FC292000F095F90020FFF712FE8B
:101FF0000A490120C1F8A8012846BDE87040FFF752
:10200000E3BD00000000014050010020204C43448B
:102010002049443A25780D0A0000000000002242C1
:102020000246012000E05043491EC9B2FBD270476E
:1020300070B50F4A4FF088301060131D18600C4CBB
:1020400000200C3420600B499015086145004D615B
:1020500040264E61181D00680E6180B20D614FF080
:102060003331116019604FF6FF71216070BD0000BF
:10207000000C01400010014000B500F04BF95DF884
:1020800004EBFFF7D5BF00000F4A00219279012A27
:1020900019D0082812D2DFE800F0110406080A0C53
:1020A0000E1080210AE0402108E0C02106E0202136
:1020B00004E0602102E0A02100E0E021362041F0B0
:1020C000080100F03FB97047500100202DE9F04FA2
:1020D000DFF870B082468946BBF80A0000F01AF9B2
:1020E000194C4FF48077276165156561DFF85C80D6
:1020F0004FEA1A21C8F80010802666612661256122
:10210000276165610AF0FF01C8F800106661266169
:102110002561BBF80C0000F0FDF8276165614FEA0E
:102120001921C8F800106661266125612761656183
:1021300009F0FF01C8F80010666126612561BDE85D
:10214000F08F000050010020001001400C0C0140F5
:102150002DE9FF4F1D460C468A46580700D0012046
:1021600000EBD50069084843203A00F0FF09D0B2DF
:102170000026DFF89CB0029045E00C2D12D0102D07
:1021800015D0182D41D10298224900EBC00000BFA4
:1021900001EB80004FF00008875D38060CD51E4823
:1021A00002880DE002981D4900EB4000F0E71C4951
:1021B000029801EB0010EDE70D9828B91648428807
:1021C00021460098FFF742FD7806070E641CBBF815
:1021D0000200A4B2A04218D9A4EB0A00A84209D177
:1021E00000985446401C80B20090BBF80010814219
:1021F0000BD906E008F1010000F0FF08B8F1080F64
:10220000CBD3761CF6B24E45B7D3BDE8FF8F0000A6
:1022100050010020BC47000800000020583D000885
:10222000CC4100082DE9FF4F81B00026DDF838A031
:102230001D46934681463446B0464FEA5A0727E08A
:10224000281B401EC1B20A20FFF7EAFEBBFBF0F0DC
:102250000A21B0FBF1F201FB120026B9691E8C4283
:1022600001DA48B101263030C2B207FB049080B2D7
:102270005346CDF8008006E007FB049080B2534639
:102280002022CDF800800299FFF762FF641CE4B2BF
:10229000AC42D5D305B0BDE8F08F2DE9F84F044628
:1022A00000F0FF0910190D46DDE90AB61FFA80F8A3
:1022B000581987B24FF0000A12E0444503D305EBEA
:1022C0000B004C4685B2BD420FD25B4629462046E4
:1022D000CDF800A0FFF73CFF04EB5B0084B2761C56
:1022E0003278A2F120005E28E7D9BDE8F88F00001F
:1022F00006494FF480720A614A154A61044B18601E
:102300008020486108610A617047000000100140A8
:102310000C0C014006494FF480724A614A154A612B
:10232000044B18608020486108610A617047000012
:10233000001001400C0C014001480089FFF7EABF82
:102340005001002010B50C46FFF7E4FF06484FF49B
:102350008071016141154161044A1460802242612B
:102360000261016110BD0000001001400C0C014031
:102370002DE9F04F85B0002000900190029003906D
:102380003448816941F010018161816901F01001D7
:102390000491816941F020018161816901F020018E
:1023A0000491816941F004018161816901F00401B6
:1023B0000491816941F0080181618069DFF89880AA
:1023C00000F008004FF6FF740490002221464046BA
:1023D000FEF7A3FBDFF884904FF4F8660022314645
:1023E0004846FEF79AFBDFF878A04FF4807700228A
:1023F00039465046FEF791FBDFF868B00022042111
:102400005846FEF78AFB009401240325694640469E
:102410000194CDE90245FEF77FFACDE900646946F3
:102420004846CDE90245FEF777FACDE9007402256A
:1024300069465046CDE90245FEF76EFA0420CDE923
:10244000000469465846CDE90245FEF765FA05B035
:10245000BDE8F08F00100240000C01400010014068
:10246000000801400014014010B588B014216846EE
:10247000FEF786F800241548059413490694016078
:1024800042F2CF01C0E901144FF47A71C0E903149C
:102490008461FEF7B5FE08B1FEF76EF90094694657
:1024A0000A480194FFF7D9F908B1FEF765F90594D8
:1024B00005A906480694FEF765FE002801D0FEF740
:1024C0005BF908B010BD00000008004028020020A1
:1024D00010B58CB0142104A8FEF752F8002420484F
:1024E0000A9409940094019402941C490394016095
:1024F0004721C0E9011442F21071C0E903148021A0
:102500008161FEF77DFE08B1FEF736F91448FFF74A
:1025100010F808B1FEF730F9049404A910480594A6
:10252000FFF79BF908B1FEF727F9099409A90C48B0
:102530000A94FEF727FE08B1FEF71EF90120CDE947
:10254000004002940422694605480394FEF76AFF9E
:10255000002801D0FEF710F90CB010BD000C0040AF
:10256000700200200C4810B50A4901604FF4E131B7
:102570004160002181600C22C160C0E904128161C8
:10258000C161FFF79FFA002803D0BDE81040FEF7B5
:10259000F3B810BD00380140B8020020FEE7FEE7A6
:1025A0007047000030B50E4A00201478610616D539
:1025B00051686FEA11450B0EEDB29D420AD14BB93D
:1025C000C1F30723C943C9B2994203D1180001D00E
:1025D000210604D424F0400111700021517030BD57
:1025E000380100207047FEF7A3BA30B58FB028211C
:1025F0006846FDF7C5FF14210AA8FDF7C1FF0121B8
:102600000804CDE900100024029402250491CDE9CC
:1026100007504FF4E01009906846FEF70DFC08B132
:1026200072B6FEE70F20CDE90A054FF48060CDE9D0
:102630000C4002210AA80E94FEF712FB002801D0DC
:1026400072B6FEE70FB030BD7047000010B50A4CFF
:102650002068C068C043C00709D1084800698047A6
:1026600021680020486221686420C862E060216817
:102670006FF00100086110BD280200204400002016
:102680000148FEF7FFBF000070020020F0B50268AD
:102690001C4B1D4D1D4E1E4F1E4C4FF0804C984242
:1026A00009D0A04207D0604505D0A84203D0B0426F
:1026B00001D0B84204D122F0700E4A6842EA0E02FC
:1026C000984209D0A04207D0604505D0A84203D067
:1026D000B04201D0B84203D122F44075CA682A43FF
:1026E0004D6922F080022A4302608A68C2620A6849
:1026F0008262984201D0A04201D10969016301219F
:102700004161F0BD002C0140000400400008004081
:10271000000C00400034014010B501F01F030121FE
:10272000046A99408C430462016A9A401143016231
:1027300010BD10B5846842EA032224F47F440A43A2
:102740002243826010BD10B503689A6822F07004BD
:102750004A68224322F007040A6822439A604A68C2
:1027600012F00F0F30D11211082A2DD2DFE802F03B
:102770002C2C2C2C0B2127040B69D1E90221006899
:10278000FFF7D7FF20E00A68052A10D00268136A15
:10279000146A24F00104146202689469096924F03F
:1027A000F00444EA01119161006803620CE0012029
:1027B00010BD0A698968006800F008F804E00A6939
:1027C0008968006800F04AF8002010BD10B5036A5F
:1027D000046A24F001040462846924F0F00444EAE9
:1027E000021423F00A020A438461026210BD000051
:1027F00070B5046A24F0010404628469056A124E0B
:10280000B0420ED0114EB0420BD0B0F1804F08D084
:102810000F4EB04205D00F4EB04202D00E4EB04225
:1028200003D124F00304144301E044F001041A0727
:1028300024F0F00444EA126225F00A0301F00A01D0
:1028400019438261016270BD002C014000340140D7
:102850000004004000080040000C004010B5036A6E
:1028600023F0100303628369046A23F4704343EA8C
:10287000023224F0A00343EA01118261016210BD1B
:1028800030B5046A24F0100404628469056A24F4F3
:10289000407444EA022222F470444FF6FF7202EAC6
:1028A00003322243A02425F0A00304EA01111943B6
:1028B0008261016230BD10B5406A0021C185C184CA
:1028C000FEF7F8FF10BD0168CA6822F49072CA6072
:1028D00001684A6922F001024A61016B012904D1B1
:1028E0000168CA6822F01002CA60202180F83E10F8
:1028F00000210163704708B590F83E10222901D0ED
:10290000022008BD82684FF480539A4201D10169C8
:1029100021B1816A9A421BD04AB10AE00268816AF9
:102920005268C2F308020A80816A891C08E00269C1
:1029300072B10268526802F07F020A70816A491C13
:102940008162C18D491E0904090CC18503D019E0BB
:1029500002685268F1E70168CA6822F02002CA6082
:102960000168CA6822F48072CA6001684A6922F06C
:1029700001024A61202180F83E10016B012903D039
:10298000FFF71FF9002008BD002101630168CA6834
:1029900022F01002CA6001680A68D20602D50A68ED
:1029A00049680091818DFEF784FFEBE770B504461E
:1029B00000680169E26821F4405111430161216915
:1029C000A0680843616908432168CA6841F20C6342
:1029D0009A430243CA6020684169A26921F44071A8
:1029E000114341611E492068884202D1FEF7DEF999
:1029F00001E0FEF7CBF900EBC00101EB00126068CB
:102A000064218000B2FBF0F3B3FBF1F36FF0180622
:102A10007343B2FBF0F5B2FBF0F605EB830532230E
:102A200003EB0515B5FBF1F5B6FBF1F605F0F00586
:102A300005EB0615B2FBF0F6B2FBF0F0B0FBF1F0DF
:102A40006FF01802504306EB800003EB0010B0FB60
:102A5000F1F0216800F00F002844886070BD00008C
:102A60000038014081628285C285002101642222F2
:102A700080F83E2080F83C100168CA6842F48072F9
:102A8000CA6001684A6942F001024A610068C1688F
:102A900041F02001C160002070470000154830B4AB
:102AA00000680068C04380061BD413480068C2B2A7
:102AB000124801880B0414D44C044FF0000304D5D1
:102AC0000A2A0DD141F4004111E00D2A0DD0C1F3C5
:102AD0000D040B4D491C89B22A550180C72900D924
:102AE000038030BC0348FEF7E7BE41F4804101801B
:102AF000F7E70000B802002004380140040000207D
:102B00005E010020FEE70907090E002804DB00F142
:102B1000E02080F80014704700F00F0000F1E02082
:102B200080F8141D704730380A2801D20120704700
:102B3000002070477047000004490A685206FCD51F
:102B4000024AC1B2121D11607047000000380140F6
:102B50001CB500263446FDF7F3FFFFF746FDFFF7EF
:102B600007FCFFF7FFFCFFF77FFCFFF7B1FCFFF767
:102B7000F3F81E20FEF734F8002209211E20FEF78C
:102B80003DF87D48FEF7ACFB2520FEF729F8002232
:102B900009212520FEF732F8012278497848FEF70E
:102BA000FBFF04217748FEF7F3FC76480068C16814
:102BB00041F00101C160744F4FF478401025388016
:102BC00072A0CDE900502B46C82232211E20FFF70B
:102BD00064FB71A0CDE900501023C82246211E20BD
:102BE000FFF75BFB6FA0CDE900501023C8225A21EC
:102BF0001E20FFF752FB6FA0CDE900501023C82222
:102C00006E211E20FFF749FB6DA0CDE90050102377
:102C1000C82282211E20FFF740FB6BA0CDE90050A7
:102C20001023C82296211E20FFF737FB68A0CDE9AC
:102C300000501023C822AA211E20FFF72EFB1F20C0
:102C4000DFF89481388000BFFFF7ACFC07007ED02E
:102C500002460323822156200095FFF7E3FA5F48DE
:102C600000950323027896215620FFF7DBFA622FA6
:102C700035D017DC302F48D00BDC102F4BD003DCC5
:102C80004FB3022F50D12CE0182F40D0222F4BD120
:102C90002DE0382F41D0422F43D0522F43D05A2F0E
:102CA00042D13CE0A82F26D00CDC902F25D004DCAC
:102CB000682F24D07A2F37D12BE0982F21D0A22F44
:102CC00032D10AE0B02F1ED0C22F0ED0E02F10D08C
:102CD000E22F29D107E042A426E043A424E044A443
:102CE00022E044A420E045A41EE047A41CE048A440
:102CF0001AE049A418E04AA416E04BA414E04CA43E
:102D000012E04CA410E04CA40EE04CA40CE04CA447
:102D10000AE04CA408E04CA406E04CA404E04CA457
:102D200002E04CA400E04CA44FF6FF700090BA23E0
:102D3000B422AA215620FEF7DBFFCDE90054102370
:102D4000C822AA215620FFF7A8FA03E0FFE70A20CD
:102D5000FDF7D0FD761CF6B2142E7FF475AFD8F8CF
:102D6000A0110026404621B15FF00001C0F8A0117B
:102D70006AE70121FAE70000280200200C00002089
:102D8000B802002070020020000000204D696E692A
:102D90002053544D3332000052454D4F544520547A
:102DA0004553540041544F4D40414C49454E5445C4
:102DB0004B000000323031392F31312F31350000D6
:102DC0004B455956414C3A004B4559434E543A00F5
:102DD00053594D424F4C3A00000021423901002026
:102DE0004552524F52000000504F574552000000CC
:102DF00055500000504C415900000000414C4945DD
:102E00004E54454B00000000524947485400000012
:102E10004C45465400000000564F4C2D0000000069
:102E2000444F574E00000000564F4C2B000000004E
:102E300031000000320000003300000034000000C8
:102E400035000000360000003700000038000000A8
:102E5000390000003000000044454C455445000056
:102E60000068704770B596B0054614AB01AA03A977
:102E700000F0DEF9002824D18DF84C001D4C04260A
:102E800015E000BF216806EBC00014AB08586A4685
:102E90000BA900F0CDF9002813D103A90BA800F06D
:102EA000FAFB80B19DF84C00401C8DF84C00217D50
:102EB000C0B28142E6D8207D9DF84C1088420ED1E8
:102EC000042016B070BD9DF800009DF804108842E3
:102ED00001D90220F5E79DF84C00A075EBE713A996
:102EE000284600F05DFA0028EBD19DF84C00607593
:102EF0000020E6E7440000202DE9F0417F4C9AB025
:102F0000A57D207DA8427DD90421206801EBC50163
:102F100019AB405810AA11A900F08AF911A978A09C
:102F2000FDF7A6F900270DF1180833E0208B0121E9
:102F3000B940084217D0222173A0FDF799F938460D
:102F400000F098FA011971A02431FDF791F92221BE
:102F50006DA0FDF78DF9384600F08CFA204424303E
:102F600048F827000CE0384600F084FA2044416A13
:102F700048F82710E07D08B365A000BFFDF778F999
:102F80009DF84000401E874202D063A0FDF770F913
:102F90007F1CFFB29DF840008742C7D35FA0FDF7BA
:102FA00067F900F09FFA607D0B2814D2DFE800F08B
:102FB000080D31384048525E6B78880058A0DDE734
:102FC000206850F83500804704E0206850F835103C
:102FD00006988847064600F05FFA9DF864000128CD
:102FE0007DD050A0FDF744F994F8EC0000280DD0F6
:102FF000D4F8F0100A20B1FBF0F200FB1212B1FB82
:10300000F0F100E002E048A0FDF732F91AB0BDE8A7
:10301000F081206850F83520DDE906019047D9E7B6
:10302000206806AE50F8353096E807009847D1E79B
:10303000206806AE50F8355096E80F00A847C9E75B
:103040000A980090206806AE50F8355096E80F00B8
:10305000A847BFE7DDE90A01CDE90001206806AE17
:1030600050F8355096E80F00A847B3E70AAB06AE14
:1030700093E807008DE80700206850F8355096E87F
:103080000F00A847A6E70AAE96E80F008DE80F00EC
:10309000206806AE50F8355096E80F00A84799E72B
:1030A0000BAE96E80F0001AE86E80F000A9800907C
:1030B000206806AE50F8355096E80F00A84789E71B
:1030C0000CAE96E80F0002AE86E80F00DDE90A01BB
:1030D000CDE90001206806AE50F8355000E003E06D
:1030E00096E80F00A84775E7E07D314618B116A0B5
:1030F000FDF7BEF878E717A0FAE7000044000020CB
:103100000D0A2573280000002563000025730000C8
:1031100030582558000000002C0000002900000055
:10312000256C64003B0D0A0046756E6374696F6E12
:103130002052756E2054696D653A25642E253164E0
:103140006D730D0A000000003D305825583B0D0AF4
:10315000000000003D256C753B0D0A00F0B50446EB
:10316000002007460646054623782C2B03D0292B42
:1031700004D01BB103E015B9012700E015B31EB15F
:10318000222B2BD0F7B92FE0A3F1300CBCF1090FA3
:1031900019D92D2B17D02B2B15D0A3F1610CBCF115
:1031A000050F10D9A3F1410CBCF1050F0BD9582B19
:1031B00009D0782B07D0222B0CD0202B1DD02C2B04
:1031C0001BD0FF260CE05FB9612B00D3203B01F838
:1031D000013B12E027B9012635460EE0002567B114
:1031E00000230B701670F0BD3DB15C2B02D1401C6A
:1031F000C0B2641C237801F8013B401CC0B2641CBF
:10320000B2E730B5002515700AE001F8014B1478DB
:10321000401C641CE4B214709C4201D3012030BDF8
:103220000478202C01D0002CEFD10D70002030BD8F
:103230002DE9FF4F002582B0984604462F462E46C2
:103240004FF0010BAA462A46A94615E0202910D0C6
:1032500002F07F03052B0CD202B9802202F07F031B
:10326000042B01D12A290AD1521C0DF80310D2B225
:1032700001E0852A04D0401C01780029E6D162B122
:1032800002F07F0244A10DF80290684600F003FAB4
:1032900038B1012188F8001000224FF000082346C1
:1032A00014E088F80090F7E708F1010000F0FF084B
:1032B00013F8010F202801D02A2807D1184600F062
:1032C00077F9282802D02A2800D0474618782828DD
:1032D00001D00028E8D10FB13C44641C00273946D6
:1032E000207888B1282804D0292806D022280FD099
:1032F00010E079B96D1CEDB20CE059B925B16D1E25
:1033000015F0FF0501D00CE00127012E32D039E085
:1033100049B100214DB12C280FD020281FD02828DA
:103320001DD07AB117E00121F4E7202820D0039BBB
:1033300018700398401C03901AE0521C4FF0010BC8
:10334000D2B20CE0BAF1050F05D20DF80A000AF16D
:10335000010000F0FF0A0BF1010000F0FF0B012D4E
:1033600006D1BBF1020F03D1761C4FF0030BF6B26E
:10337000641CB5E70DF80A9007A1684600F08BF9C8
:1033800000B9002604980670039880F8009006B0F3
:103390003846BDE8F08F0000766F696400000000D9
:1033A0002DE9F04300248946314DB5B0214622462F
:1033B0006B18491CC9B29A760A29F9D303E000BFF9
:1033C00010F8011F91B101782829F9D1461C012775
:1033D00033AA69463046FFF7C1FE06449DF8CC008B
:1033E00040B1012824D0FF2839D10BE0012035B0AD
:1033F000BDE8F0839DF8000080B334A9684600F072
:10340000DFF808B10220F2E7204600F033F8284444
:1034100034994162288B07FA04F1884328830420F9
:1034200029198876641CE4B20A2C18D90320DEE737
:10343000684600F045F900F10108204600F01AF84E
:1034400041196846243100F032F9288B07FA04F15B
:1034500008432919288381F81A80E3E7FFE73078C9
:10346000292801D00028B3D189F800400020BEE708
:1034700044000020024610B500200146054B05E03F
:103480005C18491CA47EC9B22044C0B29142F7D353
:1034900010BD000044000020094800680169C943CC
:1034A000CA070849D1F8F02004D14FF6FF731A4437
:1034B000C1F8F020406A1044C1F8F00070470000E5
:1034C000280200204400002001490120C8757047EF
:1034D000440000200246012000E05043491EC9B2CA
:1034E000FBD2704707486FF0010102681161026862
:1034F000090CD162C1600068002141620248C0F835
:10350000F010704728020020440000202DE9F0410F
:10351000164D2888010426D51549C0B2154F00263E
:103520000E54B9681248884704000FD0104800F0C4
:10353000D1F8012801D0040014D0012C09D0022CAC
:1035400009D0032C09D0042C0CD108E0F86880477E
:1035500008E009A004E00BA002E00DA000E00FA02D
:10356000FCF786FE2E80BDE8F081000004000020FC
:103570005E01002044000020BAAFCAFDB4EDCEF3D6
:10358000210D0A00B2CECAFDB4EDCEF3210D0A0022
:10359000B2CECAFDCCABB6E0210D0A00CEB4D5D276
:1035A000B5BDC6A5C5E4B5C4BAAFCAFD210D0A00B4
:1035B00010F8011F202901D10028F9D1C8B27047A5
:1035C0002DE9F0430D4600244FF00A092646014636
:1035D0002C600A78A2F13003092B14D903782D2B23
:1035E00001D02B2B00D174B1A2F14103052B0AD9D4
:1035F000582A05D012F0FF0F17D00120BDE8F08344
:10360000012C02D0F9E7412A01D34FF010090278CA
:103610002D2A04D02B2A04D0641CE4B203E0022635
:1036200000E00126401C491CD3E70746B9F1100F02
:1036300001D084B112E0032C01D20220DEE73878F9
:10364000302802D17878582801D00320D6E7A41E6C
:10365000E4B2BF1C01E00420D0E70CB1641EE4B268
:103660003878A0F13001092901D8884601E0A0F19D
:10367000370821464846FFF72DFF2A6808FB00203F
:10368000286017F8011F0029E7D1022E01D140421E
:1036900028600020B2E702780B789A4201D001201E
:1036A000704712B1401C491CF5E7002070470278B2
:1036B0000A700278002A02D0401C491CF7E77047C4
:1036C000002102781AB1491CC9B2401CF9E708462A
:1036D00070470000F0B58DB004461E236A4602A96B
:1036E000FFF78FFD0190002872D19DF80000271888
:1036F00000263E4C8DF800609DF8000054F8201024
:1037000002A8FFF7C8FF38B19DF80000401CC0B206
:103710008DF800000728EFD39DF800000425344CF5
:10372000072855D2DFE800F00404395A605F5E00D4
:1037300030A0FCF79DFD30A0FCF79AFD3EA0FCF701
:1037400097FD4DA0FCF794FD5BA0FCF791FD6AA0EE
:10375000FCF78EFD78A0FCF78BFD86A0FCF788FDBA
:103760008BA0FCF785FD93A0FCF782FD97A0FCF7EA
:103770007FFD9CA0FCF77CFDA1A0FCF779FDA7A034
:10378000FCF776FDB3A0FCF773FDC0A0FCF770FD5D
:10379000CBA0FCF76DFDD7A01BE016A0FCF768FDE1
:1037A000E4A0FCF765FD8DF800600BE0216805EBF7
:1037B000C0000958EFA0FCF75BFD9DF80000401C1D
:1037C0008DF80000217D9DF800008142EED856E280
:1037D00057E2FCF74DFD00200DB0F0BD05A0FCF751
:1037E00047FDCBE12CE20CE2EBE1000010000020F1
:1037F000440000200D0A00002D2D2D2D2D2D2D2DE6
:103800002D2D2D2D2D2D2D2D2D2D2D2D2D2D2D2DE8
:1038100055534D4152542056332E332D2D2D2D2DE1
:103820002D2D2D2D2D2D2D2D2D2D2D2D2D2D2D2DC8
:103830002D2D2D200D0A00002020202055534D4114
:103840005254CAC7D3C9414C49454E54454BBFAAEF
:10385000B7A2B5C4D2BBB8F6C1E9C7C9B5C4B4AE46
:10386000BFDAB5F7CAD4BBA5BDBBD7E9BCFE2CCD2A
:10387000A8B9FD200D0A0000CBFC2CC4E3BFC9D2BF
:10388000D4CDA8B9FDB4AEBFDAD6FACAD6B5F7D34F
:10389000C3B3CCD0F2C0EFC3E6B5C4C8CEBACEBA7B
:1038A000AFCAFD2CB2A2D6B4D0D02ED2F2B4CB2C5B
:1038B000C4E3BFC90D0A0000D2D4CBE6D2E2B8FC03
:1038C000B8C4BAAFCAFDB5C4CAE4C8EBB2CECAFD2B
:1038D00028D6A7B3D6CAFDD7D62831302F3136BD6A
:1038E000F8D6C62CD6A7B3D6B8BACAFD29A1A2D796
:1038F000D6B7FBB4AE0D0A00A1A2BAAFCAFDC8EBA1
:10390000BFDAB5D8D6B7B5C8D7F7CEAAB2CECAFDFA
:10391000292CB5A5B8F6BAAFCAFDD7EEB6E0D6A742
:10392000B3D63130B8F6CAE4C8EBB2CECAFD2CB279
:10393000A2D6A7B3D60D0A00BAAFCAFDB7B5BBD899
:10394000D6B5CFD4CABE2ED6A7B3D6B2CECAFDCF77
:10395000D4CABEBDF8D6C6C9E8D6C3B9A6C4DC2C45
:10396000D6A7B3D6BDF8D6C6D7AABBBBB9A6C4DC0A
:103970002E0D0A00BCBCCAF5D6A7B3D63A77777726
:103980002E6F70656E6564762E636F6D0D0A000094
:1039900055534D415254D3D037B8F6CFB5CDB3C3FC
:1039A000FCC1EE28B1D8D0EBD0A1D0B4293A0D0A91
:1039B000000000003F3A202020202020BBF1C8A1B9
:1039C000B0EFD6FAD0C5CFA20D0A000068656C70C2
:1039D0003A202020BBF1C8A1B0EFD6FAD0C5CFA2C3
:1039E0000D0A00006C6973743A202020BFC9D3C34C
:1039F000B5C4BAAFCAFDC1D0B1ED0D0A0A000000CE
:103A000069643A2020202020BFC9D3C3BAAFCAFDC1
:103A1000B5C44944C1D0B1ED0D0A0A006865783AD1
:103A200020202020B2CECAFD3136BDF8D6C6CFD474
:103A3000CABE2CBAF3B8FABFD5B8F12BCAFDD7D697
:103A4000BCB4D6B4D0D0BDF8D6C6D7AABBBB0D0A7D
:103A50000A0000006465633A20202020B2CECAFD2F
:103A60003130BDF8D6C6CFD4CABE2CBAF3B8FABF2F
:103A7000D5B8F12BCAFDD7D6BCB4D6B4D0D0BDF8DA
:103A8000D6C6D7AABBBB0D0A0A00000072756E74B9
:103A9000696D653A312CBFAAC6F4BAAFCAFDD4CB62
:103AA000D0D0BCC6CAB13B302CB9D8B1D5BAAFCA98
:103AB000FDD4CBD0D0BCC6CAB13B0D0A0A00000071
:103AC000C7EBB0B4D5D5B3CCD0F2B1E0D0B4B8F137
:103AD000CABDCAE4C8EBBAAFCAFDC3FBBCB0B2CE24
:103AE000CAFDB2A2D2D4BBD8B3B5BCFCBDE1CAF802
:103AF0002E0D0A002D2D2D2D2D2D2D2D2D2D2D2D65
:103B00002D2D2D2D2D2D2D2D2D2D2D2D2D2D414CB2
:103B100049454E54454B2D2D2D2D2D2D2D2D2D2D23
:103B20002D2D2D2D2D2D2D2D2D2D2D2D2D2D2D20D2
:103B30000D0A00002D2D2D2D2D2D2D2D2D2D2D2D52
:103B40002D2D2D2D2D2D2D2D2D2D2D2D2DBAAFCAF9
:103B5000FDC7E5B5A52D2D2D2D2D2D2D2D2D2D2D73
:103B60002D2D2D2D2D2D2D2D2D2D2D2D2D2D2D2D85
:103B7000200D0A0025730D0A0000000042A0FCF78A
:103B800077FB8DF8006016E0216805EBC0000BABF9
:103B900008580AAA02A9FFF74BFB9DF800102068FD
:103BA00050F8312002A948A0FCF762FB9DF8000004
:103BB000401C8DF80000217D9DF800008142E3D873
:103BC0005DE0AFF2D030FCF753FB6A4602A93846FD
:103BD000FFF7C4FA9DF80000002843D101A902A80C
:103BE000FFF7EEFC8DF8000010B104283AD102E096
:103BF0003AA001991CE03CA0FCF73AFB0120E075DB
:103C00003DE038A0FCF734FB6A4602A93846FFF7CE
:103C1000A5FA9DF8000028BB01A902A8FFF7D0FC77
:103C20008DF8000010B104281CD104E033A00199E4
:103C3000FCF71EFB23E034A0FCF71AFBE6751EE040
:103C400028A0FCF715FB6A4602A93846FFF786FA5A
:103C50009DF8000030B901A902A8FFF7B1FC8DF86A
:103C6000000008B10220B7E5019810F0FF0084F8C9
:103C7000EC0001D029A000E02FA0FCF7F9FA19A070
:103C8000A7E50120A8E500002D2D2D2D2D2D2D2D92
:103C90002D2D2D2D2D2D2D2D2D2D2D2D2D2D2D2D54
:103CA0002DBAAFCAFD204944202D2D2D2D2D2D2DAF
:103CB0002D2D2D2D2D2D2D2D2D2D2D2D2D2D2D2D34
:103CC0002D2D2D2D200D0A00257320696420697388
:103CD0003A0D0A3058253038580D0A004845583AF0
:103CE000305825580D0A00003136BDF8D6C6B2CE80
:103CF000CAFDCFD4CABE210D0A0000004445433A94
:103D0000256C750D0A0000003130BDF8D6C6B2CE64
:103D1000CAFDCFD4CABE210D0A00000052756E2024
:103D200054696D652043616C63756C6174696F6E75
:103D3000204F4E0D0A00000052756E2054696D65CB
:103D40002043616C63756C6174696F6E204F4646E9
:103D50000D0A000001607047000000000000000034
:103D600000000000000000003F40000000000000D4
:103D700000003000400030004000000009000BC08F
:103D80003D000BC03D00090018C024407FE02240E8
:103D900031800000180024C01B000D8032400180DB
:103DA00003801C4027401C8007400040100060003A
:103DB00000000000000000000000000000001F8064
:103DC000204040200000402020401F8000000000D4
:103DD000090006001F80060009000000040004001E
:103DE0003F8004000400000000100060000000009C
:103DF00000000000040004000400040004000000AF
:103E0000000000400000000000000000002001C091
:103E100006003800400000001F8020402040204065
:103E20001F800000000010403FC000400000000064
:103E300018C021402240244018400000108020403B
:103E4000244024401B80000002000D0011003FC0F0
:103E5000014000003C802440244024402380000096
:103E60001F802440244034400380000030002000A4
:103E700027C03800200000001B802440244024403C
:103E80001B8000001C0022C0224022401F80000036
:103E900000000000084000000000000000000000DA
:103EA0000460000000000000000004000A0011008F
:103EB00020804040090009000900090009000000B5
:103EC00000004040208011000A000400180020007B
:103ED00023402400180000001F8020402740294074
:103EE0001F400000004007C039000F0001C0004023
:103EF00020403FC0244024401B8000001F80204001
:103F0000204020403080000020403FC02040204022
:103F10001F80000020403FC024402E4030C00000E1
:103F200020403FC024402E00300000000F001080D1
:103F3000204022403380020020403FC004000400A3
:103F40003FC02040204020403FC020402040000093
:103F50000060202020203FC02000200020403FC0E3
:103F600024400B0030C0204020403FC02040004093
:103F7000004000C03FC03C0003C03C003FC0000008
:103F800020403FC00C4023003FC020001F80204045
:103F9000204020401F80000020403FC024402400DB
:103FA000180000001F802140214020E01FA00000D9
:103FB00020403FC02440260019C0004018C02440C3
:103FC0002440224031800000300020403FC020408B
:103FD0003000000020003F80004000403F80200073
:103FE00020003E0001C0070038002000380007C054
:103FF0003C0007C038000000204039C0060039C02E
:10400000204000002000384007C038402000000059
:10401000304021C02640384020C000000000000091
:104020007FE0402040200000000070000C00038072
:10403000004000000000402040207FE00000000021
:1040400000002000400020000000000000100010D0
:1040500000100010001000100000000040000000E0
:1040600000000000000002800540054003C0004041
:1040700020003FC004400440038000000000038093
:104080000440044006400000000003800440244037
:104090003FC0004000000380054005400340000091
:1040A000000004401FC0244024402000000002E023
:1040B000055005500650042020403FC00440040035
:1040C00003C000400000044027C000400000000082
:1040D00000100010041027E00000000020403FC046
:1040E0000140070004C00440204020403FC0004081
:1040F0000040000007C0040007C0040003C0000027
:10410000044007C00440040003C0004000000380D6
:104110000440044003800000041007F004500440F1
:1041200003800000000003800440045007F00010EA
:10413000044007C0024004000400000000000640E4
:104140000540054004C00000000004001F8004403A
:1041500000400000040007800040044007C0004009
:104160000400070004C0018006000400060001C02E
:10417000070001C006000000044006C0010006C0A0
:10418000044000000410071004E001800600040051
:104190000000044005C0064004400000000000008C
:1041A00004007BE040200000000000000000FFF061
:1041B00000000000000040207BE004000000000040
:1041C000400080004000200020004000000000006F
:1041D00000000000000000000000000000000000DF
:1041E00000001FCC000C00000000000000000800D0
:1041F000300060000800300060000000022003FC76
:104200001E20022003FC1E200220000000000E18C9
:1042100011043FFF10840C78000000000F00108490
:104220000F3800C0077818840078000000780F84E9
:1042300010C411240E9800E40084000808006800EF
:1042400070000000000000000000000000000000FE
:10425000000007E01818200440020000000040029F
:104260002004181807E0000000000000024002408F
:1042700001800FF0018002400240000000800080B9
:1042800000800FF800800080008000000001000D19
:10429000000E000000000000000000000000008090
:1042A0000080008000800080008000800000000C02
:1042B000000C0000000000000000000000000006EC
:1042C000001800600180060018002000000007F0C0
:1042D000080810041004080807F000000000080493
:1042E00008041FFC000400040000000000000E0C85
:1042F00010141024104411840E0C000000000C183F
:1043000010041104110412880C700000000000E079
:104310000320042408241FFC0024000000001F9830
:10432000108411041104108810700000000007F0C0
:1043300008881104110418880070000000001C0097
:10434000100010FC13001C001000000000000E38CC
:1043500011441084108411440E380000000007003E
:10436000088C10441044088807F00000000000008A
:104370000000030C030C000000000000000000001F
:1043800000010106000000000000000000000080A5
:10439000014002200410080810040000022002203E
:1043A000022002200220022002200000000010044F
:1043B00008080410022001400080000000000E00E8
:1043C0001200100C106C10800F00000003E00C189D
:1043D00013E4142417C4082807D000000004003C8C
:1043E00003C41C40074000E4001C000410041FFC30
:1043F0001104110411040E880070000003E00C1871
:1044000010041004100410081C10000010041FFCFD
:10441000100410041004080807F0000010041FFC2A
:104420001104110417C410040818000010041FFC24
:104430001104110017C010000800000003E00C1860
:104440001004100410441C780040000010041FFCED
:1044500010840080008010841FFC100400001004F1
:1044600010041FFC100410040000000000030001F1
:10447000100110011FFE10001000000010041FFCAE
:10448000110403801464181C1004000010041FFCA5
:104490001004000400040004000C000010041FFCC1
:1044A0001F0000FC1F001FFC1004000010041FFC74
:1044B0000C04030000E010181FFC100007F00808AF
:1044C000100410041004080807F0000010041FFC7A
:1044D00010841080108010800F00000007F0081872
:1044E00010241024101C080A07F2000010041FFCFE
:1044F0001104110011C011300E0C000400000E1C3C
:1045000011041084108410441C380000180010009E
:1045100010041FFC100410001800000010001FF809
:1045200010040004000410041FF8100010001E0006
:1045300011E0001C007013801C0010001FC0103C14
:1045400000E01F0000E0103C1FC000001004180C29
:10455000163401C001C01634180C100410001C00E1
:10456000130400FC13041C00100000000804101CBD
:104570001064108413041C041018000000000000D4
:1045800000007FFE400240024002000000003000B8
:104590000C0003800060001C0003000000004002CB
:1045A000400240027FFE000000000000000000000A
:1045B00020004000400040002000000000010001F9
:1045C00000010001000100010001000100004000A5
:1045D00040002000000000000000000000000098E3
:1045E000012401440144014400FC000410001FFCAC
:1045F00000880104010400880070000000000070C1
:10460000008801040104010400880000000000701B
:1046100000880104010411081FFC0004000000F8D8
:10462000014401440144014400C8000000000104A9
:1046300001040FFC1104110411001800000000D641
:1046400001290129012901C90106000010041FFCEC
:10465000008401000100010400FC000400000104CA
:10466000190419FC0004000400000000000000030D
:1046700000010101190119FE0000000010041FFCD7
:104680000024004001B4010C0104000000001004EB
:1046900010041FFC0004000400000000010401FCE1
:1046A0000104010001FC0104010000FC010401FC03
:1046B000008401000100010400FC0004000000F877
:1046C000010401040104010400F80000010101FFDC
:1046D00000850104010400880070000000000070E3
:1046E000008801040104010501FF00010104010427
:1046F00001FC00840104010001800000000000CCE6
:10470000012401240124012401980000000001007B
:10471000010007F80104010400000000010001F895
:10472000000400040004010801FC000401000180F1
:104730000170000C001001600180010001F0010C0B
:10474000003001C00030010C01F001000000010444
:10475000018C00740170018C0104000001010181D1
:104760000171000E00180160018001000000018449
:10477000010C013401440184010C00000000000020
:104780000000000001003EFC40024002000000006A
:1047900000000000FFFF00000000000000004002D9
:1047A00040023EFC0100000000000000000060002C
:1047B0008000800040004000200020000000000039
:1047C00000000000000000000000000000000000E9
:1047D00000000000000000000000000000000000D9
:1047E0000000000000000000000000000000000FBA
:1047F00080380FFE380F80380000000000000000F5
:1048000000000000000000000000010000060000A1
:104810000C00003800003100000600000C000038D9
:104820000000300000000000000000006180006710
:10483000F807F9800061800061800061800061807C
:104840000067F807F98000618000000000000000A8
:10485000000001C0E003E0F00630080418081FFF64
:10486000FE040E080787F00381E00000000000004E
:1048700001F000060C00040408060C7001F9C000E9
:104880000E00003BE000EC18070808040C180003B9
:10489000E00000000001E00007F003F818041C0825
:1048A00004170807E1D003C0E00023B0003C080073
:1048B000200800001000000000000001000031008E
:1048C000003200001C00000000000000000000009A
:1048D00000000000000000000000000000000000D8
:1048E0000000000000000000000000007F0001FF49
:1048F000C00780F00C001810000420000200000027
:104900000000002000021000040C00180780F001D5
:10491000FFC0007F00000000000000000000000059
:104920000000000000000000420000660000660079
:10493000003C0000180003FFC0001800003C00000D
:104940006600006600004200000000000800000849
:104950000000080000080000080001FFC000080077
:104960000008000008000008000008000000000027
:10497000000100003100003200001C0000000000B7
:104980000000000000000000000000000000000027
:1049900000000000080000080000080000080000F7
:1049A00008000008000008000008000008000008D7
:1049B0000000000000000000000000003800003887
:1049C00000003800000000000000000000000000AF
:1049D00000000000000000000000000000060000D1
:1049E0001C000070000180000E0000380000C000B4
:1049F0000700001C00003000000000000000000064
:104A00007F8001FFE00380700600180400080400A6
:104A10000806001803807001FFE0007F800000009E
:104A20000000000000000100080100080100080368
:104A3000FFF807FFF8000008000008000008000069
:104A40000000000000000001C03802C058040098B7
:104A5000040118040218040418061C1803F81801AD
:104A6000E0F800000000000000000001C0E003C00A
:104A7000F004000804080804080806180803F418DD
:104A800001E7F00001E0000000000000000000006D
:104A90000300000D00001100006100008108030107
:104AA0000807FFF80FFFF8000108000108000000E8
:104AB0000000000000E007FCD00608080610080609
:104AC0001008061008061838060FF00607C0000088
:104AD00000000000000000003F8001FFE003843080
:104AE000020818041008041008041008071810031E
:104AF0000FF00007C000000000000000000003C02D
:104B0000000700000600000600F80607F806180077
:104B100006E00007000006000000000000000001A1
:104B2000E1E003F7F0063410041808041808040C38
:104B300008040C0806161803F3F001C1E000000099
:104B400000000000F80003FC3003063804020804EB
:104B500002080402080404100308F001FFC0007FEB
:104B60000000000000000000000000000000000045
:104B7000000000007038007038007038000000003D
:104B80000000000000000000000000000000000025
:104B90000000000000000000301A00301C0000007F
:104BA0000000000000000000000000000000000005
:104BB00000000008000014000022000041000080F6
:104BC00080010040020020040010080008000000DE
:104BD0000000000021000021000021000021000051
:104BE00021000021000021000021000021000021FF
:104BF0000000000000000000000008000804001091
:104C000002002001004000808000410000220000DE
:104C1000140000080000000000000003C00004C0F1
:104C200000040000080038080F3808083808100091
:104C30000C300007E00003C000000000000000008E
:104C40003F8000FFE0038070020F1006708804C0F0
:104C500088048308047F8802C09003012000FE407E
:104C60000000080000180001F8003E0801C200071B
:104C7000020007E20000FE00001FC80001F800006B
:104C80003800000804000807FFF807FFF8040808C8
:104C900004080804080804080806180803F41801A2
:104CA000E7F00001E0000000000000003F8001FF8D
:104CB000E0038070020018040008040008040008E3
:104CC0000400100600200780C00000000400080750
:104CD000FFF807FFF80400080400080400080400B7
:104CE0001802001003807001FFE0007F80000000C8
:104CF00004000807FFF807FFF80408080408080480
:104D00000808040808043E0804000806001801000A
:104D10006000000004000807FFF807FFF804080817
:104D2000040800040800040800043E000600000611
:104D30000000018000000000000000003F8001FF33
:104D4000E00380700600180400080402080402084A
:104D50000203F00783F000020000020004000807CD
:104D6000FFF807FFF8040808000800000800000822
:104D70000000080004080807FFF807FFF80400080F
:104D800000000000000004000804000804000807F8
:104D9000FFF807FFF80400080400080400080000FA
:104DA00000000000000000000006000007000001F5
:104DB00004000104000104000307FFFE07FFFC04D8
:104DC000000004000004000004000807FFF807FFCB
:104DD000F8040C08001800003E0004C7800503C852
:104DE0000600F80400380400180000080400080752
:104DF000FFF807FFF80400080000080000080000A2
:104E00000800000800000800001800006000000012
:104E100004000807FFF807800807FC00007FC000B7
:104E200003F80007C000780007800807FFF807FFB5
:104E3000F804000804000807FFF807000803C00092
:104E400000E000003800001E000007000001C00460
:104E500000F007FFF8040000000000007F8001FF61
:104E6000E00380700600180400080400080600181B
:104E700003003001FFE0007F80000000040008070D
:104E8000FFF807FFF8040408040400040400040405
:104E900000040400060C0003F80001F0000000000C
:104EA000000000007F8001FFE0038070060088049E
:104EB00000880400C806003C03003E01FFE6007FB6
:104EC0008400000004000807FFF807FFF804080842
:104ED000040800040C00040F00040BC00610F003CB
:104EE000F03801E00800000800000001E0F803F0DD
:104EF00030063010041808041808040C08040C08C4
:104F00000206180207F00781E00000000180000699
:104F1000000004000004000004000807FFF807FF79
:104F2000F8040008040000040000060000018000EE
:104F300004000007FFE007FFF0040018000008006D
:104F4000000800000800000800000804001007FF27
:104F5000E004000004000006000007E00007FE0077
:104F6000041FE00001F80000380001E0043E0007E3
:104F7000C00006000004000004000007E00007FF76
:104F8000C0041FF80007C007F80007FF80043FF8BF
:104F90000007C004F800070000040000000000043F
:104FA000000806001807C07805F1C8003E00001F81
:104FB000800463E80780F806001804000800000079
:104FC00004000006000007800007E008047C0800D9
:104FD0001FF80007F800180804E0080700000600A2
:104FE000000400000000000100080600380400F87A
:104FF0000403E8040F08047C0805F00807C008074C
:105000000018040060000000000000000000000024
:10501000000000000000003FFFFE20000220000210
:10502000200002200002200002000000000000001A
:10503000000008000007000000C000003800000663
:10504000000001C000003000000E00000100000060
:1050500000000000000020000220000220000220CA
:1050600000022000023FFFFE0000000000000000E0
:105070000000000000000000000000000008000028
:105080001000003000002000003000001000000878
:10509000000000000000000000000100000100000E
:1050A00001000001000001000001000001000001FA
:1050B00000000100000100000100000100000000EC
:1050C0000000000000200000200000100000100080
:1050D00000000000000000000000000000000000D0
:1050E0000000000000F00019F8001B180022080062
:1050F0002608002408002410003FF8001FF80000D4
:105100000800001800000004000007FFF80FFFF07F
:1051100000181800100800200800200800301800AF
:105120001FF0000FC00000000000000007C0001FBB
:10513000F0001830002008002008002008003C087B
:10514000001C1000006000000000000000000000D3
:1051500007C0001FF00038180020080020080020B9
:105160000804101007FFF80FFFF000001000000007
:105170000000000000000007C0001FF00012300017
:105180002218002208002208003208001E10000E1B
:10519000200000000000000020000020080020087F
:1051A00001FFF803FFF80620080420080420080780
:1051B000200003000000000000000000000E000EB0
:1051C0006E001FF30031B10020B10020B100319119
:1051D000001F13002E1E00200E00300000000004EF
:1051E000000807FFF80FFFF800100800200000205B
:1051F00000002008003FF8001FF800000800000031
:105200000000000000000020080020080020080620
:105210003FF8063FF8000008000008000008000002
:105220000000000000000000000000000300000378
:10523000002001002001002003063FFE063FFC0085
:10524000000000000000000000000004000807FF4C
:10525000F80FFFF8000188000300002FC00038F8A5
:1052600000203800200800000800000000000000B6
:10527000000004000804000804000807FFF80FFFFE
:10528000F80000080000080000080000000000000E
:10529000002008003FF8003FF80010080020000040
:1052A0003FF8003FF8001008002000003FF8003FE2
:1052B000F8000008000000002008003FF8003FF858
:1052C000001008001000002000002008003FF80037
:1052D0001FF80000080000000000000007C0000FD9
:1052E000F0001830003008002008002008003008C6
:1052F000001830000FF00007C000000000000000A0
:105300002001003FFF003FFF001011002009002096
:1053100008002008003038001FF0000FC000000017
:105320000000000007C0001FF0003818002008002F
:105330002008002009001011001FFF003FFF00009F
:1053400001000000002008002008002008003FF8AD
:10535000003FF800080800100800200800200000A6
:105360003000003000000000000000000000000CD1
:1053700078001E1800330800230800210800218847
:105380000021980030F000386000000000000000AC
:10539000200000200000200000FFF003FFF80020A4
:1053A0000800200800200800003000000000000075
:1053B000000000002000003FF0007FF8000018000F
:1053C0000008000008002010003FF8007FF00000F7
:1053D00010000000000000002000003000003C0031
:1053E000003F800023F00000780000700023800060
:1053F0003C00003000002000002000003C00003F86
:10540000E00023F80000E0002700003E00003FE03D
:105410000021F80001E0003E000020000000000034
:105420002008002008003838003E6800278000036C
:10543000C8002CF8003838002018002008000000B0
:10544000000000002000003003003C01003F83000A
:1054500023EC000070002380003C000020000020AE
:1054600000000000000000000000003808002038A4
:105470000020F80023E8002F88003E0800380800CC
:105480002018000070000000000000000000000074
:10549000000000000000000008000014001FF7FCDE
:1054A00030000620000200000000000000000000A4
:1054B0000000000000000000000000000000FFFFEE
:1054C000FF000000000000000000000000000000DD
:1054D0000000000000002000023000061FF7FC0062
:1054E00014000008000000000000000000000000A0
:1054F00000000000000000180000600000400000F4
:10550000400000200000100000080000040000041B
:1055100000000C000010000000000000000000006F
:105520000102030406070809000000000102030449
:1055300030313233343536373839414243444546C9
:1055400040305800303132333435363738396162C3
:1055500063646566403078000400000800000000C5
:105560000000000200010000100000003F000000E9
:10557000646563006964000072756E74696D65002E
:1055800068656C70000000006C69737400000000B6
:1055900068657800766F69642077726974655F6109
:1055A0006464722875696E7433325F742061646458
:1055B000722C75696E7433325F742076616C2900C9
:1055C00075696E7433325F7420726561645F616403
:1055D00064722875696E7433325F7420616464721A
:1055E00029000000766F69642048414C5F44656C77
:1055F00061792875696E7433325F742044656C611B
:105600007929000024560008000000205001000005
:105610006C010008705600085001002010080000BE
:10562000C801000821C3FFFF136C551B0880041A32
:1056300088041A74041A90041A70041A7804136106
:105640002E1B08C00813553D1B08940813F5081BB2
:1056500008E408222C1420C9341B0865201AF90418
:10566000130D3523080302E40129E582101324F405
:0400000508000131BD
:00000001FF
