:020000040800F2
:1000000018080020E10100084B1E0008171C00081A
:10001000491E0008C50500088124000800000000F2
:100020000000000000000000000000004F1E00085B
:10003000C7050008000000004D1E0008511E000802
:10004000FB010008FB010008FB010008FB010008A0
:10005000FB010008FB010008FB010008FB01000890
:10006000FB010008FB010008FB010008FB01000880
:10007000FB010008FB010008FB010008FB01000870
:10008000FB010008FB010008FB010008FB01000860
:10009000FB010008FB010008FB010008FB01000850
:1000A000FB010008FB010008FB010008FB01000840
:1000B000FB010008FB010008FB010008FB01000830
:1000C000FB010008FB010008FB010008FB01000820
:1000D000FB01000855240008FB010008FB01000893
:1000E000FB010008FB010008FB010008FB01000800
:1000F000FB010008FB010008FB010008FB010008F0
:10010000FB010008FB010008B51E0008FB01000808
:10011000FB010008FB010008FB010008FB010008CF
:10012000FB010008FB010008FB010008FB010008BF
:1001300000F002F800F044F80AA090E8000C8244B5
:100140008344AAF10107DA4501D100F039F8AFF292
:10015000090EBAE80F0013F0010F18BFFB1A43F0A5
:10016000010318471824000038240000103A24BF67
:1001700078C878C1FAD8520724BF30C830C144BF0C
:1001800004680C607047000000230024002500264E
:10019000103A28BF78C1FBD8520728BF30C148BFEA
:1001A0000B60704703681B0A28BF41F08001E429F7
:1001B00000F04480002070471FB51FBD10B510BD72
:1001C00000F0CEF91146FFF7F7FF02F077F900F0E3
:1001D000ECF903B4FFF7F2FF03BC02F062F9000090
:1001E0000948804709480047FEE7FEE7FEE7FEE7CB
:1001F000FEE7FEE7FEE7FEE7FEE7FEE70448054907
:10020000054A064B70470000B31E00083101000884
:1002100018020020180800201804002018040020EC
:10022000704700000FB4044910B503AA029800F00B
:1002300069F910BC5DF814FB080000202DE9F041BD
:100240008046D21D22F007020025D2E90002F529DE
:1002500015A614D0011E72F1000106DA0023D0EBBE
:10026000030063EB020211A608E0D8F800108B0728
:1002700001D50FA602E0490701D50EA601251146BA
:10028000002408F1240704E000F09DF830323A55CC
:10029000641C50EA0102F7D12B4632462146404603
:1002A000BDE8F04100F0D4B8000000002D000000CF
:1002B0002B000000200000002DE9F0410F4605460C
:1002C000002028622846E968884770B3252805D0B1
:1002D000D5E901219047286A401CF2E7E9682846E1
:1002E000002688476C2804460AD0682C08D04C2C7D
:1002F00035D06A2C31D0742C31D07A2C2FD016E026
:10030000E968064628468847B042044608D16C2E64
:1003100023D04FF480662846E9688847044606E003
:100320006C2E03D04FF4807601E01EE04026E4B14D
:10033000A4F14100192802D8203446F400663A4658
:10034000214628462E60FFF72DFF60B1012808D016
:10035000FF1D27F007070837B4E78026DBE70026F4
:10036000D9E73F1DAEE72046B2E7286ABDE8F08135
:100370004FF0000200B5134694469646203922BF3E
:10038000A0E80C50A0E80C50B1F12001BFF4F7AF89
:10039000090728BFA0E80C5048BF0CC05DF804EB6B
:1003A000890028BF40F8042B08BF704748BF20F8D9
:1003B000022B11F0804F18BF00F8012B70477047D7
:1003C00070477047704730B5B0F10A024FEA900E9F
:1003D00071F100034EEA817EB0EB0E0061EB9101FA
:1003E0004FEA101E4EEA017E10EB0E0041EB111198
:1003F0004FEA102E4EEA016E10EB0E0041EB112178
:100400004FEA104E4EEA014E10EB0E0041EB114147
:10041000401841F100014FEAD00040EA41704FEA34
:10042000D10110EB80054FEA810444EA907444EB5B
:1004300001046D1944EB0404521BA3414FF0000367
:1004400048BF0A3200D530BD401C41F1000130BD2B
:100450002DE9F0470D4699469246044600F12408DE
:100460000168880604D5E06921F01001216000E0F0
:100470000120A84201DD471B00E00027A1697A198D
:1004800002EB0900081AA0612078C00602D42046B9
:10049000AFF30080002608E0D4E901211AF8060035
:1004A0009047206A401C761C20624E45F4DB207881
:1004B000C0060AD52046AFF3008006E0D4E901214A
:1004C00030209047206A401C2062381EA7F10107A7
:1004D000F4DC07E0D4E9012118F805009047206A10
:1004E000401C2062281EA5F10105F3DC2046AFF375
:1004F00000802078000602D50220BDE8F0870120A8
:10050000FBE70000074B70B50D467B4400F011F887
:100510000446284600F020F810B14FF0FF3070BDBF
:10052000204670BD971F000001694A1C02610878CF
:10053000704700B58FB0CDE9013100210591054923
:100540007944CDE9031011466846FFF7B5FE0FB0B8
:1005500000BD0000E5FFFFFF007B00F0800070475A
:10056000754600F02BF8AE4605006946534620F06C
:100570000700854618B020B5FFF740FEBDE82040D3
:100580004FF000064FF000074FF000084FF0000B4F
:1005900021F00701AC46ACE8C009ACE8C009ACE802
:1005A000C009ACE8C0098D46704710B50446AFF3EA
:1005B00000802046BDE81040FFF70BBE00487047A2
:1005C000B8010020FEE7704772B6FEE710B590F85C
:1005D00021100022022905D00421816380F8202007
:1005E000012010BD01680B6823F00E030B60016849
:1005F0000B6823F001030B6090F84030C46B0121BD
:1006000001FA03F3636080F8211080F8202010467F
:1006100010BD00002DE9F05F90F8211000240229A0
:1006200003D004218163012485E001680A6822F077
:100630000E020A6001680A6822F001020A603F4E59
:100640003E4FB215DFF8F4C0DFF8F090DFF8ECA011
:10065000DFF8E8B0DFF8E4E00168783F1301150245
:10066000ACF1640CA9F15009AAF13C0AABF1280BDA
:10067000AEF1140E4FF48018B14227D9B9420ED012
:10068000614512D049451DD0514518D0594518D063
:10069000714501D1424615E0294EB14201D10122F6
:1006A00010E0274E1436B14201D110220AE0244E48
:1006B0002836B14206D0224A3C32914201D11A4634
:1006C00000E02A461E49091F0A602BE0B94213D0F8
:1006D000614517D0494522D051451DD059451DD0FF
:1006E000714501D142461AE0B14202D14FF0807209
:1006F00015E0134EB14201D1012210E0104E143624
:10070000B14201D110220AE00D4E2836B14206D086
:100710000B4A3C32914201D11A4600E02A46074971
:1007200080394A60012180F82110002180F82010D2
:10073000416B01B188472046BDE8F09F8000024030
:100740000804024070B5044600F010F90546601C2C
:1007500002D004480078044400F008F9401BA0428D
:10076000FAD370BD100000202DE9F84FDFF8C891D2
:10077000002409F1040A0AF1040B23460F270BF1A8
:10078000040ED1E00125A54006EA0502AA4276D171
:10079000DFF8A8C14E68A6EB0C0866452BD00DDC2F
:1007A000032E34D005DC36B3012E19D0022E2FD102
:1007B0001BE0112E16D0122E2AD119E0B8F5881F91
:1007C00019D006DCB8F5803F15D0B8F5801F1FD1D1
:1007D00011E0B8F5001F0ED0B8F5041F18D10AE0DB
:1007E000CB6815E0CB681B1D12E0CB6808330FE027
:1007F000CB680C330CE08B682BB1012B4FF0080356
:1008000003D0456104E0042302E0056100E0002319
:10081000FF2A01D8064601E000F104064FEA8405EC
:1008200001D9A5F12005D6F8008007FA05FC28EAD1
:100830000C0803FA05F548EA0508C6F800804D687B
:10084000ED0070D53E4DAE6946F00106AE61AD6972
:1008500024F0030605F0010500953A4D06EB050C62
:10086000DCF80850A607360F07FA06F825EA08054F
:10087000DFF8D480404503D14FF0000825E052E076
:10088000DFF8C880404502D14FF001081DE0DFF8D5
:10089000C080404502D14FF0020816E0DFF8B48076
:1008A000404502D14FF003080FE0DFF8AC8040452F
:1008B00002D14FF0040808E0DFF8A080404502D1E3
:1008C0004FF0050801E04FF0060808FA06F848EA7C
:1008D0000508CCF808804D68D9F80060ED034D4656
:1008E00001D5164300E096432E604D68DAF80060AB
:1008F000AD03554601D5164300E096432E604D6882
:10090000DBF80060ED025D4601D5164300E096433A
:100910002E604D68DEF80060AD02754601D51643C5
:1009200000E096432E60641C0A681646E2407FF49D
:1009300029AFBDE8F88F000000040140000011104D
:10094000001002400000014000080140000C01407E
:10095000001001400014014000180140001C01403B
:100960000AB1016170470904FBE700000148806893
:10097000704700001000002002488168027811448E
:100980008160704710000020074810B5016841F0F1
:1009900010010160032000F075F80F2000F006F848
:1009A00000F024F8002010BD0020024070B50D4D6D
:1009B00004464FF47A712878B1FBF0F00A490968CF
:1009C000B1FBF0F000F0ECFA48B9102C07D200228D
:1009D0002146501E00F036F800206C6070BD0120EA
:1009E00070BD0000100000200C0000200C4808B56D
:1009F000816941F001018161816901F0010100918A
:100A0000C16941F08051C161C06900F0805000901F
:100A10000448416821F0E06141F00071416008BD87
:100A20000010024000000140002809DB00F01F0216
:100A3000012191404009800000F1E020C0F8001140
:100A400070470000F0B40E4B1B680C46C3F3022342
:100A5000C3F10705042D00D90425191D072901D26A
:100A6000002300E0DB1E012606FA05F1491E2140A5
:100A700099409E40761E16403143F0BC01F001BD06
:100A80000CED00E0064900F0070208684FF6FF038E
:100A9000184040EA0220034A1043086070470000F3
:100AA0000CED00E00000FA052DE9F0470F460500C7
:100AB00061D0434E306800F00700B84209D2306878
:100AC00020F0070038433060306800F00700B8427B
:100AD00051D128683B4C810712D5400703D5606887
:100AE00040F4E06060602878000703D5606840F457
:100AF000605060606068A96820F0F00008436060A2
:100B00002878C00728D06868012810D021680228FA
:100B100010D0890700292EDA616821F00301014312
:100B20006160FFF723FF804641F288390DE02168BC
:100B30008903EFE78901EDE7FFF718FFA0EB080154
:100B4000494502D90320BDE8F0876068696800F074
:100B50000C00B0EB810FEFD1306800F00700B84215
:100B60000BD9306820F0070038433060306800F05F
:100B70000700B84201D00120E5E72878400705D5F5
:100B80006068E96820F4E060084360602878000746
:100B900006D56068296920F4605040EAC1006060B1
:100BA00000F038F86168084AC1F30311515CC8408D
:100BB0000649086006480068FFF7F8FE0020C2E713
:100BC0000020024000100240642500080C000020B4
:100BD000140000200448054900684968044AC1F32C
:100BE0000221515CC84070470C00002000100240F8
:100BF000742500080448054900684968044AC1F39F
:100C0000C221515CC84070470C0000200010024017
:100C10007425000812A185B00FC98DE80F0014A03B
:100C2000144A006804905168134801F00C03042B27
:100C300010D0082B0ED1C1F38343C9031DF8030064
:100C40000AD5516804AAC1F34041515C0A4A504395
:100C5000B0FBF1F005B0704708494843FAE70000DF
:100C600002030405060708090A0B0C0D0E0F1010ED
:100C7000010200000010024000127A0000093D004D
:100C80002DE9F84F040070D02078C04DC00749D03E
:100C90006868C0F38100012807D06868C0F381004C
:100CA000022809D16868C00306D52868800339D5B1
:100CB00060680028E7D035E06068B0F5803F0BD071
:100CC00010B1B0F5A02F11D0286820F48030286032
:100CD000286820F4802002E0286840F480302860F2
:100CE000606890B1FFF742FE06460AE0286840F4CB
:100CF00080202860F0E700BFFFF738FE801B6428E3
:100D000073D828688003F7D50CE0FFF72FFE06465E
:100D100005E000BFFFF72AFE801B6428F0D8286892
:100D20008003F7D420789A4E80074FF001094FF0E6
:100D3000000839D5686810F00C0F07D06868C0F358
:100D40008100022809D16868C00306D4286880079A
:100D500014D52069012808D110E02069B0B1C6F887
:100D60000090FFF703FE074605E00AE1FFF7FEFDEE
:100D7000C01B0228C4D828688007F7D52868616995
:100D800020F0F80040EAC10028600DE0C6F80080BD
:100D9000FFF7ECFD074604E0FFF7E8FDC01B022863
:100DA00023D828688007F7D4207800072CD5794805
:100DB000A169D9B1C0F80090FFF7D8FD074604E05B
:100DC000FFF7D4FDC01B02280FD8686A8007F7D54B
:100DD00071484FF4FA510068B0FBF1F0009000BF89
:100DE0000098411E0091FAD20EE080E0C0F8008029
:100DF000FFF7BCFD074604E0FFF7B8FDC01B022863
:100E000075D8686A8007F7D42078400760D5E8690C
:100E10000027C00008D4E86940F08050E861E86924
:100E2000012700F0805000905C480168C90513D488
:100E30000168834641F480710160FFF797FD8246A7
:100E400006E000BFFFF792FDA0EB0A0064284ED831
:100E5000DBF80000C005F5D5E06801280AD008B12C
:100E6000052813D0286A20F001002862286A20F0A3
:100E7000040002E0286A40F001002862E06841F2C4
:100E8000883B98B1FFF772FD82460BE0286A40F07C
:100E900004002862EEE700BFFFF768FDA0EB0A013F
:100EA00059455AD8286A8007F6D50CE0FFF75EFD51
:100EB000824605E0FFF75AFDA0EB0A0159454CD8E0
:100EC000286A8007F6D41FB1E86920F08050E861F5
:100ED000E06988B36968C1F38101022944D002281E
:100EE000C6F8608004D0FFF741FD044638E034E0E6
:100EF000FFF73CFD074604E0FFF738FDC01B022862
:100F00002BD828688001F7D4206AB0F5803F05D13E
:100F10006868A16820F4003008436860D4E90801DB
:100F20000843696821F4741108436860C6F860904A
:100F3000FFF71CFD044606E025E000BFFFF716FDA5
:100F4000001B022809D828688001F7D51BE000BFE4
:100F5000FFF70CFD001B022802D90320BDE8F88F23
:100F600028688001F4D40EE00128F7D06868226A6E
:100F700000F48031914204D1616A00F4701088421B
:100F800001D00120EAE70020E8E70000001002405D
:100F900000004242800442420C00002000700040E9
:100FA00010B5401EB0F1807F01D3012010BD4FF07D
:100FB000E02460610F21601701F063FA0020A06156
:100FC00007202061002010BD7047704710B590F8D1
:100FD0003C20012A22D0012280F83C20CA688C687B
:100FE00022F4407222434C6822F4806222430C684F
:100FF00022F4006222430C6922F4805222434C699D
:1010000022F400522243C969002322F480420A4399
:1010100001684A6480F83C30002010BD022010BDF9
:1010200070B590F83C20012A2CD0012480F83C4077
:10103000022280F83D2003685A689D6822F07006FD
:101040000A6832435A60104B02689A420ED00F4B26
:101050009A420BD0B2F1804F08D00D4B9A4205D086
:101060000C4B9A4202D00C4B9A4204D1496825F0AD
:1010700080031943916080F83D40002180F83C10C6
:10108000084670BD022070BD002C014000340140B4
:101090000004004000080040000C004010B50400AF
:1010A00003D094F83D0010B107E0012010BD0020EE
:1010B00084F83C00204600F01FF8022084F83D0030
:1010C000211D206800F0FCFE012084F8460084F811
:1010D0003E0084F83F0084F8400084F8410084F822
:1010E000420084F8430084F8440084F8450084F802
:1010F0003D00002010BD000000B585B0002100912A
:10110000019102910391194A01681948914209D14C
:10111000816941F400618161806900F4006004909C
:1011200005B000BD134A9142FAD1C16941F00801EE
:10113000C161C16901F008010491816941F00401B4
:1011400081618069694600F00400049001200090EC
:10115000022002900848FFF707FB002202213220FC
:10116000FFF770FC3220FFF75FFCD9E7002C01404D
:1011700000100240000C00400008014070B51E4CF9
:101180002078010612D41D4D410610D540F0800094
:1011900020700021284600F043FB60802868016A27
:1011A00021F00A0101622868016A016270BD002114
:1011B0006180402020702868026A41F211131A42AF
:1011C00007D1026A9B101A4203D1026822F0010281
:1011D0000260286841622868016A21F00A01016200
:1011E0002868016A41F0020101622868016841F043
:1011F0000101016070BD00000000002064000020BB
:101200002DE9F041054690F83C000C46012836D007
:10121000012085F83C008AB3042A42D02868082AB5
:1012200051D0D4E90023E168066A26F480560662AC
:10123000C669076A26F4407646EA03234FF6FF762E
:1012400006EA013123F4704319434FF4005627F4A2
:10125000005306EA02321A43C16102622868C1697A
:1012600021F44061C1612868C169A26841EA022194
:10127000C161002085F83C00BDE8F08101E002205A
:10128000FAE7D4E90012E368286800F08DFF2868C7
:10129000816921F00C01816128688169A26811438C
:1012A0000FE0D4E90012E368286800F0C5FF286861
:1012B000816921F44061816128688169A26841EAFD
:1012C00002218161D5E7D4E90027267B016A21F458
:1012D00080710162C169036A21F00301394321F081
:1012E000F00731074FF4007647EA116123F40073E9
:1012F00006EA02221A43C16102622868C16921F02C
:101300000C01C1612868C169A2681143B0E710B53A
:10131000040003D094F83D0010B107E0012010BD97
:10132000002084F83C00204600F01EF8022084F8DB
:101330003D00211D206800F0C3FD012084F8460017
:1013400084F83E0084F83F0084F8400084F84100AF
:1013500084F8420084F8430084F8440084F845008F
:1013600084F83D00002010BD7047000010B5044611
:1013700051B104290DD0082910D094F8410094F8F7
:101380004520012811D10EE094F83E0094F8422047
:10139000F7E794F83F0094F84320F2E794F8400010
:1013A00094F84420EDE7012A01D0012010BD02206D
:1013B00051B1042911D0082918D084F8410084F8CB
:1013C00045000C291BD13CE084F83E0084F8420023
:1013D0002068C26842F0020210E084F83F0084F8FE
:1013E00043002068C26842F0040207E084F840002D
:1013F00084F844002068C26842F00802C2600122FA
:10140000206800F0A3FD1149206888420ED01049E1
:1014100088420BD0B0F1804F08D00E49884205D0E9
:101420000D49884202D00D49884204D1816801F0FB
:101430000701062903D0016841F001010160002085
:1014400010BD2068C26842F01002D7E7002C0140AE
:10145000003401400004004000080040000C00403F
:1014600070B50446006801694FF00005C94389075B
:1014700015D4C168C943890711D4E91E016101204F
:101480002077206880698007204602D0FFF776FE2B
:1014900004E000F0C1F8204600F050F925772068FC
:1014A0000169C943490717D4C168C943490713D41F
:1014B0006FF004010161022020772068806910F438
:1014C000407F204602D0FFF759FE04E000F0A4F868
:1014D000204600F033F9257720680169C9430907E0
:1014E00016D4C168C943090712D46FF0080101611D
:1014F000042020772068C0698007204602D0FFF7CB
:101500003DFE04E000F088F8204600F017F925774A
:1015100020680169C943C90617D4C168C943C9060F
:1015200013D46FF010010161082020772068C06992
:1015300010F4407F204602D0FFF720FE04E000F0C8
:101540006BF8204600F0FAF8257720680169C94356
:10155000C90708D1C168C943C90704D1891E0161FF
:10156000204600F047F920680169C943090609D4FB
:10157000C168C943090605D46FF0800101612046A6
:10158000FFF722FD20680169C943490609D4C168F3
:10159000C943490605D46FF040010161204600F0BF
:1015A0007FF920680169C94389060BD4C168C94322
:1015B000890607D46FF0200101612046BDE8704024
:1015C000FFF703BD70BD000000B585B0002100919C
:1015D00001910291039100680C49884213D10C4893
:1015E000816941F0040181618069694600F004006D
:1015F00004904FF48070009002200190032003902B
:101600000448FFF7B1F805B000BD0000002C014010
:101610000010024000080140704770B5044690F881
:101620003C000D4601280AD0012084F83C0042B15C
:10163000042A18D0082A2AD00C2A4DD139E00220D9
:1016400070BD206800F09AFC2068816941F00801B3
:1016500081612068816921F00401816120688169CC
:101660002A69114311E0206800F0B8FC2068816904
:1016700041F4006181612068816921F480618161A8
:10168000206881692A6941EA0221816124E0206899
:1016900000F0DAFC2068C16941F00801C1612068EE
:1016A000C16921F00401C1612068C1692A6911433F
:1016B00011E0206800F0FCFC2068C16941F4006181
:1016C000C1612068C16921F48061C1612068C1697C
:1016D0002A6941EA0221C161002084F83C0070BD02
:1016E00010B5040003D094F83D0010B107E00120CC
:1016F00010BD002084F83C00204600F01EF80220B7
:1017000084F83D00211D206800F0DAFB012084F8F8
:10171000460084F83E0084F83F0084F8400084F8D6
:10172000410084F8420084F8430084F8440084F8BF
:10173000450084F83D00002010BD70477047000050
:1017400010B50446022249B104290ED0082913D04D
:1017500094F84100012816D0012010BD94F83E00F5
:101760000128F9D184F83E200FE094F83F000128C9
:10177000F2D184F83F2008E094F840000128EBD132
:1017800084F8402001E084F841200122206800F024
:10179000DDFB13492068134A884201D0904203D1EF
:1017A000436C43F400434364206888420DD0904268
:1017B0000BD0B0F1804F08D00B49884205D00B49BF
:1017C000884202D00A49884204D1816801F00701A9
:1017D000062903D0016841F001010160002010BD1D
:1017E000002C01400034014000040040000800408B
:1017F000000C004009490878020606D4420604D5C8
:10180000C243920602D0401C0870704740F080002E
:1018100008704FF6FF7048807047000000000020FD
:101820000246002041B1042909D008290AD00C2918
:1018300001D11068006C70471068406B70471068E9
:10184000806B70471068C06B704770B5044690F8A5
:101850003C00012812D0012584F83C50022084F875
:101860003D00204600F04CFC01004FF0000007D086
:1018700084F83D5084F83C00012070BD022070BD0A
:101880002168CA6822F04002CA602168CA6822F44E
:101890008042CA6084F83D5084F83C00002070BD4E
:1018A00070477047704710F83D1F407808437047F5
:1018B000F8B5026804461068D168536910F00F0F3C
:1018C0004FF0000554D003F0010601F49077374340
:1018D0005FD0C20705D0CA0503D5226C42F00102D1
:1018E0002264420705D5DA0703D0226C42F00202D7
:1018F0002264820705D5DA0703D0226C42F0040285
:101900002264020707D501F02002324303D0226C83
:1019100042F008022264226C002A35D0800604D5E9
:10192000880602D5204600F0C2FC20684069216C80
:10193000C0F3801001F008010143204625D000F0DB
:101940009EFC2068416949061BD5416921F0400190
:101950004161A06BA8B158494163A06BFEF75AFEE4
:10196000002811D0A06B416B01B0BDE8F0400847E2
:1019700083060ED58B060CD52046BDE8F84000F056
:1019800096BC2046FFF78EFFF8BDFFF78BFF25645E
:10199000F8BD266B2023012E52D1C60650D5CE06A7
:1019A0004ED5106850680090506940062AD5A16B4A
:1019B000086840680004000CEAD0A68D8642E7D98A
:1019C000E0858869202818D0D06820F48070D06025
:1019D0002068416921F0010141612068416921F0DD
:1019E0004001416184F83E3025632068C16821F0E0
:1019F0001001C160A06BFEF7E9FDA08DE18D401ADA
:101A000081B219E0A08DE18D401A81B2E08D0028ED
:101A1000BED00029BCD0D06820F49070D06020687F
:101A2000426922F00102426184F83E302563206859
:101A3000C26822F01002C2602046FFF732FFF8BDF4
:101A400005062BD50D0629D594F83D002128F6D1A1
:101A5000A068B0F5805F01D12069B0B1206A411C57
:101A60002162216800784860E08C401E0004000C70
:101A7000E084E4D12068C16821F08001C160206861
:101A8000C16841F04001C160F8BD206A0088C0F320
:101A900008005060206A801C2062E5E74006F3D50C
:101AA0004806F1D5D168204621F04001D16084F884
:101AB0003D3000F0AFF8F8BD6F22000870B50400AB
:101AC00004D094F83D00002510B106E0012070BD5F
:101AD00084F83C50204600F023F8242084F83D0090
:101AE0002068C16821F40051C160204600F03AFC32
:101AF0002068016921F4904101612068416921F069
:101B00002A0141612068C16841F40051C160256427
:101B1000202084F83D0084F83E00002070BD0000C5
:101B200030B585B0002400940194029403940068B9
:101B30001449884224D11448816941F4804181616B
:101B4000816901F480410491816941F0040181615E
:101B500080690E4D00F0040004904FF40070009076
:101B6000022001900320039069462846FEF7FCFD01
:101B70002815CDE90004694628460294FEF7F4FDD5
:101B800005B030BD0038014000100240000801409F
:101B900090F83E30202B0ED159B152B190F83C3024
:101BA000012B08D0012380F83C300023036300F0B0
:101BB00035BC0120704702207047000030B5006836
:101BC000114988420CD1114841880A0408D40246C0
:101BD0004C0412784FF0000306D50A2A01D0438046
:101BE00030BD41F4004103E00A2A03D041F48041B2
:101BF000418030BDC1F30D04054D491C89B22A5501
:101C00004180C729EBD830BD0038014004000020D6
:101C1000F00000207047FEE770B586B00025204830
:101C20000095019502950395816941F0100181614C
:101C3000816901F010010491816941F02001816105
:101C4000816901F020010491816941F00401816101
:101C50008069144E00F004000490012204213046F3
:101C6000FEF77EFE2020CDE900050124694602949E
:101C70000D48FEF779FDE003CDE9000569460294C1
:101C80000A48FEF771FD0420CDE900040220CDE9E9
:101C9000024069463046FEF767FD06B070BD0000A1
:101CA00000100240001401400010014000080140F3
:101CB00010B596B014210FA8FEF75AFB0024149417
:101CC0001C2108A81594FEF753FB20216846FEF757
:101CD0004FFB2948274901604721C0E9011440F220
:101CE000F311C0E903148021C0E90541FFF7D6F9DB
:101CF00008B1FEF769FC2048FFF7F2FC08B1FEF7D7
:101D000063FC0F940FA91C481094FFF79EFD08B1C7
:101D1000FEF75AFC149414A917481594FFF780F99C
:101D200008B1FEF751FC60200890F92009900220CC
:101D3000CDE90A040C940D94002208A90E480E94D3
:101D4000FFF76BFC08B1FEF73FFC00944FF4005026
:101D5000CDE904400294019403946946064807942F
:101D6000FFF734F908B1FEF72FFC0348FFF72CFC0E
:101D700016B010BD002C01401C00002010B58CB026
:101D8000142104A8FEF7F4FA002420480A940994C8
:101D90000094019402941C49039401604721C0E916
:101DA00001144FF6FF71C0E9031480218161FFF730
:101DB00075F908B1FEF708FC1448FFF7A8FA08B156
:101DC000FEF702FC049404A910480594FFF73DFDBA
:101DD00008B1FEF7F9FB099409A90C480A94FFF72A
:101DE0001FF908B1FEF7F0FB0120CDE90040029495
:101DF0000022694605480394FFF702FA002801D043
:101E0000FEF7E2FB0CB010BD000C004064000020A7
:101E10000C4810B50A4901604FF4E13141600021DE
:101E200081600C22C160C0E904128161C161FFF7C9
:101E300045FE002803D0BDE81040FEF7C5BB10BD2D
:101E400000380140AC000020FEE7FEE77047704715
:101E5000FEF792BD30B58FB028216846FEF788FAAC
:101E600014210AA8FEF784FA01210804CDE9001024
:101E70000024029402250491CDE907504FF4E010AC
:101E800009906846FEF7FCFE08B172B6FEE70F2027
:101E9000CDE90A054FF48060CDE90C4002210AA883
:101EA0000E94FEF701FE002801D072B6FEE70FB0D7
:101EB00030BD70470148FFF7D3BA0000640000202E
:101EC000F0B502681C4B1D4D1D4E1E4F1E4C4FF0B1
:101ED000804C984209D0A04207D0604505D0A84266
:101EE00003D0B04201D0B84204D122F0700E4A684B
:101EF00042EA0E02984209D0A04207D0604505D0C0
:101F0000A84203D0B04201D0B84203D122F44075B8
:101F1000CA682A434D6922F080022A4302608A6817
:101F2000C2620A688262984201D0A04201D1096966
:101F3000016301214161F0BD002C0140000400401B
:101F400000080040000C00400034014010B501F0D2
:101F50001F030121046A99408C430462016A9A407C
:101F60001143016210BD10B5846842EA032224F4D3
:101F70007F440A432243826010BD0000F0B5026A2C
:101F800022F001020262036A42688469124E24F060
:101F900073050C682C4323F002058B682B430D4D11
:101FA000A84201D0B04205D123F00807CB683B43DB
:101FB00023F00403A84201D0B04205D14D6922F4B8
:101FC000407215438A692A434260846149684163CB
:101FD0000362F0BD002C014000340140F0B5026AFC
:101FE00022F010020262026A436884690D6824F4D8
:101FF000E64444EA05248D6822F0200242EA0512F4
:102000000F4D104EA84201D0B04206D1CF6822F049
:10201000800242EA071222F04002A84201D0B042F8
:1020200007D14D6923F4406343EA85038D6943EA90
:10203000850343608461496881630262F0BD0000EA
:10204000002C014000340140F0B5026A22F4807295
:102050000262026A4368C46922F4007224F07305C4
:102060000C68124E2C438D6842EA05220E4DA842A0
:1020700001D0B04206D1CF6822F4006242EA0722C2
:1020800022F48062A84201D0B04207D14D6923F406
:10209000405343EA05138D6943EA05134360C46165
:1020A0004968C1630262F0BD002C01400034014068
:1020B00030B5026A22F480520262046A4268C3693F
:1020C0000D6823F4E64343EA05238D6824F40054A5
:1020D00044EA0534084DA84202D0084DA84204D174
:1020E0004D6922F4804242EA85124260C361496828
:1020F0000164046230BD0000002C01400034014046
:1021000010B503689A6822F070044A68224322F0EE
:1021100007040A6822439A604A6812F00F0F30D110
:102120001211082A2DD2DFE802F02C2C2C2C0B21C6
:1021300027040B69D1E902210068FFF714FF20E0B2
:102140000A68052A10D00268136A146A24F0010490
:10215000146202689469096924F0F00444EA0111E8
:102160009161006803620CE0012010BD0A69896872
:10217000006800F008F804E00A698968006800F067
:1021800049F8002010BD10B5036A046A24F0010468
:102190000462846924F0F00444EA021423F00A0281
:1021A0000A438461026210BD70B5046A24F0010420
:1021B00004628469056A124EB0420ED0114EB042DC
:1021C0000BD0B0F1804F08D00F4EB04205D00F4E6B
:1021D000B04202D00E4EB04203D124F003041443A7
:1021E00001E044F001041A0724F0F00444EA12620A
:1021F00025F00A0301F00A0119438261016270BDF2
:10220000002C014000340140000400400008004060
:10221000000C004010B5036A23F0100303628369C9
:10222000046A23F4704343EA023224F0A00343EA31
:1022300001118261016210BD30B5046A24F01004FE
:1022400004628469056A24F4407444EA022222F498
:1022500070444FF6FF7202EA03322243A02425F0B5
:10226000A00304EA011119438261016230BD10B577
:10227000406A0021C185C184FFF714FB10BD0168CD
:10228000CA6822F49072CA6001684A6922F00102A9
:102290004A61016B012904D10168CA6822F0100269
:1022A000CA60202180F83E1000210163704708B504
:1022B00090F83E10222901D0022008BD82684FF418
:1022C00080539A4201D1016921B1816A9A421BD09F
:1022D0004AB10AE00268816A5268C2F308020A80C1
:1022E000816A891C08E0026972B10268526802F0D2
:1022F0007F020A70816A491C8162C18D491E0904EE
:10230000090CC18503D019E002685268F1E7016841
:10231000CA6822F02002CA600168CA6822F480728A
:10232000CA6001684A6922F001024A61202180F8EE
:102330003E10016B012903D0FFF740FC002008BDCF
:10234000002101630168CA6822F01002CA600168B6
:102350000A68D20602D50A6849680091818DFFF7A4
:10236000A0FAEBE770B5044600680169E26821F461
:102370004051114301612169A06808436169084324
:102380002168CA6841F20C639A430243CA6020681C
:102390004169A26921F44071114341611E492068DD
:1023A000884202D1FEF726FC01E0FEF713FC00EBA9
:1023B000C00101EB0012606864218000B2FBF0F301
:1023C000B3FBF1F36FF018067343B2FBF0F5B2FB09
:1023D000F0F605EB8305322303EB0515B5FBF1F5AC
:1023E000B6FBF1F605F0F00505EB0615B2FBF0F6CD
:1023F000B2FBF0F0B0FBF1F06FF01802504306EBC7
:10240000800003EB0010B0FBF1F0216800F00F003A
:102410002844886070BD00000038014081628285D8
:10242000C28500210164222280F83E2080F83C1001
:102430000168CA6842F48072CA6001684A6942F061
:1024400001024A610068C16841F02001C1600020BA
:102450007047000010B50848FFF72AFA0648FFF752
:1024600022FA2028FAD1012204490348FFF790FB01
:102470000028F8D110BD0000AC00002004000020AE
:10248000FEE70907090E002804DB00F1E02080F8D0
:102490000014704700F00F0000F1E02080F8141DD8
:1024A0007047704704490A685206FCD5024AC1B217
:1024B000121D11607047000000380140FEF764FAF9
:1024C000FFF7C8FCFFF7A8FBFFF7F2FBFFF756FC8E
:1024D000FFF79EFC00211B48FFF732F900211A4844
:1024E000FEF744FF18480068C16841F00101C1606F
:1024F000144E164C4FF4967700250A20FEF722F969
:1025000000211048FFF78CF93168401C4863002116
:102510000C48FFF785F9B84201D13068456320784F
:102520000106EAD500F03F00C10F0B04084943EA59
:1025300010430004096842186B4106A0FDF772FEC3
:102540002570DAE71C000020640000200000002055
:1025500002000020484947483A256C6C6420757396
:102560000D0A00000000000000000000010203044A
:102570000607080900000000010203049C2500086A
:10258000000000201C0000006C010008B8250008B5
:102590001C000020FC07000088010008000000006B
:1025A00000000000000000000024F4000100000012
:0825B000100000000000000013
:0400000508000131BD
:00000001FF
