:020000040800F2
:1000000088070020CD01000893120008891100081C
:10001000911200086903000875150008000000002F
:10002000000000000000000000000000971200081F
:100030006B030008000000009512000899120008E8
:10004000E7010008E7010008E7010008E7010008F0
:10005000E7010008E7010008E7010008E7010008E0
:10006000E7010008E7010008E7010008E7010008D0
:10007000E7010008E7010008E7010008E7010008C0
:10008000E7010008E7010008E7010008E7010008B0
:10009000E7010008E7010008E7010008E7010008A0
:1000A000E7010008E7010008E7010008E701000890
:1000B000E7010008E7010008E7010008E701000880
:1000C000E7010008E7010008E7010008E701000870
:1000D000E701000849150008E7010008E7010008EA
:1000E000E7010008E7010008E7010008E701000850
:1000F000E7010008E7010008E7010008E701000840
:10010000E7010008E7010008E7010008E70100082F
:10011000E7010008E7010008E7010008E70100081F
:10012000E7010008E7010008E7010008E70100080F
:1001300000F002F800F03AF80AA090E8000C8244BF
:100140008344AAF10107DA4501D100F02FF8AFF29C
:10015000090EBAE80F0013F0010F18BFFB1A43F0A5
:10016000010318471015000030150000103A24BF95
:1001700078C878C1FAD8520724BF30C830C144BF0C
:1001800004680C607047000000230024002500264E
:10019000103A28BF78C1FBD8520728BF30C148BFEA
:1001A0000B6070471FB51FBD10B510BD00F096F86D
:1001B0001146FFF7F7FF01F0FBF900F0C8F803B4B0
:1001C000FFF7F2FF03BC01F0E6F9000009488047A1
:1001D00009480047FEE7FEE7FEE7FEE7FEE7FEE729
:1001E000FEE7FEE7FEE7FEE704480549054A064B41
:1001F00070470000FB120008310100088801002050
:100200008807002088030020880300207047000032
:100210000FB4044910B503AA029800F031F810BCDD
:100220005DF814FB040000204FF0000200B51346F7
:1002300094469646203922BFA0E80C50A0E80C5006
:10024000B1F12001BFF4F7AF090728BFA0E80C50B7
:1002500048BF0CC05DF804EB890028BF40F8042BB0
:1002600008BF704748BF20F8022B11F0804F18BF1D
:1002700000F8012B704770477047704770470000C7
:10028000074B70B50D467B4400F011F80446284634
:1002900000F020F810B14FF0FF3070BD204670BD67
:1002A0000F13000001694A1C02610878704700B50D
:1002B0008FB0CDE901310021059105497944CDE99F
:1002C00003101146684600F02EF80FB000BD000084
:1002D000E5FFFFFF007B00F080007047754600F0EF
:1002E0003FF8AE4605006946534620F007008546B4
:1002F00018B020B5FFF778FFBDE820404FF00006AA
:100300004FF000074FF000084FF0000B21F00701FD
:10031000AC46ACE8C009ACE8C009ACE8C009ACE840
:10032000C0098D4670472DE9F04106460024D6E904
:100330000170F5688046304603E04146B847641CCA
:100340003046A8470028F8D12046BDE8F08110B516
:100350000446AFF300802046BDE81040FFF72FBFF2
:100360000048704724010020FEE7704772B6FEE7A0
:1003700010B590F821100022022905D004218163D4
:1003800080F82020012010BD01680B6823F00E03C7
:100390000B6001680B6823F001030B6090F840309C
:1003A000C46B012101FA03F3636080F8211080F827
:1003B0002020104610BD00002DE9F05F90F82110BC
:1003C0000024022903D004218163012485E001680F
:1003D0000A6822F00E020A6001680A6822F001022F
:1003E0000A603F4E3E4FB215DFF8F4C0DFF8F090E0
:1003F000DFF8ECA0DFF8E8B0DFF8E4E00168783F70
:1004000013011502ACF1640CA9F15009AAF13C0AE0
:10041000ABF1280BAEF1140E4FF48018B14227D97E
:10042000B9420ED0614512D049451DD0514518D072
:10043000594518D0714501D1424615E0294EB142C7
:1004400001D1012210E0274E1436B14201D1102211
:100450000AE0244E2836B14206D0224A3C3291426C
:1004600001D11A4600E02A461E49091F0A602BE006
:10047000B94213D0614517D0494522D051451DD00E
:1004800059451DD0714501D142461AE0B14202D111
:100490004FF0807215E0134EB14201D1012210E0FD
:1004A000104E1436B14201D110220AE00D4E28360A
:1004B000B14206D00B4A3C32914201D11A4600E0CB
:1004C0002A46074980394A60012180F8211000211D
:1004D00080F82010416B01B188472046BDE8F09FAD
:1004E000800002400804024070B5044600F018F98C
:1004F0000546601C02D004480078044400F010F95E
:10050000401BA042FAD370BD0C0000202DE9F84F2B
:10051000DFF8C891002409F1040A0AF1040B23460C
:100520000F270BF1040ED1E00125A54006EA0502D4
:10053000AA4276D1DFF8A8C14E68A6EB0C08664542
:100540002BD00DDC032E34D005DC36B3012E19D0B0
:10055000022E2FD11BE0112E16D0122E2AD119E017
:10056000B8F5881F19D006DCB8F5803F15D0B8F56E
:10057000801F1FD111E0B8F5001F0ED0B8F5041F81
:1005800018D10AE0CB6815E0CB681B1D12E0CB68E0
:1005900008330FE0CB680C330CE08B682BB1012BD8
:1005A0004FF0080303D0456104E0042302E0056135
:1005B00000E00023FF2A01D8064601E000F104060E
:1005C0004FEA840501D9A5F12005D6F8008007FA85
:1005D00005FC28EA0C0803FA05F548EA0508C6F800
:1005E00000804D68ED0070D53E4DAE6946F00106C5
:1005F000AE61AD6924F0030605F0010500953A4DA2
:1006000006EB050CDCF80850A607360F07FA06F8CB
:1006100025EA0805DFF8D480404503D14FF00008F3
:1006200025E052E0DFF8C880404502D14FF00108D4
:100630001DE0DFF8C080404502D14FF0020816E00F
:10064000DFF8B480404502D14FF003080FE0DFF837
:10065000AC80404502D14FF0040808E0DFF8A080EC
:10066000404502D14FF0050801E04FF0060808FAB6
:1006700006F848EA0508CCF808804D68D9F800600B
:10068000ED034D4601D5164300E096432E604D68BC
:10069000DAF80060AD03554601D5164300E09643F5
:1006A0002E604D68DBF80060ED025D4601D5164313
:1006B00000E096432E604D68DEF80060AD0275469E
:1006C00001D5164300E096432E60641C0A68164666
:1006D000E2407FF429AFBDE8F88F0000000401403C
:1006E000000011100010024000000140000801400D
:1006F000000C0140001001400014014000180140AE
:10070000001C0140C26821EA02030A4043EA024198
:10071000016170470AB1016170470904FBE70000FD
:1007200001488068704700000C0000200248816882
:1007300002781144816070470C000020074810B512
:10074000016841F010010160032000F067F80F20FC
:1007500000F006F800F024F8002010BD0020024050
:1007600070B50D4D04464FF47A712878B1FBF0F066
:100770000A490968B1FBF0F000F0DEFA48B9102C24
:1007800007D200222146501E00F028F800206C609D
:1007900070BD012070BD00000C000020080000208A
:1007A0000C4808B5816941F001018161816901F05E
:1007B00001010091C16941F08051C161C06900F03F
:1007C000805000900448416821F0E06141F00071E0
:1007D000416008BD0010024000000140F0B40E4B23
:1007E0001B680C46C3F30223C3F10705042D00D98F
:1007F0000425191D072901D2002300E0DB1E012674
:1008000006FA05F1491E214099409E40761E164089
:100810003143F0BC00F0AFBE0CED00E0064900F043
:10082000070208684FF6FF03184040EA0220034A17
:1008300010430860704700000CED00E00000FA056E
:100840002DE9F0470F46050061D0434E306800F0B7
:100850000700B84209D2306820F007003843306002
:10086000306800F00700B84251D128683B4C81073E
:1008700012D5400703D5606840F4E06060602878D6
:10088000000703D5606840F4605060606068A96844
:1008900020F0F000084360602878C00728D068681E
:1008A000012810D02168022810D0890700292EDAEB
:1008B000616821F0030101436160FFF731FF804669
:1008C00041F288390DE021688903EFE78901EDE7FE
:1008D000FFF726FFA0EB0801494502D90320BDE838
:1008E000F0876068696800F00C00B0EB810FEFD111
:1008F000306800F00700B8420BD9306820F00700DC
:1009000038433060306800F00700B84201D0012061
:10091000E5E72878400705D56068E96820F4E060DD
:10092000084360602878000706D56068296920F4CC
:10093000605040EAC100606000F038F86168084A21
:10094000C1F30311515CC8400649086006480068BD
:10095000FFF706FF0020C2E700200240001002401F
:100960005C1600080800002010000020044805491B
:1009700000684968044AC1F30221515CC8407047CD
:1009800008000020001002406C16000804480549C9
:1009900000684968044AC1F3C221515CC8407047ED
:1009A00008000020001002406C16000812A185B05B
:1009B0000FC98DE80F0014A0144A00680490516814
:1009C000134801F00C03042B10D0082B0ED1C1F3F7
:1009D0008343C9031DF803000AD5516804AAC1F373
:1009E0004041515C0A4A5043B0FBF1F005B07047FA
:1009F00008494843FAE7000002030405060708090E
:100A00000A0B0C0D0E0F1010010200000010024026
:100A100000127A0000093D002DE9F84F040070D063
:100A20002078C04DC00749D06868C0F38100012814
:100A300007D06868C0F38100022809D16868C00344
:100A400006D52868800339D560680028E7D035E0EE
:100A50006068B0F5803F0BD010B1B0F5A02F11D079
:100A6000286820F480302860286820F4802002E084
:100A7000286840F480302860606890B1FFF750FE2D
:100A800006460AE0286840F480202860F0E700BFAE
:100A9000FFF746FE801B642873D828688003F7D5CB
:100AA0000CE0FFF73DFE064605E000BFFFF738FE0D
:100AB000801B6428F0D828688003F7D420789A4EE9
:100AC00080074FF001094FF0000839D5686810F031
:100AD0000C0F07D06868C0F38100022809D168684C
:100AE000C00306D42868800714D52069012808D1DE
:100AF00010E02069B0B1C6F80090FFF711FE07467C
:100B000005E00AE1FFF70CFEC01B0228C4D82868E4
:100B10008007F7D52868616920F0F80040EAC10035
:100B200028600DE0C6F80080FFF7FAFD074604E0F4
:100B3000FFF7F6FDC01B022823D828688007F7D4EA
:100B4000207800072CD57948A169D9B1C0F8009068
:100B5000FFF7E6FD074604E0FFF7E2FDC01B0228B1
:100B60000FD8686A8007F7D571484FF4FA510068CA
:100B7000B0FBF1F0009000BF0098411E0091FAD246
:100B80000EE080E0C0F80080FFF7CAFD074604E0F1
:100B9000FFF7C6FDC01B022875D8686A8007F7D426
:100BA0002078400760D5E8690027C00008D4E869CC
:100BB00040F08050E861E869012700F08050009023
:100BC0005C480168C90513D40168834641F480710B
:100BD0000160FFF7A5FD824606E000BFFFF7A0FD1C
:100BE000A0EB0A0064284ED8DBF80000C005F5D55C
:100BF000E06801280AD008B1052813D0286A20F03F
:100C000001002862286A20F0040002E0286A40F00F
:100C100001002862E06841F2883B98B1FFF780FD4F
:100C200082460BE0286A40F004002862EEE700BF2D
:100C3000FFF776FDA0EB0A0159455AD8286A8007CC
:100C4000F6D50CE0FFF76CFD824605E0FFF768FD86
:100C5000A0EB0A0159454CD8286A8007F6D41FB189
:100C6000E86920F08050E861E06988B36968C1F301
:100C70008101022944D00228C6F8608004D0FFF721
:100C80004FFD044638E034E0FFF74AFD074604E034
:100C9000FFF746FDC01B02282BD828688001F7D437
:100CA000206AB0F5803F05D16868A16820F4003063
:100CB00008436860D4E908010843696821F47411A5
:100CC00008436860C6F86090FFF72AFD044606E016
:100CD00025E000BFFFF724FD001B022809D8286883
:100CE0008001F7D51BE000BFFFF71AFD001B0228AB
:100CF00002D90320BDE8F88F28688001F4D40EE003
:100D00000128F7D06868226A00F48031914204D14A
:100D1000616A00F47010884201D00120EAE70020E7
:100D2000E8E7000000100240000042428004424216
:100D3000080000200070004010B5401EB0F1807F18
:100D400001D3012010BD4FF0E02460610F21601736
:100D500000F011FC0020A06107202061002010BDE0
:100D60007047704710F83D1F4078084370470000F7
:100D7000F8B5026804461068D168536910F00F0F87
:100D80004FF0000554D003F0010601F4907737438B
:100D90005FD0C20705D0CA0503D5226C42F001021C
:100DA0002264420705D5DA0703D0226C42F0020222
:100DB0002264820705D5DA0703D0226C42F00402D0
:100DC0002264020707D501F02002324303D0226CCF
:100DD00042F008022264226C002A35D0800604D535
:100DE000880602D5204600F0A9FA20684069216CE7
:100DF000C0F3801001F008010143204625D000F027
:100E000085FA2068416949061BD5416921F04001F6
:100E10004161A06BA8B158494163A06BFFF7CCFAC0
:100E2000002811D0A06B416B01B0BDE8F04008472D
:100E300083060ED58B060CD52046BDE8F84000F0A1
:100E40007DBA2046FFF78DFFF8BDFFF78AFF2564C6
:100E5000F8BD266B2023012E52D1C60650D5CE06F2
:100E60004ED5106850680090506940062AD5A16B95
:100E7000086840680004000CEAD0A68D8642E7D9D5
:100E8000E0858869202818D0D06820F48070D06070
:100E90002068416921F0010141612068416921F028
:100EA0004001416184F83E3025632068C16821F02B
:100EB0001001C160A06BFFF75BFAA08DE18D401AB5
:100EC00081B219E0A08DE18D401A81B2E08D002839
:100ED000BED00029BCD0D06820F49070D0602068CB
:100EE000426922F00102426184F83E3025632068A5
:100EF000C26822F01002C2602046FFF731FFF8BD41
:100F000005062BD50D0629D594F83D002128F6D1EC
:100F1000A068B0F5805F01D12069B0B1206A411CA2
:100F20002162216800784860E08C401E0004000CBB
:100F3000E084E4D12068C16821F08001C1602068AC
:100F4000C16841F04001C160F8BD206A0088C0F36B
:100F500008005060206A801C2062E5E74006F3D557
:100F60004806F1D5D168204621F04001D16084F8CF
:100F70003D3000F008F9F8BDFD12000870B504001E
:100F800004D094F83D00002510B106E0012070BDAA
:100F900084F83C50204600F023F8242084F83D00DB
:100FA0002068C16821F40051C160204600F022FA97
:100FB0002068016921F4904101612068416921F0B4
:100FC0002A0141612068C16841F40051C160256473
:100FD000202084F83D0084F83E00002070BD000011
:100FE00030B585B000240094019402940394006805
:100FF0001449884224D11448816941F480418161B7
:10100000816901F480410491816941F004018161A9
:1010100080690E4D00F0040004904FF400700090C1
:10102000022001900320039069462846FFF76EFADC
:101030002815CDE90004694628460294FFF766FAB0
:1010400005B030BD003801400010024000080140EA
:1010500090F83E30202B0ED159B152B190F83C306F
:10106000012B08D0012380F83C300023036300F0FB
:101070001DBA0120704702207047000030B500689B
:10108000114988420CD1114841880A0408D402460B
:101090004C0412784FF0000306D50A2A01D0438091
:1010A00030BD41F4004103E00A2A03D041F48041FD
:1010B000418030BDC1F30D04054D491C89B22A554C
:1010C0004180C729EBD830BD003801400000002026
:1010D000180000202DE9F843044690F83D001F4613
:1010E00016460D4620284CD1C5B1BEB194F83C003F
:1010F000012846D0012084F83C004FF00008C4F8D5
:101100004080212084F83D00FFF70AFBA684814639
:10111000E684A068B0F5805F03D004E00120BDE85C
:10112000F883206928B12E465FF0000584F83C80E2
:101130000EE00026FAE78021204600F0D2F9A0B99F
:10114000AEB116F8010B21684860E08C401EE084C7
:10115000E08C4B464FF0000200970028EBD14FF097
:101160004001204600F0BDF930B10320D7E735F843
:10117000020BC0F30800E6E7202084F83D000020C1
:10118000CDE70220CBE77047FEE700002DE9F043F2
:1011900085B000252C48009501950295039581693D
:1011A00041F010018161816901F0100104918169B0
:1011B00041F020018161816901F020010491816980
:1011C00041F0040181618069DFF8808000F0040053
:1011D0004FF480770490002239464046FFF79AFA90
:1011E000DFF86C90002204214846FFF793FA0124AF
:1011F00002268DE8700069464046FFF787F92020F7
:10120000CDE90005694602941248FFF77FF9CDE960
:101210000074CDE9024669464046FFF777F9E003DE
:10122000CDE90005694602944046FFF76FF90420B6
:10123000CDE90004CDE9024669464846FFF766F964
:1012400005B0BDE8F0830000001002400008014036
:1012500000140140001001400C4810B50A4901601B
:101260004FF4E1314160002181600C22C160C0E98E
:1012700004128161C161FFF781FE002803D0BDE83F
:101280001040FFF773B810BD00380140E0000020A7
:10129000FEE7FEE770477047FFF748BA30B58FB0FA
:1012A00028216846FEF7C0FF14210AA8FEF7BCFFFC
:1012B00001210804CDE900100024029402250491C4
:1012C000CDE907504FF4E01009906846FFF7A4FB02
:1012D00008B172B6FEE70F20CDE90A054FF4806031
:1012E000CDE90C4002210AA80E94FFF7A9FA0028C4
:1012F00001D072B6FEE70FB030BD704710B5406A3E
:101300000021C185C184FFF72CFD10BD0168CA68AA
:1013100022F49072CA6001684A6922F001024A61AF
:10132000016B012904D10168CA6822F01002CA6069
:10133000202180F83E1000210163704708B590F825
:101340003E10222901D0022008BD82684FF480534C
:101350009A4201D1016921B1816A9A421BD04AB1F6
:101360000AE00268816A5268C2F308020A80816A50
:10137000891C08E0026972B10268526802F07F02BB
:101380000A70816A491C8162C18D491E0904090CD9
:10139000C18503D019E002685268F1E70168CA68A4
:1013A00022F02002CA600168CA6822F48072CA6012
:1013B00001684A6922F001024A61202180F83E104A
:1013C000016B012903D0FFF759FE002008BD002161
:1013D00001630168CA6822F01002CA6001680A68E5
:1013E000D20602D50A6849680091818DFFF7B8FCE2
:1013F000EBE7000070B5044600680169E26821F47B
:101400004051114301612169A068084361690843A3
:101410002168CA6841F20C639A430243CA6020689B
:101420004169A26921F44071114341611E4920685C
:10143000884202D1FFF7AAFA01E0FFF797FA00EB22
:10144000C00101EB0012606864218000B2FBF0F380
:10145000B3FBF1F36FF018067343B2FBF0F5B2FB88
:10146000F0F605EB8305322303EB0515B5FBF1F52B
:10147000B6FBF1F605F0F00505EB0615B2FBF0F64C
:10148000B2FBF0F0B0FBF1F06FF01802504306EB46
:10149000800003EB0010B0FBF1F0216800F00F00BA
:1014A0002844886070BD0000003801408162828558
:1014B000C28500210164222280F83E2080F83C1081
:1014C0000168CA6842F48072CA6001684A6942F0E1
:1014D00001024A610068C16841F02001C16000203A
:1014E00070472DE9F041984617460E460446069D82
:1014F0001DE0681C1BD02DB1FFF712F9A0EB08000E
:10150000A84214D92068C16821F4D071C160206854
:10151000416921F001014161202084F83D0084F8F7
:101520003E00002084F83C000320BDE8F0812068E4
:10153000006836EA000004D00020B842D9D000206C
:10154000F3E70120F9E7000010B50848FFF710FCA9
:101550000648FFF707FC2028FAD101220449034876
:10156000FFF776FD0028F8D110BD0000E000002054
:1015700000000020FEE70907090E002804DB00F147
:10158000E02080F80014704700F00F0000F1E02028
:1015900080F8141D7047704704490A685206FCD54C
:1015A000024AC1B2121D11607047000000380140AC
:1015B000FFF7C4F8FFF772FEFFF7E8FDFFF74CFEF8
:1015C00001221A491A48FFF743FD0024184E194D0D
:1015D0004FF47A7AA0464FF01E094FF4807B28889A
:1015E000010414D5C7B214A0FEF712FE53463A46C2
:1015F00016490F48FFF76EFD30680168C943490678
:10160000FBD413A0FEF704FEA5F80080E7E7641CF6
:10161000A4B2B4FBF9F109FB114018B959460E48C0
:10162000FFF770F80A20FEF75FFFD8E70000002000
:10163000E0000020020000200D0AC4FAB7A2CBCDC2
:10164000B5C4CFFBCFA2CEAA0D0A0000180000201F
:101650000D0A0D0A00000000000801400000000013
:101660000000000001020304060708090000000052
:101670000102030494160008000000201800000076
:101680006C010008AC16000818000020700700006C
:101690008801000800000000000000000024F400A1
:0C16A0000100000010000000000000002D
:0400000508000131BD
:00000001FF
