:020000040800F2
:10000000A80900202D0200080B2B0008871E0008FD
:10001000092B000849080008812F00080000000093
:100020000000000000000000000000000F2B00088E
:100030004B080008000000000D2B0008112B0008E1
:10004000470200084702000847020008470200086C
:10005000470200084702000847020008470200085C
:10006000470200084702000847020008470200084C
:10007000470200084702000847020008470200083C
:10008000470200084702000847020008470200082C
:10009000470200084702000847020008470200081C
:1000A000470200084702000847020008470200080C
:1000B0004702000847020008912B00084702000889
:1000C00047020008470200084702000847020008EC
:1000D00047020008192F00084702000847020008DD
:1000E00047020008470200084702000847020008CC
:1000F00047020008470200084702000847020008BC
:1001000047020008470200084702000847020008AB
:10011000470200084702000847020008470200089B
:10012000470200084702000847020008470200088B
:1001300000F002F800F06BF80AA090E8000C82448E
:100140008344AAF10107DA4501D100F060F8AFF26B
:10015000090EBAE80F0013F0010F18BFFB1A43F0A5
:100160000103184774610000946100000A444FF0D5
:10017000000C10F8013B13F0070408BF10F8014B06
:100180001D1108BF10F8015B641E05D010F8016B4B
:10019000641E01F8016BF9D113F0080F1EBF10F8AF
:1001A000014BAD1C0C1B09D16D1E58BF01F801CBD2
:1001B000FAD505E014F8016B01F8016B6D1EF9D555
:1001C0009142D6D37047000000230024002500266A
:1001D000103A28BF78C1FBD8520728BF30C148BFAA
:1001E0000B607047642900F09F80752900F09C80A7
:1001F000782900F0D580632900F05082732900F03F
:100200005582002070471FB51FBD10B510BD00F00E
:100210007FFA1146FFF7F7FF02F0DEFE00F09DFACD
:1002200003B4FFF7F2FF03BC02F0C2FE09488047A7
:1002300009480047FEE7FEE7FEE7FEE7FEE7FEE7C8
:10024000FEE7FEE7FEE7FEE704480549054A064BE0
:10025000704700008F2B000831010008A803002020
:10026000A8090020A8050020A8050020704700006C
:100270000FB4044910B503AA029800F01BFA10BC91
:100280005DF814FB0800002070B50446856900681D
:10029000C10601D5302600E02026C00707D070BD7A
:1002A000D4E9012130469047206A401C20626D1E2F
:1002B000F6D570BD70B5044685690078C00707D1D2
:1002C00070BDD4E9012120209047206A401C2062A3
:1002D0006D1EF6D570BD70B50C460546012A05D0D9
:1002E0002878800600D5EA69002302E0012305E0B2
:1002F0005B1C934202D2E05C0028F9D1A869E618A1
:10030000C01AA861286A184428622846FFF7BCFF73
:1003100004E0D5E9012114F8010B9047B442F8D369
:100320002846FFF7C7FF70BD2DE9F04106460024BF
:1003300010687529314616A510D0AFF3008000284B
:1003400002DA404213A507E031688A0701D512A5F9
:1003500002E0490704D511A5012401E0AFF30080B4
:1003600000210A2206F1240709E0B0FBF2FCB0FBF1
:10037000F2F302FB1C00303078541846491C002868
:10038000F3D123462A463046BDE8F04100F023B9B8
:10039000000000002D0000002B00000020000000E5
:1003A00070B504460D4621461068AFF300802188E1
:1003B000090502D50F4A7A4402E00E4A7A440E3209
:1003C000002104F1240305E000F00F060009965D0A
:1003D0005E54491C0028F7D120780023000704D57B
:1003E000702D02D009B1022311322046BDE87040C1
:1003F00000F0F1B8185B00002DE9F05F8946044673
:100400004FF0000ADFF874B1FB44C0F820A020468A
:10041000E1688847002874D0252806D0D4E9012156
:100420009047206A401C2062F1E700265F46204684
:10043000E16888472028054607DB312D05D2781969
:1004400010F8200C08B10643F1E7B00701D526F0FB
:100450000406C4F81CA00027C4F818A02A2D09D04F
:10046000284602F09EFD38B304EB8708303DC8F8FB
:10047000185019E059F8041B204604EB87029161DB
:10048000E1688847012F054618D1E069002820DA85
:1004900026F020061DE0D8F8180000EB800005EBE0
:1004A00040003038C8F818002046E1688847054603
:1004B00002F077FD0028EED1012F0AD02E2D08D1B1
:1004C0002046E16888477F1C0546022F46F020063B
:1004D000C4DBA069002803DA404246F00106A061AF
:1004E000F00701D026F010066C2D0BD0682D09D036
:1004F0004C2D39D06A2D35D0742D35D07A2D33D08E
:1005000016E038E0E1682F4620468847B8420546A5
:1005100009D16C2F26D04FF48060E1680643204655
:100520008847054604E06C2F1AD04FF480700643CC
:100530000DB3A5F14100192802D8203546F4006614
:100540004A462946204626604E46FFF74BFE80B1BC
:1005500001280BD0F61D26F0070000F1080956E728
:100560004020E4E78020D8E70020D6E706F1040920
:100570004DE7284652E7206ABDE8F09FEE5A00009A
:100580004FF0000200B5134694469646203922BF2C
:10059000A0E80C50A0E80C50B1F12001BFF4F7AF77
:1005A000090728BFA0E80C5048BF0CC05DF804EB59
:1005B000890028BF40F8042B08BF704748BF20F8C7
:1005C000022B11F0804F18BF00F8012B70477047C5
:1005D0007047704770472DE9F0470D46994692469F
:1005E000044600F124080168880604D5E06921F07A
:1005F0001001216000E00120A84201DD471B00E05E
:100600000027A1697A1902EB0900081AA061207875
:10061000C00602D42046FFF737FE002608E0D4E9E2
:1006200001211AF806009047206A401C761C2062BF
:100630004E45F4DB2078C0060AD52046FFF724FE9D
:1006400006E0D4E9012130209047206A401C206256
:10065000381EA7F10107F4DC07E0D4E9012118F8FE
:1006600005009047206A401C2062281EA5F1010564
:10067000F3DC2046FFF71EFE2078000602D502209C
:10068000BDE8F0870120FBE710B5436913B1AFF374
:10069000008001E0FFF71FFE012010BD127800F17D
:1006A00024010A7000224A700122EDE711684FF020
:1006B000FF32E9E7074B70B50D467B4400F011F8B7
:1006C0000446284600F020F810B14FF0FF3070BD0E
:1006D000204670BDF728000001694A1C02610878B5
:1006E000704700B58FB0CDE9013100210591054972
:1006F0007944CDE9031011466846FFF77DFE0FB03F
:1007000000BD0000E5FFFFFF007B00F080007047A8
:10071000754600F02BF8AE4605006946534620F0BA
:100720000700854618B020B5FFF78EFDBDE82040D4
:100730004FF000064FF000074FF000084FF0000B9D
:1007400021F00701AC46ACE8C009ACE8C009ACE850
:10075000C009ACE8C0098D46704710B50446AFF338
:1007600000802046BDE81040FFF75ABD00487047A2
:100770004403002070B5044600688168C943C90776
:1007800017D1816821F00101816000F003FD054669
:100790000AE000BF00F0FEFC401B022804D92068DC
:1007A0008068C043C00706D020688068C043C00787
:1007B000F0D0002070BDA06A40F01000A062E06A96
:1007C00040F00100E062012070BD0000F8B5002695
:1007D0000446009600688168C943C9072DD0816826
:1007E00041F001018160164816490068B0FBF1F044
:1007F00000E0401E00900028FBD100F0CBFC054635
:1008000016E000BF00F0C6FC401B022810D920688B
:100810008068C043C0070BD0A06A40F01000A062FF
:10082000E06A40F00100E06284F824600120F8BD35
:1008300020688068C043C007E4D10020F8BD0000F4
:10084000AC01002040420F00FEE7704772B6FEE7A1
:1008500010B5064800F06EFA0A21044800F0CCF901
:10086000024800F007F980B210BD000088020020A5
:100870002DE9F04100250E4607462C4608E0384693
:10088000FFF7E6FF0544052000F070FB641CE4B2AE
:10089000B442F4D3B5FBF6F080B2BDE8F0810000BD
:1008A000F8B500250446009590F82400012808D0EA
:1008B000012084F824002046FFF75CFF060002D0E8
:1008C00053E00220F8BDA06A20F4885040F00200F6
:1008D000A062022000F0FCFC26490968B1FBF0F0A0
:1008E000400000E0401E00900028FBD12046FFF7AA
:1008F0006DFF2068816841F00801816000F04AFCCA
:10090000074608E000F046FCC01B0A2803D920680F
:100910008068000715D4206880680007F2D420683A
:10092000816841F00401816000F034FC074612E068
:1009300000F030FCC01B0A280DD9206880684007F1
:1009400009D5A06A20F0020040F01000A06284F8EF
:1009500024500120F8BD206880684007E8D4A06AD0
:1009600020F0020040F00100A06284F824503046DC
:10097000F8BD0000AC010020F8B50024009490F808
:1009800024202546012A12D0012280F824204A681A
:100990001F23072A0DD20668776B521E02EB8202D4
:1009A00093409F430B6893401F43776319E00220F5
:1009B000F8BD06680D2A0AD2376BD21F02EB8202FD
:1009C00093409F430B6893401F43376309E0F76AE6
:1009D0000D3A02EB820293409F430B6893401F4302
:1009E000F7620A68072306680A2A0AD3F7680A3AF0
:1009F00002EB420293409F438B6893401F43F76092
:100A000008E0376902EB420293409F438B689340B2
:100A10001F4337610A68102A01D0112A20D1124BD6
:100A200002689A4217D193681B0219D4936843F461
:100A3000000393600968102912D10C490C4A096817
:100A4000B1FBF2F101EB8101490000E0491E009188
:100A50000029FBD104E0816A41F020018162012478
:100A600080F824502046F8BD00240140AC0100204D
:100A700040420F000068C06C704700002DE9F04153
:100A800004004FF0000514D0A06A002628B9E662E1
:100A900084F82460204600F083F82046FFF76AFEC1
:100AA000A16A01F01001014304D0A06A40F01000D7
:100AB000A0626BE0A16A21F4885141F00201A162B9
:100AC000334923688B42E16904D1B1F5402F01D14C
:100AD0004FF40021277B4FF4807C41EA4702616894
:100AE0000A43A168614509D0012907D05FF00001E0
:100AF00094F814E0BEF1010F02D00AE06146F7E776
:100B0000C7B1A76A47F02007A762E76A47F0010765
:100B1000E7625F6827F469470F435F60236899685D
:100B20001C4F394011439960A16861450BD00129E0
:100B300009D00CE0DFF860E0A7690EEB47370F4300
:100B400047F40061E5E7218A0D05A5F580152168C8
:100B5000CB6A23F470032B43CB62216889680F4B67
:100B60001940914208D1E662A16A21F0020141F0E8
:100B70000101A162BDE8F081A06A20F0020040F00E
:100B80001000A062E06A40F00100E0620120F1E79D
:100B9000003C0140FDF7E1FF00E0FFFFFE0E1FFFFC
:100BA00000B585B000210091019102910391006888
:100BB0000E49884218D10E48816941F40071816163
:100BC000816901F400710491816941F0040181613E
:100BD0008069694600F00400049002200090032020
:100BE0000190044800F0D4F905B000BD0024014094
:100BF00000100240000801402DE9F84300270D468F
:100C00000446009700F0C6FA804620688168C9054E
:100C100008D5A06A40F02000A06284F8247001206A
:100C2000BDE8F8834168C90503D4C06A10F4700FA9
:100C30002AD0022000F04CFB3B490968B1FBF0F6DA
:100C40002068036939490B424FEA61014FEAA1125A
:100C50001FD1C3684FEA611C13EA0C0F19D1036955
:100C60000B4225D1C068104222D1142023E0681C19
:100C70000AD02DB100F08EFAA0EB0800A84203D9EB
:100C800020680068800725D5206800688007EED5B9
:100C90002DE003690B4202D1C168114206D00269FE
:100CA00023490A4206D1C068084203D1542002E019
:100CB000292000E0FC204643009816E0681C11D073
:100CC0002DB100F067FAA0EB0800A8420AD90098FD
:100CD000B04207D2A06A40F00400A06284F82470F9
:100CE00003209DE70098401C0090B042E6D32168A5
:100CF0006FF012000860A06A40F40070A0622068E3
:100D00008068C0F3424007280CD1207B50B9A06A0C
:100D100020F48070A062A06AC00403D4A06A40F0EE
:100D20000100A06200207BE7AC010020244992244E
:100D30004992240070B5044690F8240001280DD093
:100D4000012084F824002046FFF740FD02004FF008
:100D5000000005D084F82400104670BD022070BD4C
:100D6000A16A40F20123994341F48071A1621F4DB1
:100D700023681F49AB4218D10E6816F4702F14D0A7
:100D8000A66A46F48016A6620E68760505D5A66AA0
:100D900026F4005646F48056A662A66AF6040AD5E2
:100DA000E66A26F00606E66206E0A66A26F48016E3
:100DB000A6625E68E9E7E06284F824006FF0020052
:100DC000186020688368C3F34243072B05D1A8420B
:100DD00008D1096811F4702F04D0816841F48011A2
:100DE0008160B9E7816841F4A001F9E7002801407A
:100DF0000424014010B590F821100022022905D0EA
:100E00000421816380F82020012010BD01680B6857
:100E100023F00E030B6001680B6823F001030B60E5
:100E200090F84030C46B012101FA03F3636080F84D
:100E3000211080F82020104610BD00002DE9F05F41
:100E400090F821100024022903D004218163012499
:100E500085E001680A6822F00E020A6001680A68EB
:100E600022F001020A603F4E3E4FB215DFF8F4C097
:100E7000DFF8F090DFF8ECA0DFF8E8B0DFF8E4E0AE
:100E80000168783F13011502ACF1640CA9F1500917
:100E9000AAF13C0AABF1280BAEF1140E4FF4801806
:100EA000B14227D9B9420ED0614512D049451DD073
:100EB000514518D0594518D0714501D1424615E029
:100EC000294EB14201D1012210E0274E1436B14221
:100ED00001D110220AE0244E2836B14206D0224A1F
:100EE0003C32914201D11A4600E02A461E49091FB0
:100EF0000A602BE0B94213D0614517D0494522D092
:100F000051451DD059451DD0714501D142461AE0C9
:100F1000B14202D14FF0807215E0134EB14201D1BF
:100F2000012210E0104E1436B14201D110220AE025
:100F30000D4E2836B14206D00B4A3C32914201D1C7
:100F40001A4600E02A46074980394A60012180F8A4
:100F50002110002180F82010416B01B18847204604
:100F6000BDE8F09F800002400804024070B50446CE
:100F700000F010F90546601C02D0044800780444D3
:100F800000F008F9401BA042FAD370BDA001002078
:100F90002DE9F84FDFF8C891002409F1040A0AF19D
:100FA000040B23460F270BF1040ED1E00125A540C9
:100FB00006EA0502AA4276D1DFF8A8C14E68A6EB80
:100FC0000C0866452BD00DDC032E34D005DC36B37F
:100FD000012E19D0022E2FD11BE0112E16D0122E69
:100FE0002AD119E0B8F5881F19D006DCB8F5803F82
:100FF00015D0B8F5801F1FD111E0B8F5001F0ED035
:10100000B8F5041F18D10AE0CB6815E0CB681B1DAA
:1010100012E0CB6808330FE0CB680C330CE08B6830
:101020002BB1012B4FF0080303D0456104E00423EA
:1010300002E0056100E00023FF2A01D8064601E036
:1010400000F104064FEA840501D9A5F12005D6F880
:10105000008007FA05FC28EA0C0803FA05F548EABF
:101060000508C6F800804D68ED0070D53E4DAE69AC
:1010700046F00106AE61AD6924F0030605F00105F6
:1010800000953A4D06EB050CDCF80850A607360F24
:1010900007FA06F825EA0805DFF8D480404503D1B1
:1010A0004FF0000825E052E0DFF8C880404502D14B
:1010B0004FF001081DE0DFF8C080404502D14FF03D
:1010C000020816E0DFF8B480404502D14FF0030873
:1010D0000FE0DFF8AC80404502D14FF0040808E093
:1010E000DFF8A080404502D14FF0050801E04FF045
:1010F000060808FA06F848EA0508CCF808804D68A2
:10110000D9F80060ED034D4601D5164300E0964343
:101110002E604D68DAF80060AD03554601D51643E0
:1011200000E096432E604D68DBF80060ED025D46FE
:1011300001D5164300E096432E604D68DEF800604E
:10114000AD02754601D5164300E096432E60641C3F
:101150000A681646E2407FF429AFBDE8F88F000028
:101160000004014000001110001002400000014086
:1011700000080140000C0140001001400014014033
:1011800000180140001C01400AB1016170470904C8
:10119000FBE700000148806870470000A0010020C4
:1011A000024881680278114481607047A0010020E4
:1011B000074810B5016841F010010160032000F0FC
:1011C00075F80F2000F006F800F024F8002010BD9C
:1011D0000020024070B50D4D04464FF47A71287816
:1011E000B1FBF0F00A490968B1FBF0F000F0CCFB6C
:1011F00048B9102C07D200222146501E00F036F8C4
:1012000000206C6070BD012070BD0000A0010020B6
:10121000AC0100200C4808B5816941F001018161F1
:10122000816901F001010091C16941F08051C16102
:10123000C06900F0805000900448416821F0E061EE
:1012400041F00071416008BD001002400000014003
:10125000002809DB00F01F020121914040098000B5
:1012600000F1E020C0F8001170470000F0B40E4B10
:101270001B680C46C3F30223C3F10705042D00D9F4
:101280000425191D072901D2002300E0DB1E0126D9
:1012900006FA05F1491E214099409E40761E1640EF
:1012A0003143F0BC01F06DBE0CED00E0064900F0EA
:1012B000070208684FF6FF03184040EA0220034A7D
:1012C00010430860704700000CED00E00000FA05D4
:1012D00010B52CA401461DCC86B08DE81D002DA0B4
:1012E0002D4C00680490002004292FD00BDC01292C
:1012F0002FD0022928D100F071F96168C1F3813142
:10130000491C49001EE0082920D010291CD1616821
:101310002268D20118D5C1F38342C9031DF8020027
:1013200009D5616804AAC1F34041515C1B4AB2FB74
:10133000F1F1484301E01A4948436168490203D486
:1013400040000321B0FBF1F006B010BD00F056F9EB
:10135000FAE7226AC2F30121012903D1920701D5DC
:10136000C803F1E7022905D1626A920702D549F65E
:101370004040E9E70329E7D121688903E4D54FF22A
:101380002440E1E702030405060708090A0B0C0DD7
:101390000E0F1010010200000010024000127A002F
:1013A00000093D002DE9F84305460078354CC0079B
:1013B00054D0E0690026C00008D4E06940F08050B5
:1013C000E061E069012600F0805000902E4801683D
:1013D000C90512D40168804641F480710160FFF7AD
:1013E000D9FE074605E000BFFFF7D4FEC01B642806
:1013F00023D8D8F80000C005F6D5206A10F4407054
:1014000021D0A98801F4407181421CD0206A1F4973
:10141000012220F440700A6000220A602062C007A6
:1014200011D0FFF7B7FE074641F2883808E000BF49
:10143000FFF7B0FEC11B414502D90320BDE8F88388
:10144000206A8007F4D5206A696820F44070084358
:1014500020621EB1E06920F08050E06128788007AA
:1014600005D56068A96820F440400843606028788A
:10147000C00605D56068696920F480000843606093
:101480000020DBE7001002400070004040044242B0
:101490002DE9F0470F46050061D0434E306800F05B
:1014A0000700B84209D2306820F0070038433060A6
:1014B000306800F00700B84251D128683B4C8107E2
:1014C00012D5400703D5606840F4E060606028787A
:1014D000000703D5606840F4605060606068A968E8
:1014E00020F0F000084360602878C00728D06868C2
:1014F000012810D02168022810D0890700292EDA8F
:10150000616821F0030101436160FFF743FE8046FB
:1015100041F288390DE021688903EFE78901EDE7A1
:10152000FFF738FEA0EB0801494502D90320BDE8CA
:10153000F0876068696800F00C00B0EB810FEFD1B4
:10154000306800F00700B8420BD9306820F007007F
:1015500038433060306800F00700B84201D0012005
:10156000E5E72878400705D56068E96820F4E06081
:10157000084360602878000706D56068296920F470
:10158000605040EAC100606000F038F86168084AC5
:10159000C1F30311515CC840064908600648006861
:1015A000FFF718FE0020C2E70020024000100240B2
:1015B000BA5E0008AC010020A401002004480549DF
:1015C00000684968044AC1F30221515CC840704771
:1015D000AC01002000100240CA5E00080448054922
:1015E00000684968044AC1F3C221515CC840704791
:1015F000AC01002000100240CA5E000812A185B0B4
:101600000FC98DE80F0014A0144A006804905168B7
:10161000134801F00C03042B10D0082B0ED1C1F39A
:101620008343C9031DF803000AD5516804AAC1F316
:101630004041515C0A4A5043B0FBF1F005B070479D
:1016400008494843FAE700000203040506070809B1
:101650000A0B0C0D0E0F10100102000000100240CA
:1016600000127A0000093D002DE9F84F040070D007
:101670002078C04DC00749D06868C0F381000128B8
:1016800007D06868C0F38100022809D16868C003E8
:1016900006D52868800339D560680028E7D035E092
:1016A0006068B0F5803F0BD010B1B0F5A02F11D01D
:1016B000286820F480302860286820F4802002E028
:1016C000286840F480302860606890B1FFF762FDC0
:1016D00006460AE0286840F480202860F0E700BF52
:1016E000FFF758FD801B642873D828688003F7D55E
:1016F0000CE0FFF74FFD064605E000BFFFF74AFD8F
:10170000801B6428F0D828688003F7D420789A4E8C
:1017100080074FF001094FF0000839D5686810F0D4
:101720000C0F07D06868C0F38100022809D16868EF
:10173000C00306D42868800714D52069012808D181
:1017400010E02069B0B1C6F80090FFF723FD07460E
:1017500005E00AE1FFF71EFDC01B0228C4D8286877
:101760008007F7D52868616920F0F80040EAC100D9
:1017700028600DE0C6F80080FFF70CFD074604E086
:10178000FFF708FDC01B022823D828688007F7D47C
:10179000207800072CD57948A169D9B1C0F800900C
:1017A000FFF7F8FC074604E0FFF7F4FCC01B022833
:1017B0000FD8686A8007F7D571484FF4FA5100686E
:1017C000B0FBF1F0009000BF0098411E0091FAD2EA
:1017D0000EE080E0C0F80080FFF7DCFC074604E084
:1017E000FFF7D8FCC01B022875D8686A8007F7D4B9
:1017F0002078400760D5E8690027C00008D4E86970
:1018000040F08050E861E869012700F080500090C6
:101810005C480168C90513D40168834641F48071AE
:101820000160FFF7B7FC824606E000BFFFF7B2FC9D
:10183000A0EB0A0064284ED8DBF80000C005F5D5FF
:10184000E06801280AD008B1052813D0286A20F0E2
:1018500001002862286A20F0040002E0286A40F0B3
:1018600001002862E06841F2883B98B1FFF792FCE2
:1018700082460BE0286A40F004002862EEE700BFD1
:10188000FFF788FCA0EB0A0159455AD8286A80075F
:10189000F6D50CE0FFF77EFC824605E0FFF77AFC08
:1018A000A0EB0A0159454CD8286A8007F6D41FB12D
:1018B000E86920F08050E861E06988B36968C1F3A5
:1018C0008101022944D00228C6F8608004D0FFF7C5
:1018D00061FC044638E034E0FFF75CFC074604E0B6
:1018E000FFF758FCC01B02282BD828688001F7D4CA
:1018F000206AB0F5803F05D16868A16820F4003007
:1019000008436860D4E908010843696821F4741148
:1019100008436860C6F86090FFF73CFC044606E0A8
:1019200025E000BFFFF736FC001B022809D8286815
:101930008001F7D51BE000BFFFF72CFC001B02283D
:1019400002D90320BDE8F88F28688001F4D40EE0A6
:101950000128F7D06868226A00F48031914204D1EE
:10196000616A00F47010884201D00120EAE700208B
:10197000E8E70000001002400000424280044242BA
:10198000AC0100200070004010B5401EB0F1807F17
:1019900001D3012010BD4FF0E02460610F216017DA
:1019A00001F0EFFA0020A06107202061002010BDA7
:1019B00070B590F83C20012A2CD0012480F83C40DE
:1019C000022280F83D2003685A689D6822F0700664
:1019D0000A6832435A60104B02689A420ED00F4B8D
:1019E0009A420BD0B2F1804F08D00D4B9A4205D0ED
:1019F0000C4B9A4202D00C4B9A4204D1496825F014
:101A000080031943916080F83D40002180F83C102C
:101A1000084670BD022070BD002C0140003401401A
:101A20000004004000080040000C004010B5040015
:101A300003D094F83D0010B107E0012010BD002054
:101A400084F83C00204600F01FF8022084F83D0096
:101A5000211D206801F0B6F8012084F8460084F8C2
:101A60003E0084F83F0084F8400084F8410084F888
:101A7000420084F8430084F8440084F8450084F868
:101A80003D00002010BD000008B5006806498842EE
:101A900008D10648C16941F00401C161C06900F084
:101AA0000400009008BD0000000800400010024043
:101AB00090F83D10012901D001207047022180F8E3
:101AC0003D100168CA6842F00102CA6000680E4910
:101AD00088420ED00D4988420BD0B0F1804F08D01B
:101AE0000B49884205D00B49884202D00A498842F6
:101AF00004D1816801F00701062903D0016841F093
:101B00000101016000207047002C014000340140B9
:101B10000004004000080040000C004070B504467E
:101B200090F83C00012812D0012584F83C50022096
:101B300084F83D00204601F095F801004FF00000C8
:101B400007D084F83D5084F83C00012070BD02208D
:101B500070BD2168CA6822F04002CA602168CA6864
:101B600022F48042CA6084F83D5084F83C00002092
:101B700070BD704770470000F8B5026804461068F1
:101B8000D168536910F00F0F4FF0000554D003F0E7
:101B9000010601F4907737435FD0C20705D0CA052C
:101BA00003D5226C42F001022264420705D5DA0710
:101BB00003D0226C42F002022264820705D5DA07C4
:101BC00003D0226C42F004022264020707D501F020
:101BD0002002324303D0226C42F008022264226CBD
:101BE000002A35D0800604D5880602D5204601F0AB
:101BF000BFF820684069216CC0F3801001F0080133
:101C00000143204625D001F09BF820684169490630
:101C10001BD5416921F040014161A06BA8B1584931
:101C20004163A06BFFF70AF9002811D0A06B416B4C
:101C300001B0BDE8F040084783060ED58B060CD5F1
:101C40002046BDE8F84001F093B82046FFF792FF28
:101C5000F8BDFFF78FFF2564F8BD266B2023012E0A
:101C600052D1C60650D5CE064ED5106850680090A9
:101C7000506940062AD5A16B086840680004000C32
:101C8000EAD0A68D8642E7D9E0858869202818D059
:101C9000D06820F48070D0602068416921F0010193
:101CA00041612068416921F04001416184F83E3082
:101CB00025632068C16821F01001C160A06BFFF7A7
:101CC00099F8A08DE18D401A81B219E0A08DE18DC7
:101CD000401A81B2E08D0028BED00029BCD0D06867
:101CE00020F49070D0602068426922F001024261C5
:101CF00084F83E3025632068C26822F01002C2607A
:101D00002046FFF736FFF8BD05062BD50D0629D571
:101D100094F83D002128F6D1A068B0F5805F01D18C
:101D20002069B0B1206A411C2162216800784860B6
:101D3000E08C401E0004000CE084E4D12068C168FF
:101D400021F08001C1602068C16841F04001C1609C
:101D5000F8BD206A0088C0F308005060206A801C2B
:101D60002062E5E74006F3D54806F1D5D168204664
:101D700021F04001D16084F83D3000F083F8F8BDD7
:101D8000312D000870B5040004D094F83D00002502
:101D900010B106E0012070BD84F83C50204600F0F0
:101DA00023F8242084F83D002068C16821F4005104
:101DB000C160204601F038F82068016921F49041A3
:101DC00001612068416921F02A0141612068C168F0
:101DD00041F40051C1602564202084F83D0084F85E
:101DE0003E00002070BD000030B585B00024009496
:101DF00001940294039400681449884224D1144841
:101E0000816941F480418161816901F480410491DB
:101E1000816941F00401816180690E4D00F0040088
:101E200004904FF400700090022001900320039072
:101E300069462846FFF7ACF82815CDE90004694645
:101E400028460294FFF7A4F805B030BD00380140E1
:101E5000001002400008014090F83E30202B0ED1C7
:101E600059B152B190F83C30012B08D0012380F8D1
:101E70003C300023036301F033B801207047022097
:101E8000704770477047FEE7F0B50F4906460024DB
:101E900008884D8821464543204600F0ADFB00F000
:101EA00023FD0A494FF480774A15DFF824C08023C8
:101EB00007E00F614A61CCF800604B610B610A6179
:101EC000641CAC42F5D3F0BDB0010020001001400D
:101ED0000C0C014070B40C49F0222C242A254FF43C
:101EE000A0732B2650B1012088710B804A800C8191
:101EF0004D818E8170BC002000F05CBB0020887199
:101F00000A804B80F3E70000B00100202DE9FE4F6E
:101F1000161ACDE900104FF000085D1A47464FF041
:101F2000FF30002E02DD4FF0010102E003D14FF03F
:101F300000018B4602E08346C6F10006002D02DD5B
:101F40004FF0010002E003D14FF00000824602E0B2
:101F50008246C5F10005AE4201DD344600E02C4664
:101F6000601C4FF00009029018E0009881B20198BF
:101F700080B200F019F8B0442F44A04504DD019868
:101F8000A8EB040858440190A74203DD00983F1BCA
:101F90005044009009F101001FFA80F90299894527
:101FA000E3DDBDE8FE8F000000B500F025FB00F08A
:101FB0009BFC07484FF48071016141154161054A5E
:101FC000054B12881A60802242610261016100BDE6
:101FD00000100140000000200C0C0140F0B51C4630
:101FE00015460E4607460B46FFF790FF3A46234636
:101FF00031461046FFF78AFF23462A4619463846DF
:10200000FFF784FF2A4623463146BDE8F0401046DC
:10201000FFF77CBF2DE9FC4F8046002514460320C6
:102020000F46A0EB440649E0381B81B208EB050AD5
:1020300001901FFA8AF0FFF7B7FF781B81B208EB17
:10204000040900901FFA89F0FFF7AEFF07EB050BBC
:102050001FFA8BF11FFA89F0FFF7A6FF07EB0409BF
:102060001FFA89F11FFA8AF0FFF79EFFA8EB050A15
:102070001FFA89F11FFA8AF0FFF796FFA8EB04090F
:102080001FFA8BF11FFA89F0FFF78EFF019881B2DA
:102090001FFA8AF0FFF788FF009881B21FFA89F0D3
:1020A000FFF782FF6D1C002E03DA06EB8506B61DD6
:1020B00004E0281B06EB8006641E0A36A542B3DD49
:1020C000BDE8FC8F2DE9F74FDFF8909082468B46F4
:1020D000B9F80A0000F0F6FB214C4FF48077276135
:1020E00065156561DFF87C804FEA1A21C8F8001099
:1020F0008026666126612561276165610AF0FF011E
:10210000C8F80010666126612561B9F80C0000F07E
:10211000D9FB276165614FEA1B21C8F80010666191
:1021200026612561276165610BF0FF01C8F8001089
:1021300066612661256167616561B9F80810C8F8B4
:102140000010666126612561276165610298C8F803
:102150000000666126612561BDE8FE8FB0010020A8
:10216000001001400C0C01402DE9FF4F1F46009864
:102170000C46101A401C86B24FF48078124D4FF472
:10218000007A4FF0800BDDF8349019E0214600987A
:1021900000F032FA00F0A8FB002051460B4B5A46E3
:1021A0000AE000BFC5F810806961C3F800906A6159
:1021B0002A612961401C80B2B042F3D3641CA4B2EE
:1021C000BC42E3D9BDE8FF8F001001400C0C014078
:1021D00070B5AA48416821F0E06141F0806141603A
:1021E0003220FEF7C3FE0121002000F083FB3220E5
:1021F000FEF7BCFE002000F0D5F9A14C4FF6FF75AC
:10220000FF28A08004D3A84202D0B0F5134F10D10C
:10221000D32000F057FB00F047F900F045F900F03B
:1022200043F905EA0020A08000F03EF9A1880843A8
:10223000A08081B293A0FEF71BF8CF2000F042FBF4
:10224000002000F02DFBC12000F02AFB302000F020
:1022500027FBED2000F036FB642000F021FB03207B
:1022600000F01EFB122000F01BFB812000F018FB89
:10227000E82000F027FB852000F012FB102000F082
:102280000FFB7A2000F00CFBCB2000F01BFB392069
:1022900000F006FB2C2000F003FB002000F000FB08
:1022A000342000F0FDFA022000F0FAFAF72000F0E6
:1022B00009FB202000F0F4FAEA2000F003FB0020E4
:1022C00000F0EEFA002000F0EBFAC02000F0FAFA7D
:1022D0001B2000F0E5FAC12000F0F4FA012000F024
:1022E000DFFAC52000F0EEFA302000F0D9FA3020F5
:1022F00000F0D6FAC72000F0E5FAB72000F0D0FAD7
:10230000362000F0DFFA482000F0CAFA3A2000F048
:10231000D9FA552000F0C4FAB12000F0D3FA002019
:1023200000F0BEFA1A2000F0BBFAB62000F0CAFA9C
:102330000A2000F0B5FAA22000F0B2FAF22000F074
:10234000C1FA002000F0ACFA262000F0BBFA012010
:1023500000F0A6FAE02000F0B5FA0F2000F0A0FA95
:102360002A2000F09DFA282000F09AFA082000F0B8
:1023700097FA0E2000F094FA082000F091FA542009
:1023800000F08EFAA92000F08BFA432000F088FAC2
:102390000A2000F085FA0F2000F082FA002000F0F9
:1023A0007FFA002000F07CFA002000F079FA00208B
:1023B00000F076FAE12000F085FA002000F070FAD3
:1023C000152000F06DFA172000F06AFA072000F0DF
:1023D00067FA112000F064FA062000F061FA2B2061
:1023E00000F05EFA562000F05BFA3C2000F058FA4C
:1023F000052000F055FA102000F052FA0F2000F0EE
:102400004FFA3F2000F04CFA3F2000F049FA0F202D
:1024100000F046FA2B2000F055FA002000F040FAB8
:10242000002000F03DFA012000F03AFA3F2000F0D1
:1024300037FA2A2000F046FA002000F031FA002096
:1024400000F02EFA002000F02BFAEF2000F028FA1E
:10245000112000F037FA7820FEF788FD292000F0DF
:1024600031FA0020FFF736FD0A490120C1F8A80122
:102470002846BDE87040FFF707BD0000000001409E
:10248000B0010020204C43442049443A25780D0AED
:1024900000000000000022420246012000E05043FC
:1024A000491EC9B2FBD2704770B50F4A4FF0883051
:1024B0001060131D18600C4C00200C3420600B4978
:1024C0009015086145004D6140264E61181D006859
:1024D0000E6180B20D614FF03331116019604FF61B
:1024E000FF71216070BD0000000C01400010014030
:1024F0002DE9F043284A1388834202D952888A4240
:1025000002D80020BDE8F08300F076F82E2000F01D
:10251000D9F9DFF888904FF08830C9F8000009F148
:10252000040528601D4E4FF6FF730C3633601C49BE
:10253000A815086147004F61402048610122521EE2
:10254000D2B2FCD2154C08342268086148610122DD
:10255000521ED2B2FCD22268086192B248614FF09A
:10256000010C00BFBCF1010C0CF0FF0CFAD2246886
:102570000861A4B2D0B203EA00200F614FF03331FA
:10258000C9F8001029603360D10AC902800A41EA03
:10259000401040EAD420B5E7B0010020000C014013
:1025A0000010014000B500F08DF95DF804EBFFF775
:1025B0007BBF00000F4A00219279012A19D0082818
:1025C00012D2DFE800F0110406080A0C0E10802178
:1025D0000AE0402108E0C02106E0202104E060215B
:1025E00002E0A02100E0E021362041F0080100F0E7
:1025F00081B97047B00100202DE9F04FDFF870B0CD
:1026000082468946BBF80A0000F05CF9194C4FF489
:102610008077276165156561DFF85C804FEA1A21D4
:10262000C8F8001080266661266125612761656112
:102630000AF0FF01C8F80010666126612561BBF849
:102640000C0000F03FF9276165614FEA1921C8F8D5
:1026500000106661266125612761656109F0FF014F
:10266000C8F80010666126612561BDE8F08F0000A2
:10267000B0010020001001400C0C01402DE9FF4F7B
:102680001D460C468A46580700D0012000EBD500B5
:1026900069084843203A00F0FF09D0B20026DFF86D
:1026A0009CB0029045E00C2D12D0102D15D0182DA5
:1026B00041D10298224900EBC00000BF01EB80002D
:1026C0004FF00008875D38060CD51E4802880DE0E3
:1026D00002981D4900EB4000F0E71C49029801EB0D
:1026E0000010EDE70D9828B9164842882146009859
:1026F000FFF7E8FC7806070E641CBBF80200A4B2E2
:10270000A04218D9A4EB0A00A84209D10098544667
:10271000401C80B20090BBF8001081420BD906E04B
:1027200008F1010000F0FF08B8F1080FCBD3761CC8
:10273000F6B24E45B7D3BDE8FF8F0000B0010020D0
:102740005E51000800000020FA4600086E4B0008A9
:102750002DE9FF4F81B00026DDF838A01D469346D5
:1027600081463446B0464FEA5A0727E0281B401EF0
:10277000C1B20A20FFF790FEBBFBF0F00A21B0FBCC
:10278000F1F201FB120026B9691E8C4201DA48B150
:1027900001263030C2B207FB049080B25346CDF818
:1027A000008006E007FB049080B253462022CDF85B
:1027B00000800299FFF762FF641CE4B2AC42D5D3FB
:1027C00005B0BDE8F08F2DE9F84F044600F0FF0991
:1027D00010190D46DDE90AB61FFA80F8581987B2BC
:1027E0004FF0000A12E0444503D305EB0B004C46C2
:1027F00085B2BD420FD25B4629462046CDF800A0E7
:10280000FFF73CFF04EB5B0084B2761C3278A2F148
:1028100020005E28E7D9BDE8F88F2DE9FF4F81B091
:102820004FF00008DDE90EBA1E46814644460AF024
:1028300001054FEA5B072CE0301B401EC1B20A20A5
:10284000FFF72AFE0399B1FBF0F00A21B0FBF1F289
:1028500001FB1200B8F1000F05D1711E8C4202DAA3
:1028600048B14FF001083030C2B207FB049080B28B
:102870005B46009508E05FEA0A6007FB049080B2BF
:102880005B4600950AD530220299FFF7F7FE641CDB
:10289000E4B2B442D0D305B0BDE8F08F2022F3E714
:1028A00006494FF480720A614A154A61044B186068
:1028B0008020486108610A617047000000100140F3
:1028C0000C0C014006494FF480724A614A154A6176
:1028D000044B18608020486108610A61704700005D
:1028E000001001400C0C014001480089FFF7EABFCD
:1028F000B001002010B50C46FFF7E4FF06484FF486
:102900008071016141154161044A14608022426175
:102910000261016110BD0000001001400C0C01407B
:102920003EB500211148009101910F4A02910260C9
:1029300081600173017501244FF460220461C2615A
:102940004160FEF79BF808B1FDF780FF0720009477
:10295000CDE9014069460548FEF70EF8002801D090
:10296000FDF774FF3EBD00000024014088020020F6
:102970002DE9F04F85B00020009001900290039067
:102980003448816941F010018161816901F01001D1
:102990000491816941F020018161816901F0200188
:1029A0000491816941F004018161816901F00401B0
:1029B0000491816941F0080181618069DFF89880A4
:1029C00000F008004FF6FF740490002221464046B4
:1029D000FEF7DAFBDFF884904FF4F8660022314608
:1029E0004846FEF7D1FBDFF878A04FF4807700224D
:1029F00039465046FEF7C8FBDFF868B000220421D4
:102A00005846FEF7C1FB0094012403256946404661
:102A10000194CDE90245FEF7BBFACDE900646946B1
:102A20004846CDE90245FEF7B3FACDE90074022528
:102A300069465046CDE90245FEF7AAFA0420CDE9E1
:102A4000000469465846CDE90245FEF7A1FA05B0F3
:102A5000BDE8F08F00100240000C01400010014062
:102A6000000801400014014010B588B014216846E8
:102A7000FDF786FD0024154805941349069401606E
:102A800042F2CF01C0E901144FF47A71C0E9031496
:102A90008461FEF7CBFF08B1FDF7D8FE00946946CC
:102AA0000A480194FFF73AF808B1FDF7CFFE059404
:102AB00005A906480694FEF77BFF002801D0FDF724
:102AC000C5FE08B010BD000000080040B80200209C
:102AD0000C4810B50A4901604FF4E1314160002112
:102AE00081600C22C160C0E904128161C161FFF7FD
:102AF00049F9002803D0BDE81040FDF7A7BE10BD7E
:102B00000038014000030020FEE7FEE770477047F1
:102B1000FEF746BB30B595B028216846FDF730FD7D
:102B200014210AA8FDF72CFD18210FA8FDF728FD98
:102B300001210804CDE9001000250295022404912A
:102B4000CDE907404FF4E01009906846FEF78CFD90
:102B500008B172B6FEE70AA90F2081E831004FF4F0
:102B60008060CDE90D0502210AA8FEF791FC08B1AD
:102B700072B6FEE74FF4004011900F940FA8FEF7D5
:102B800011FC002801D072B6FEE715B030BD7047C9
:102B900010B50A4C2068C068C043C00709D1084876
:102BA0000069804721680020486221686420C8626B
:102BB000E06021686FF00100086110BDB8020020DC
:102BC000AC000020F0B502681C4B1D4D1D4E1E4F81
:102BD0001E4C4FF0804C984209D0A04207D060456F
:102BE00005D0A84203D0B04201D0B84204D122F0AF
:102BF000700E4A6842EA0E02984209D0A04207D0FD
:102C0000604505D0A84203D0B04201D0B84203D1FC
:102C100022F44075CA682A434D6922F080022A4393
:102C200002608A68C2620A688262984201D0A04249
:102C300001D10969016301214161F0BD002C01400E
:102C40000004004000080040000C00400034014037
:102C500010B5846842EA032224F47F440A432243E5
:102C6000826010BD10B503689A6822F070044A684B
:102C7000224322F007040A6822439A604A6812F04D
:102C80000F0F30D11211082A2DD2DFE802F02C2CC0
:102C90002C2C0B2127040B69D1E902210068FFF7D6
:102CA000D7FF20E00A68052A10D00268136A146A68
:102CB00024F00104146202689469096924F0F004A4
:102CC00044EA01119161006803620CE0012010BD2B
:102CD0000A698968006800F008F804E00A698968F0
:102CE000006800F013F8002010BD10B5036A046AF4
:102CF00024F001040462846924F0F00444EA02141C
:102D000023F00A020A438461026210BD10B5036A0F
:102D100023F0100303628369046A23F4704343EAD7
:102D2000023224F0A00343EA01118261016210BD66
:102D300010B5406A0021C185C184FEF71BFF10BD9C
:102D40000168CA6822F49072CA6001684A6922F078
:102D500001024A61016B012904D10168CA6822F0AD
:102D60001002CA60202180F83E10002101637047E4
:102D700008B590F83E10222901D0022008BD8268D3
:102D80004FF480539A4201D1016921B1816A9A427C
:102D90001BD04AB10AE00268816A5268C2F3080295
:102DA0000A80816A891C08E0026972B1026852686F
:102DB00002F07F020A70816A491C8162C18D491E3E
:102DC0000904090CC18503D019E002685268F1E7D3
:102DD0000168CA6822F02002CA600168CA6822F449
:102DE0008072CA6001684A6922F001024A612021AA
:102DF00080F83E10016B012903D0FFF742F8002054
:102E000008BD002101630168CA6822F01002CA608F
:102E100001680A68D20602D50A6849680091818D66
:102E2000FEF7A7FEEBE7000070B5044600680169F5
:102E3000E26821F44051114301612169A06808430F
:102E4000616908432168CA6841F20C639A430243EE
:102E5000CA6020684169A26921F44071114341614F
:102E60001E492068884202D1FEF7B8FB01E0FEF758
:102E7000A5FB00EBC00101EB00126068642180003B
:102E8000B2FBF0F3B3FBF1F36FF018067343B2FB40
:102E9000F0F5B2FBF0F605EB8305322303EB0515E5
:102EA000B5FBF1F5B6FBF1F605F0F00505EB0615FF
:102EB000B2FBF0F6B2FBF0F0B0FBF1F06FF01802ED
:102EC000504306EB800003EB0010B0FBF1F02168EB
:102ED00000F00F002844886070BD000000380140F9
:102EE00081628285C28500210164222280F83E2011
:102EF00080F83C100168CA6842F48072CA600168B8
:102F00004A6942F001024A610068C16841F020014B
:102F1000C160002070470000154830B400680068A8
:102F2000C04380061BD413480068C2B2124801880F
:102F30000B0414D44C044FF0000304D50A2A0DD11D
:102F400041F4004111E00D2A0DD0C1F30D040B4DE9
:102F5000491C89B22A550180C72900D9038030BC99
:102F60000348FEF709BE41F480410180F7E7000005
:102F7000000300200438014004000020BE010020AE
:102F8000FEE70907090E002804DB00F1E02080F8C5
:102F90000014704700F00F0000F1E02080F8141DCD
:102FA000704730380A2801D201207047002070474E
:102FB0007047000004490A685206FCD5024AC1B2B3
:102FC000121D116070470000003801400149C1F82E
:102FD00088017047008022421CB5FEF7E9F8FFF730
:102FE00099FDFFF7C5FCFFF773FDFFF73DFDFFF708
:102FF00097FCFFF7EDF81E20FEF72AF900220921C1
:103000001E20FEF733F94D48FEF752FD2520FEF74E
:103010001FF9002209212520FEF728F9012248493D
:103020004848FEF719FF4848FDF73AFC474D4FF472
:1030300078401024288046A0CDE900402346C822CD
:1030400032211E20FFF7BFFB44A0CDE90040102332
:10305000C82246211E20FFF7B6FB43A0CDE9004061
:103060001023C8225A211E20FFF7ADFB42A0CDE954
:1030700000401023C8226E211E20FFF7A4FB1F2052
:10308000288040A0CDE900401023C82282211E20C4
:10309000FFF799FB3FA0CDE900401023C8229621FD
:1030A0001E20FFF790FBDFF800B1DFF8008100275A
:1030B0004FF0663A4FF0800914210120FDF7D8FB4C
:1030C000CDE9004705460246042382218620FFF70A
:1030D000A4FB284601F01FF852465B4601F02EF88B
:1030E00000F0E8FF064601F089F985B2CDE9004716
:1030F00001232A4696218620FFF78FFB284601F000
:103100009DF9314601F07AFA294901F0ABF901F055
:1031100075F9CDE900490246962103230846FFF7D9
:103120007CFBD8F8A011404631B10021C0F8A011B5
:10313000FA20FDF71BFFBFE70121F7E7B8020020E7
:103140000C00002000030020880200200000002066
:103150004D696E692053544D333200004144432081
:10316000544553540000000041544F4D40414C49D8
:10317000454E54454B000000323031392F31312F4C
:1031800031350000414443315F4348315F56414C83
:103190003A000000414443315F4348315F564F4C91
:1031A0003A302E303030560066664A3F00002142E9
:1031B00000007A4400687047024608461047000045
:1031C00070B596B0054614AB01AA03A900F0DEF96C
:1031D000002824D18DF84C001D4C042615E000BFBA
:1031E000216806EBC00014AB08586A460BA900F032
:1031F000CDF9002813D103A90BA800F0FAFB80B188
:103200009DF84C00401C8DF84C00217DC0B28142DD
:10321000E6D8207D9DF84C1088420ED1042016B0CF
:1032200070BD9DF800009DF80410884201D902206D
:10323000F5E79DF84C00A075EBE713A9284600F0D0
:103240005DFA0028EBD19DF84C0060750020E6E7A0
:10325000AC0000202DE9F0417F4C9AB0A57D207D87
:10326000A8427DD90421206801EBC50119AB405863
:1032700010AA11A900F08AF911A978A0FCF7F8FFAB
:1032800000270DF1180833E0208B0121B9400842D6
:1032900017D0222173A0FCF7EBFF384600F098FA14
:1032A000011971A02431FCF7E3FF22216DA0FCF786
:1032B000DFFF384600F08CFA2044243048F827001D
:1032C0000CE0384600F084FA2044416A48F82710A0
:1032D000E07D08B365A000BFFCF7CAFF9DF8400081
:1032E000401E874202D063A0FCF7C2FF7F1CFFB2E2
:1032F0009DF840008742C7D35FA0FCF7B9FF00F0FC
:103300009FFA607D0B2814D2DFE800F0080D3138F9
:103310004048525E6B78880058A0DDE7206850F87E
:103320003500804704E0206850F83510069888473B
:10333000064600F05FFA9DF8640001287DD050A099
:10334000FCF796FF94F8EC0000280DD0D4F8F010AC
:103350000A20B1FBF0F200FB1212B1FBF0F100E029
:1033600002E048A0FCF784FF1AB0BDE8F0812068B5
:1033700050F83520DDE906019047D9E7206806AE10
:1033800050F8353096E807009847D1E7206806AE38
:1033900050F8355096E80F00A847C9E70A98009002
:1033A000206806AE50F8355096E80F00A847BFE7F2
:1033B000DDE90A01CDE90001206806AE50F835507C
:1033C00096E80F00A847B3E70AAB06AE93E80700FC
:1033D0008DE80700206850F8355096E80F00A847A0
:1033E000A6E70AAE96E80F008DE80F00206806AE4B
:1033F00050F8355096E80F00A84799E70BAE96E8CD
:103400000F0001AE86E80F000A980090206806AE13
:1034100050F8355096E80F00A84789E70CAE96E8BB
:103420000F0002AE86E80F00DDE90A01CDE90001D8
:10343000206806AE50F8355000E003E096E80F0033
:10344000A84775E7E07D314618B116A0FCF710FFDC
:1034500078E717A0FAE70000AC0000200D0A2573FA
:10346000280000002563000025730000305825580F
:10347000000000002C00000029000000256C640002
:103480003B0D0A0046756E6374696F6E2052756E4F
:103490002054696D653A25642E2531646D730D0ADB
:1034A000000000003D305825583B0D0A0000000088
:1034B0003D256C753B0D0A00F0B50446002007461B
:1034C0000646054623782C2B03D0292B04D01BB1AC
:1034D00003E015B9012700E015B31EB1222B2BD054
:1034E000F7B92FE0A3F1300CBCF1090F19D92D2B3E
:1034F00017D02B2B15D0A3F1610CBCF1050F10D9FF
:10350000A3F1410CBCF1050F0BD9582B09D0782B36
:1035100007D0222B0CD0202B1DD02C2B1BD0FF260C
:103520000CE05FB9612B00D3203B01F8013B12E0B6
:1035300027B9012635460EE0002567B100230B7040
:103540001670F0BD3DB15C2B02D1401CC0B2641CB2
:10355000237801F8013B401CC0B2641CB2E730B5CF
:10356000002515700AE001F8014B1478401C641C1A
:10357000E4B214709C4201D3012030BD0478202CA9
:1035800001D0002CEFD10D70002030BD2DE9FF4F90
:10359000002582B0984604462F462E464FF0010B78
:1035A000AA462A46A94615E0202910D002F07F033A
:1035B000052B0CD202B9802202F07F03042B01D12B
:1035C0002A290AD1521C0DF80310D2B201E0852A33
:1035D00004D0401C01780029E6D162B102F07F02DC
:1035E00044A10DF80290684600F003FA38B10121B9
:1035F00088F8001000224FF00008234614E088F8F5
:103600000090F7E708F1010000F0FF0813F8010F40
:10361000202801D02A2807D1184600F077F9282859
:1036200002D02A2800D047461878282801D0002840
:10363000E8D10FB13C44641C00273946207888B19A
:10364000282804D0292806D022280FD010E079B9E4
:103650006D1CEDB20CE059B925B16D1E15F0FF05DA
:1036600001D00CE00127012E32D039E049B1002110
:103670004DB12C280FD020281FD028281DD07AB17A
:1036800017E00121F4E7202820D0039B187003984D
:10369000401C03901AE0521C4FF0010BD2B20CE018
:1036A000BAF1050F05D20DF80A000AF1010000F089
:1036B000FF0A0BF1010000F0FF0B012D06D1BBF159
:1036C000020F03D1761C4FF0030BF6B2641CB5E772
:1036D0000DF80A9007A1684600F08BF900B90026A2
:1036E00004980670039880F8009006B03846BDE84C
:1036F000F08F0000766F6964000000002DE9F04350
:1037000000248946314DB5B0214622466B18491C2C
:10371000C9B29A760A29F9D303E000BF10F8011F55
:1037200091B101782829F9D1461C012733AA6946AD
:103730003046FFF7C1FE06449DF8CC0040B1012899
:1037400024D0FF2839D10BE0012035B0BDE8F0834B
:103750009DF8000080B334A9684600F0DFF808B196
:103760000220F2E7204600F033F828443499416201
:10377000288B07FA04F188432883042029198876C6
:10378000641CE4B20A2C18D90320DEE7684600F076
:1037900045F900F10108204600F01AF84119684681
:1037A000243100F032F9288B07FA04F10843291973
:1037B000288381F81A80E3E7FFE73078292801D0D1
:1037C0000028B3D189F800400020BEE7AC000020FB
:1037D000024610B500200146054B05E05C18491C67
:1037E000A47EC9B22044C0B29142F7D310BD0000FC
:1037F000AC000020094800680169C943CA070849AC
:10380000D1F8F02004D14FF6FF731A44C1F8F0202C
:10381000406A1044C1F8F00070470000B802002070
:10382000AC00002001490120C8757047AC000020A1
:103830000246012000E05043491EC9B2FBD2704746
:1038400007486FF00101026811610268090CD1623A
:10385000C1600068002141620248C0F8F010704762
:10386000B8020020AC0000202DE9F041164D288858
:10387000010426D51549C0B2154F00260E54B9686B
:103880001248884704000FD0104800F0D1F80128F2
:1038900001D0040014D0012C09D0022C09D0032C33
:1038A00009D0042C0CD108E0F868804708E009A092
:1038B00004E00BA002E00DA000E00FA0FCF7D8FC94
:1038C0002E80BDE8F081000004000020BE01002031
:1038D000AC000020BAAFCAFDB4EDCEF3210D0A0052
:1038E000B2CECAFDB4EDCEF3210D0A00B2CECAFDB0
:1038F000CCABB6E0210D0A00CEB4D5D2B5BDC6A57D
:10390000C5E4B5C4BAAFCAFD210D0A0010F8011F05
:10391000202901D10028F9D1C8B270472DE9F04320
:103920000D4600244FF00A09264601462C600A780D
:10393000A2F13003092B14D903782D2B01D02B2BA6
:1039400000D174B1A2F14103052B0AD9582A05D040
:1039500012F0FF0F17D00120BDE8F083012C02D038
:10396000F9E7412A01D34FF0100902782D2A04D03B
:103970002B2A04D0641CE4B203E0022600E00126F6
:10398000401C491CD3E70746B9F1100F01D084B1A0
:1039900012E0032C01D20220DEE73878302802D171
:1039A0007878582801D00320D6E7A41EE4B2BF1CC3
:1039B00001E00420D0E70CB1641EE4B23878A0F135
:1039C0003001092901D8884601E0A0F137082146D5
:1039D0004846FFF72DFF2A6808FB0020286017F8EB
:1039E000011F0029E7D1022E01D1404228600020AA
:1039F000B2E702780B789A4201D00120704712B1E9
:103A0000401C491CF5E70020704702780A700278D4
:103A1000002A02D0401C491CF7E7704700210278B9
:103A20001AB1491CC9B2401CF9E7084670470000AA
:103A3000F0B58DB004461E236A4602A9FFF78FFD3C
:103A40000190002872D19DF80000271800263E4CF6
:103A50008DF800609DF8000054F8201002A8FFF7D0
:103A6000C8FF38B19DF80000401CC0B28DF80000BE
:103A70000728EFD39DF800000425344C072855D2C1
:103A8000DFE800F00404395A605F5E0030A0FCF704
:103A9000EFFB30A0FCF7ECFB3EA0FCF7E9FB4DA0F0
:103AA000FCF7E6FB5BA0FCF7E3FB6AA0FCF7E0FB9E
:103AB00078A0FCF7DDFB86A0FCF7DAFB8BA0FCF717
:103AC000D7FB93A0FCF7D4FB97A0FCF7D1FB9CA0FD
:103AD000FCF7CEFBA1A0FCF7CBFBA7A0FCF7C8FB33
:103AE000B3A0FCF7C5FBC0A0FCF7C2FBCBA0FCF762
:103AF000BFFBD7A01BE016A0FCF7BAFBE4A0FCF7C5
:103B0000B7FB8DF800600BE0216805EBC000095899
:103B1000EFA0FCF7ADFB9DF80000401C8DF8000005
:103B2000217D9DF800008142EED856E257E2FCF775
:103B30009FFB00200DB0F0BD05A0FCF799FBCBE189
:103B40002CE20CE2EBE1000010000020AC000020B1
:103B50000D0A00002D2D2D2D2D2D2D2D2D2D2D2D32
:103B60002D2D2D2D2D2D2D2D2D2D2D2D55534D4103
:103B700052542056332E332D2D2D2D2D2D2D2D2D00
:103B80002D2D2D2D2D2D2D2D2D2D2D2D2D2D2D2072
:103B90000D0A00002020202055534D415254CAC721
:103BA000D3C9414C49454E54454BBFAAB7A2B5C4F1
:103BB000D2BBB8F6C1E9C7C9B5C4B4AEBFDAB5F770
:103BC000CAD4BBA5BDBBD7E9BCFE2CCDA8B9FD208E
:103BD0000D0A0000CBFC2CC4E3BFC9D2D4CDA8B9D8
:103BE000FDB4AEBFDAD6FACAD6B5F7D3C3B3CCD0DC
:103BF000F2C0EFC3E6B5C4C8CEBACEBAAFCAFD2C88
:103C0000B2A2D6B4D0D02ED2F2B4CB2CC4E3BFC96A
:103C10000D0A0000D2D4CBE6D2E2B8FCB8C4BAAFE9
:103C2000CAFDB5C4CAE4C8EBB2CECAFD28D6A7B354
:103C3000D6CAFDD7D62831302F3136BDF8D6C62C9E
:103C4000D6A7B3D6B8BACAFD29A1A2D7D6B7FBB4B6
:103C5000AE0D0A00A1A2BAAFCAFDC8EBBFDAB5D853
:103C6000D6B7B5C8D7F7CEAAB2CECAFD292CB5A50E
:103C7000B8F6BAAFCAFDD7EEB6E0D6A7B3D63130A4
:103C8000B8F6CAE4C8EBB2CECAFD2CB2A2D6A7B32E
:103C9000D60D0A00BAAFCAFDB7B5BBD8D6B5CFD4DA
:103CA000CABE2ED6A7B3D6B2CECAFDCFD4CABEBD29
:103CB000F8D6C6C9E8D6C3B9A6C4DC2CD6A7B3D6F5
:103CC000BDF8D6C6D7AABBBBB9A6C4DC2E0D0A0068
:103CD000BCBCCAF5D6A7B3D63A7777772E6F706596
:103CE0006E6564762E636F6D0D0A000055534D416D
:103CF0005254D3D037B8F6CFB5CDB3C3FCC1EE28FC
:103D0000B1D8D0EBD0A1D0B4293A0D0A0000000000
:103D10003F3A202020202020BBF1C8A1B0EFD6FAE6
:103D2000D0C5CFA20D0A000068656C703A20202033
:103D3000BBF1C8A1B0EFD6FAD0C5CFA20D0A0000E2
:103D40006C6973743A202020BFC9D3C3B5C4BAAF1D
:103D5000CAFDC1D0B1ED0D0A0A00000069643A2025
:103D600020202020BFC9D3C3BAAFCAFDB5C449447F
:103D7000C1D0B1ED0D0A0A006865783A20202020F4
:103D8000B2CECAFD3136BDF8D6C6CFD4CABE2CBA23
:103D9000F3B8FABFD5B8F12BCAFDD7D6BCB4D6B4A8
:103DA000D0D0BDF8D6C6D7AABBBB0D0A0A0000000A
:103DB0006465633A20202020B2CECAFD3130BDF8C0
:103DC000D6C6CFD4CABE2CBAF3B8FABFD5B8F12B39
:103DD000CAFDD7D6BCB4D6B4D0D0BDF8D6C6D7AA03
:103DE000BBBB0D0A0A00000072756E74696D653AFE
:103DF000312CBFAAC6F4BAAFCAFDD4CBD0D0BCC652
:103E0000CAB13B302CB9D8B1D5BAAFCAFDD4CBD0EA
:103E1000D0BCC6CAB13B0D0A0A000000C7EBB0B463
:103E2000D5D5B3CCD0F2B1E0D0B4B8F1CABDCAE4B4
:103E3000C8EBBAAFCAFDC3FBBCB0B2CECAFDB2A2DA
:103E4000D2D4BBD8B3B5BCFCBDE1CAF82E0D0A0074
:103E50002D2D2D2D2D2D2D2D2D2D2D2D2D2D2D2D92
:103E60002D2D2D2D2D2D2D2D2D2D414C49454E54D3
:103E7000454B2D2D2D2D2D2D2D2D2D2D2D2D2D2D3C
:103E80002D2D2D2D2D2D2D2D2D2D2D200D0A00000C
:103E90002D2D2D2D2D2D2D2D2D2D2D2D2D2D2D2D52
:103EA0002D2D2D2D2D2D2D2D2DBAAFCAFDC7E5B5EC
:103EB000A52D2D2D2D2D2D2D2D2D2D2D2D2D2D2DBA
:103EC0002D2D2D2D2D2D2D2D2D2D2D2D200D0A009F
:103ED00025730D0A0000000042A0FCF7C9F98DF817
:103EE000006016E0216805EBC0000BAB08580AAA79
:103EF00002A9FFF74BFB9DF80010206850F8312015
:103F000002A948A0FCF7B4F99DF80000401C8DF808
:103F10000000217D9DF800008142E3D85DE0AFF212
:103F2000D030FCF7A5F96A4602A93846FFF7C4FA73
:103F30009DF80000002843D101A902A8FFF7EEFC7C
:103F40008DF8000010B104283AD102E03AA001999E
:103F50001CE03CA0FCF78CF90120E0753DE038A0A6
:103F6000FCF786F96A4602A93846FFF7A5FA9DF8DC
:103F7000000028BB01A902A8FFF7D0FC8DF80000C3
:103F800010B104281CD104E033A00199FCF770F9AA
:103F900023E034A0FCF76CF9E6751EE028A0FCF7DE
:103FA00067F96A4602A93846FFF786FA9DF80000CD
:103FB00030B901A902A8FFF7B1FC8DF8000008B1E3
:103FC0000220B7E5019810F0FF0084F8EC0001D062
:103FD00029A000E02FA0FCF74BF919A0A7E50120CC
:103FE000A8E500002D2D2D2D2D2D2D2D2D2D2D2D28
:103FF0002D2D2D2D2D2D2D2D2D2D2D2D2DBAAFCA45
:10400000FD204944202D2D2D2D2D2D2D2D2D2D2DF7
:104010002D2D2D2D2D2D2D2D2D2D2D2D2D2D2D2DD0
:10402000200D0A0025732069642069733A0D0A3057
:1040300058253038580D0A004845583A3058255808
:104040000D0A00003136BDF8D6C6B2CECAFDCFD4B7
:10405000CABE210D0A0000004445433A256C750D87
:104060000A0000003130BDF8D6C6B2CECAFDCFD4AA
:10407000CABE210D0A00000052756E2054696D659C
:104080002043616C63756C6174696F6E204F4E0DD7
:104090000A00000052756E2054696D652043616C02
:1040A00063756C6174696F6E204F46460D0A00009F
:1040B0000160704721F00042A2F16052B2F5801F0A
:1040C00001F0004328BFD2F17F6C0BD95FEA001CDE
:1040D00043EAC20242EB507018BF704728BF20F07D
:1040E00001007047B2F5801FBCBF184670474FEA09
:1040F000410C1CF5001F02D2084600F07ABA70B5D8
:1041000000F0C6F800000089FFF7F6BF4FF000404E
:10411000A0F580007047B0FA80F310FA03F10AD0DE
:10412000C3F11D0303F580634FEA41504FEA035288
:1041300002EBD12170474FF000007047DFF848C113
:1041400070B51CEA111E1EBF1CEA13159EEA0C0F67
:1041500095EA0C0F00F06F8081EA030423EA4C1308
:104160004EEAD47E21EA4C1141F4801143F48013CD
:10417000AE44A1FB024CA0FB0365AEF17F7E361975
:1041800055EB0C05A1FB034C4CF10003A0FB021CFA
:1041900016EB0C06654153F10003094218BF46F0C7
:1041A000010613F4007F0BD14FEA03314FEA0530CB
:1041B000340341EA155140EA16506FF003020AE059
:1041C0004FEAC3214FEAC520F40241EA555140EAC3
:1041D00056506FF0020202EB2E4201EB025585EAC7
:1041E000CE710AD05FEA440C18BF24F0004450F1AD
:1041F000000041F1000120EAD47040F2FE7C6245EB
:1042000000D270BDA84214BF4FF080444FF040442C
:10421000002E08BF0024BEF1806FA8BFA1F1C041ED
:10422000BDE8704080F282804FF0000001F1C04193
:1042300001F0004170479EEA0C0F0CEA131518BFFD
:1042400095EA0C0F06D04FF0000081EA030E0EF045
:10425000004170BD00F01CF88900013E00F007B875
:1042600000F009B84FEA430C5FEA5C5C08D081EAD1
:10427000030100F05BB84FEA410C5FEA5C5CF6D1E9
:104280004FF00000014970470000FF070000F87F71
:104290000EF1020E2EF0030E5EF8046B364205D4CA
:1042A000012A43EB030515F5001F12D8012841EB45
:1042B000010C1CF5001F0CD80ED14FEAD17C15F56E
:1042C000001F0CEB4C0C0CF1020C08BF4CEBD37C28
:1042D00004E04FF0080C01E04FEAD37C0CEB4C05F6
:1042E00026FA05F606F00706B6F1040C06D20EEB28
:1042F000860CBDE870404CF0010C6047DFE80CF024
:10430000090B02024FF000414FF00000A1F500211F
:1043100070BD19461046012851EB010418BFD4F5B1
:10432000001484BF002001F0004170BD0808A0F512
:1043300000114FEA3101704790EA010F48BF81F048
:10434000004100F16C81421A3CBF801A89184FEA83
:10435000D0524FF07F4C1CEA410FA2EBD15318BF53
:104360009CEA026F00F03B804FF0004C4CEA0020CA
:104370004CEA012121FA03FC10EB0C0C1ED202F1D5
:10438000FF325FEA1C2040EBC25038BF70471CF080
:104390007F0F4FEA400C18BFBCF17F4F38BF70470A
:1043A000C3F12003994008BF20F00100BCF17F4F0A
:1043B00038BF7047A0F1C04000F01BB94FEA3C0085
:1043C000000A40EBC25028BF1CF0FF0F4FEA400C20
:1043D000E6D018BFBCF17F4F38BF7047EAE79CEAD0
:1043E000026F05D010EA5C0F08BF00F00040704774
:1043F00010B500F0B8F800BF64FBBE3EC10DD1F1AE
:104400009E0206DB4FEA002343F0004323FA02F04A
:104410007047004207D54FEA4001B1F1FE4F02D28A
:104420004FF00000704710B500F09DF849922480CD
:10443000002070476FEA200070470000B0FA80F358
:1044400010FA03F2C3F19D030AD0D90501EB122043
:10445000530638BF704700F1010008BF20F001008B
:10446000704700004FF47F0C1CEAD0121EBF1CEAFC
:10447000D11392EA0C0F93EA0C0F00F0478090EAF8
:10448000010F48BF42F480724FF0004C4CEA00200C
:104490004CEA012102EB0302A0FB0113A2F500028A
:1044A000002918BF43F001035B0028BF4FEA330324
:1044B00042EB22425FEA132C4CEBC2502EBFBCEB06
:1044C000436FB2F57C0F70474FEA036CBCF1004FAD
:1044D00008BF20F00100B2F57C0F38BF70470BD544
:1044E00082F0FF0212F5803FC8BF704700F1C04064
:1044F000D8BF00F00040704700F5000C5FEA4C0C9C
:1045000048BF7047B0F1C04000F073B890EA010FA7
:104510000CEAD11348BF42F48072624538BF63454C
:1045200004D280EA010000F00040704710B500F0AE
:104530001AF800BF8900013E00F007B800F009B882
:104540005FEA410C5FEA1C6C08D080EA010000F0D1
:1045500050B85FEA400C5FEA1C6CF6D14FF00040A7
:10456000A0F5800070470EF1020E2EF0030E5EF8EB
:10457000044B244204D44FEA4102B2F17F4F11D8D8
:104580004FEA4003B3F17F4F0CD80ED14FEAD07CF5
:10459000B2F17F4F0CEB4C0C0CF1020C08BF4CEB52
:1045A000D17C04E04FF0080C01E04FEAD17C0CEB29
:1045B0004C0324FA03F404F00704B4F1040C06D20B
:1045C0000EEB840CBDE810404CF0010C6047DFE8B6
:1045D0000CF0070802024FF00040A0F5800010BD6B
:1045E0000846420018BFD2F1807288BF00F0004038
:1045F00010BDFF2141EAD050C005704780F0004057
:1046000090EA010F7FF59FAE81F0004100F007B8FE
:1046100090EA010F48BF81F000413FF594AE421A85
:1046200004D882F00042A0EB020011444FEAD052BD
:104630004FF07F4C1CEA410FA2EBD15318BF9CEA0C
:10464000026F4AD04FF0004C4CEA00204CEA0121A6
:1046500021FA03FCB0EB0C0C0FD412F0FE0F36D095
:104660005FEA4C001DD5001240EBC25038BF7047C6
:104670001CF03F0F18BF70470BE0A2F101025FEA88
:104680001C2040EBC25038BF70471CF07F0F18BF92
:104690007047C3F12003994014BF401E20F0010071
:1046A000704780084FEA122308BF7047B0FA80FCB9
:1046B000A2EB0C02CCF1280C60FA0CF093EA122F5A
:1046C00004BF00EBC25070474FEAC3707047130A33
:1046D0005FEADC1008BF7047F6E79CEA026F04D07F
:1046E00010EA5C0F08BF0020704710B5FFF73BFFD2
:1046F00040DFF63E81F000407047000000000000FF
:10470000000000000000000000003F40000000002A
:1047100000000000300040003000400000000900B0
:104720000BC03D000BC03D00090018C024407FE0D5
:10473000224031800000180024C01B000D80324050
:10474000018003801C4027401C800740004010006F
:1047500060000000000000000000000000000000F9
:104760001F80204040200000402020401F8000008B
:104770000000090006001F80060009000000040078
:1047800004003F80040004000000001000600000EE
:104790000000000000000400040004000400040005
:1047A00000000000004000000000000000000020A9
:1047B00001C006003800400000001F80204020405B
:1047C00020401F800000000010403FC0004000005B
:1047D000000018C0214022402440184000001080F2
:1047E0002040244024401B80000002000D001100E6
:1047F0003FC0014000003C802440244024402380EE
:1048000000001F802440244034400380000030001A
:10481000200027C03800200000001B8024402440D6
:1048200024401B8000001C0022C0224022401F8028
:104830000000000000000840000000000000000030
:1048400000000460000000000000000004000A00F6
:1048500011002080404009000900090009000900FA
:10486000000000004040208011000A0004001800F1
:10487000200023402400180000001F802040274013
:1048800029401F400000004007C039000F0001C050
:10489000004020403FC0244024401B8000001F8077
:1048A0002040204020403080000020403FC0204079
:1048B00020401F80000020403FC024402E4030C0D8
:1048C000000020403FC024402E00300000000F00B8
:1048D0001080204022403380020020403FC004006E
:1048E00004003FC02040204020403FC020402040E6
:1048F00000000060202020203FC020002000204039
:104900003FC024400B0030C0204020403FC020402A
:104910000040004000C03FC03C0003C03C003FC01E
:10492000000020403FC00C4023003FC020001F80FB
:104930002040204020401F80000020403FC02440F5
:104940002400180000001F802140214020E01FA00B
:10495000000020403FC02440260019C0004018C07D
:1049600024402440224031800000300020403FC0DD
:1049700020403000000020003F80004000403F8089
:10498000200020003E0001C0070038002000380051
:1049900007C03C0007C038000000204039C00600B6
:1049A00039C0204000002000384007C038402000B7
:1049B0000000304021C02640384020C000000000E8
:1049C00000007FE0402040200000000070000C004C
:1049D0000380004000000000402040207FE00000F5
:1049E0000000000020004000200000000000001037
:1049F0000010001000100010001000000000400027
:104A0000000000000000000002800540054003C0D7
:104A1000004020003FC0044004400380000000002C
:104A2000038004400440064000000000038004406E
:104A300024403FC000400000038005400540034083
:104A40000000000004401FC024402440200000005B
:104A500002E0055005500650042020403FC00440AD
:104A6000040003C000400000044027C000400000D4
:104A7000000000100010041027E00000000020409B
:104A80003FC00140070004C00440204020403FC018
:104A900000400040000007C0040007C0040003C03D
:104AA0000000044007C00440040003C000400000B0
:104AB00003800440044003800000041007F0045009
:104AC000044003800000000003800440045007F00D
:104AD0000010044007C00240040004000000000071
:104AE00006400540054004C00000000004001F808F
:104AF000044000400000040007800040044007C05C
:104B000000400400070004C0018006000400060005
:104B100001C0070001C006000000044006C00100FB
:104B200006C0044000000410071004E001800600E5
:104B300004000000044005C00640044000000000DE
:104B4000000004007BE040200000000000000000A6
:104B5000FFF000000000000040207BE004000000A7
:104B600000004000800040002000200040000000C5
:104B70000000000000000000000000000000000035
:104B8000000000001FCC000C00000000000000002E
:104B900008003000600008003000600000000220C3
:104BA00003FC1E20022003FC1E2002200000000047
:104BB0000E1811043FFF10840C78000000000F0055
:104BC00010840F3800C0077818840078000000783F
:104BD0000F8410C411240E9800E40084000808001B
:104BE00068007000000000000000000000000000ED
:104BF0000000000007E01818200440020000000038
:104C000040022004181807E00000000000000240E5
:104C1000024001800FF0018002400240000000804D
:104C2000008000800FF800800080008000000001FC
:104C3000000D000E00000000000000000000000059
:104C400000800080008000800080008000800000E4
:104C5000000C000C0000000000000000000000003C
:104C60000006001800600180060018002000000007
:104C700007F0080810041004080807F000000000FE
:104C8000080408041FFC00040004000000000000E9
:104C90000E0C10141024104411840E0C000000009F
:104CA0000C1810041104110412880C70000000008C
:104CB00000E00320042408241FFC0024000000005E
:104CC0001F98108411041104108810700000000057
:104CD00007F0088811041104188800700000000013
:104CE0001C00100010FC13001C001000000000004D
:104CF0000E3811441084108411440E380000000056
:104D00000700088C10441044088807F000000000D9
:104D100000000000030C030C000000000000000075
:104D2000000000010106000000000000000000007B
:104D30000080014002200410080810040000022036
:104D40000220022002200220022002200000000097
:104D50001004080804100220014000800000000038
:104D60000E001200100C106C10800F00000003E009
:104D70000C1813E4142417C4082807D000000004FA
:104D8000003C03C41C40074000E4001C0004100465
:104D90001FFC1104110411040E880070000003E0D0
:104DA0000C1810041004100410081C10000010044B
:104DB0001FFC100410041004080807F00000100481
:104DC0001FFC1104110417C410040818000010047B
:104DD0001FFC1104110017C010000800000003E0C0
:104DE0000C181004100410441C780040000010043B
:104DF0001FFC10840080008010841FFC1004000041
:104E0000100410041FFC1004100400000000000334
:104E10000001100110011FFE10001000000010041E
:104E20001FFC110403801464181C100400001004FB
:104E30001FFC1004000400040004000C0000100417
:104E40001FFC1F0000FC1F001FFC100400001004CA
:104E50001FFC0C04030000E010181FFC100007F0FA
:104E60000808100410041004080807F000001004DB
:104E70001FFC10841080108010800F00000007F0CD
:104E8000081810241024101C080A07F2000010044F
:104E90001FFC1104110011C011300E0C00040000A1
:104EA0000E1C11041084108410441C3800001800DB
:104EB000100010041FFC1004100018000000100067
:104EC0001FF810040004000410041FF81000100064
:104ED0001E0011E0001C007013801C0010001FC099
:104EE000103C00E01F0000E0103C1FC00000100458
:104EF000180C163401C001C01634180C1004100030
:104F00001C00130400FC13041C0010000000080423
:104F1000101C1064108413041C04101800000000FE
:104F2000000000007FFE400240024002000000003E
:104F300030000C0003800060001C00030000000033
:104F40004002400240027FFE00000000000000001E
:104F50000000200040004000400020000000000150
:104F6000000100010001000100010001000100003A
:104F70004000400020000000000000000000000091
:104F80000098012401440144014400FC0004100085
:104F90001FFC00880104010400880070000000006C
:104FA0000070008801040104010400880000000072
:104FB000007000880104010411081FFC00040000B7
:104FC00000F8014401440144014400C8000000000D
:104FD000010401040FFC1104110411001800000069
:104FE00000D601290129012901C901060000100488
:104FF0001FFC008401000100010400FC000400000B
:105000000104190419FC0004000400000000000061
:10501000000300010101190119FE00000000100445
:105020001FFC0024004001B4010C0104000000003A
:10503000100410041FFC0004000400000000010420
:1050400001FC0104010001FC0104010000FC010459
:1050500001FC008401000100010400FC00040000C8
:1050600000F8010401040104010400F8000001013A
:1050700001FF0085010401040088007000000000A9
:105080000070008801040104010501FF0001010412
:10509000010401FC00840104010001800000000003
:1050A00000CC012401240124012401980000000007
:1050B0000100010007F801040104000000000100E4
:1050C00001F8000400040004010801FC00040100D0
:1050D00001800170000C001001600180010001F0EE
:1050E000010C003001C00030010C01F00100000093
:1050F0000104018C00740170018C010400000101A5
:1051000001810171000E00180160018001000000A2
:105110000184010C013401440184010C00000000F1
:1051200000000000000001003EFC400240020000C0
:10513000000000000000FFFF000000000000000071
:10514000400240023EFC01000000000000000000A0
:10515000600080008000400040002000200000002F
:10516000000000000000000000000000000000003F
:10517000000000000000000000000000000000002F
:10518000000000000000000000000000000000001F
:10519000000F80380FFE380F80380000000000003C
:1051A00000000000000000000000000001000006F8
:1051B00000000C00003800003100000600000C0068
:1051C0000038000030000000000000000000618096
:1051D0000067F807F980006180006180006180004D
:1051E00061800067F807F98000618000000000001E
:1051F0000000000001C0E003E0F0063008041808D9
:105200001FFFFE040E080787F00381E00000000086
:10521000000001F000060C00040408060C7001F9FF
:10522000C0000E00003BE000EC18070808040C1852
:105230000003E00000000001E00007F003F818049C
:105240001C0804170807E1D003C0E00023B0003CAD
:10525000080020080000100000000000000100000D
:105260003100003200001C000000000000000000BF
:10527000000000000000000000000000000000002E
:1052800000000000000000000000000000007F009F
:1052900001FFC00780F00C0018100004200002007D
:1052A00000000000002000021000040C001807801D
:1052B000F001FFC0007F00000000000000000000BF
:1052C0000000000000000000000042000066000036
:1052D0006600003C0000180003FFC0001800003CFE
:1052E00000006600006600004200000000000800A8
:1052F00000080000080000080000080001FFC000CE
:105300000800000800000800000800000800000075
:105310000000000100003100003200001C0000000D
:10532000000000000000000000000000000000007D
:10533000000000000000080000080000080000084D
:105340000000080000080000080000080000080035
:10535000000800000000000000000000000038000D
:1053600000380000380000000000000000000000CD
:105370000000000000000000000000000000000627
:1053800000001C000070000180000E0000380000CA
:10539000C0000700001C00003000000000000000FA
:1053A00000007F8001FFE003807006001804000801
:1053B00004000806001803807001FFE0007F8000F1
:1053C00000000000000000000100080100080100CA
:1053D0000803FFF807FFF8000008000008000008B5
:1053E00000000000000000000001C03802C05804A6
:1053F0000098040118040218040418061C1803F885
:105400001801E0F800000000000000000001C0E00A
:1054100003C0F0040008040808040808061808037C
:10542000F41801E7F00001E00000000000000000B7
:1054300000000300000D0000110000610000810861
:1054400003010807FFF80FFFF8000108000108003A
:1054500000000000000000E007FCD006080806106D
:1054600008061008061008061838060FF00607C0D0
:10547000000000000000000000003F8001FFE0038A
:1054800084300208180410080410080410080718D3
:1054900010030FF00007C000000000000000000033
:1054A00003C0000700000600000600F80607F80623
:1054B000180006E0000700000600000000000000E1
:1054C0000001E1E003F7F00634100418080418089E
:1054D000040C08040C0806161803F3F001C1E000E0
:1054E000000000000000F80003FC3003063804024E
:1054F000080402080402080404100308F001FFC0B5
:10550000007F00000000000000000000000000001C
:105510000000000000007038007038007038000093
:10552000000000000000000000000000000000007B
:1055300000000000000000000000301A00301C00D5
:10554000000000000000000000000000000000005B
:1055500000000000000800001400002200004100CC
:1055600000808001004002002004001008000800B4
:1055700000000000000021000021000021000021A7
:105580000000210000210000210000210000210076
:1055900000210000000000000000000008000804D6
:1055A0000010020020010040008080004100002225
:1055B0000000140000080000000000000003C0000C
:1055C00004C000040000080038080F380808380834
:1055D00010000C300007E00003C0000000000000D5
:1055E00000003F8000FFE0038070020F100670880B
:1055F00004C088048308047F8802C090030120004F
:10560000FE400000080000180001F8003E0801C23A
:105610000007020007E20000FE00001FC80001F8BA
:1056200000003800000804000807FFF807FFF8042E
:10563000080804080804080804080806180803F401
:105640001801E7F00001E0000000000000003F80CA
:1056500001FFE00380700200180400080400080441
:1056600000080400100600200780C00000000400AD
:105670000807FFF807FFF804000804000804000802
:1056800004001802001003807001FFE0007F80001A
:10569000000004000807FFF807FFF80408080408E2
:1056A00008040808040808043E0804000806001856
:1056B00001006000000004000807FFF807FFF8047D
:1056C0000808040800040800040800043E0006005E
:1056D00000060000018000000000000000003F8084
:1056E00001FFE003807006001804000804020804AB
:1056F00002080203F00783F0000200000200040029
:105700000807FFF807FFF804080800080000080071
:1057100000080000080004080807FFF807FFF80465
:105720000008000000000000040008040008040055
:105730000807FFF807FFF804000804000804000841
:10574000000000000000000000000006000007004C
:10575000000104000104000104000307FFFE07FF2D
:10576000FC04000004000004000004000807FFF827
:1057700007FFF8040C08001800003E0004C780056D
:1057800003C80600F80400380400180000080400EC
:105790000807FFF807FFF8040008000008000008E9
:1057A0000000080000080000080000180000600069
:1057B000000004000807FFF807800807FC00007FCE
:1057C000C00003F80007C000780007800807FFF852
:1057D00007FFF804000804000807FFF807000803A3
:1057E000C00000E000003800001E000007000001BB
:1057F000C00400F007FFF8040000000000007F80F4
:1058000001FFE00380700600180400080400080689
:10581000001803003001FFE0007F8000000004005A
:105820000807FFF807FFF804040804040004040054
:10583000040400040400060C0003F80001F000005A
:105840000000000000007F8001FFE0038070060080
:10585000880400880400C806003C03003E01FFE6FF
:10586000007F8400000004000807FFF807FFF80429
:105870000808040800040C00040F00040BC0061004
:10588000F003F03801E00800000800000001E0F833
:1058900003F030063010041808041808040C08043B
:1058A0000C080206180207F00781E00000000180E2
:1058B0000006000004000004000004000807FFF8D0
:1058C00007FFF804000804000004000006000001BF
:1058D000800004000007FFE007FFF004001800004C
:1058E000080000080000080000080000080400107C
:1058F00007FFE004000004000006000007E00007C6
:10590000FE00041FE00001F80000380001E0043E42
:105910000007C00006000004000004000007E000CB
:1059200007FFC0041FF80007C007F80007FF800446
:105930003FF80007C004F800070000040000000062
:105940000004000806001807C07805F1C8003E00F2
:10595000001F800463E80780F806001804000800B0
:10596000000004000006000007800007E008047C37
:1059700008001FF80007F800180804E008070000F6
:1059800006000004000000000001000806003804C2
:1059900000F80403E8040F08047C0805F00807C0B9
:1059A000080700180400600000000000000000006C
:1059B0000000000000000000003FFFFE2000022069
:1059C000000220000220000220000200000000006F
:1059D0000000000008000007000000C000003800C0
:1059E0000006000001C000003000000E00000100B1
:1059F0000000000000000000200002200002200043
:105A0000022000022000023FFFFE00000000000014
:105A1000000000000000000000000000000000087E
:105A200000001000003000002000003000001000D6
:105A3000000800000000000000000000010000015C
:105A40000000010000010000010000010000010051
:105A50000001000001000001000001000001000041
:105A600000000000000000200000200000100000E6
:105A70001000000000000000000000000000000016
:105A800000000000000000F00019F8001B180022C0
:105A900008002608002408002410003FF8001FF822
:105AA00000000800001800000004000007FFF80FC5
:105AB000FFF000181800100800200800200800302F
:105AC00018001FF0000FC00000000000000007C019
:105AD000001FF000183000200800200800200800F7
