:020000040800F2
:1000000090BD002035020008AB250008C71B000882
:10001000A92500089F090008CD3000080000000055
:10002000000000000000000000000000592B000844
:10003000A109000800000000AD2500085B2B0008A6
:100040004F0200084F0200084F0200084F0200084C
:100050004F0200084F0200084F0200084F0200083C
:100060004F0200084F0200084F0200084F0200082C
:100070004F0200084F0200084F0200084F0200081C
:100080004F0200084F0200084F0200084F0200080C
:100090004F0200084F0200084F0200084F020008FC
:1000A0004F0200084F0200084F0200084F020008EC
:1000B0004F0200084F020008C12B00084F02000841
:1000C0004F0200084F0200084F0200084F020008CC
:1000D0004F020008492F00084F0200084F02000895
:1000E0004F0200084F0200084F0200084F020008AC
:1000F0004F0200084F0200084F0200084F0200089C
:100100004F0200084F0200084F0200084F0200088B
:100110004F0200084F0200084F0200084F0200087B
:100120004F0200084F0200084F0200084F0200086B
:1001300000F002F800F06FF80AA090E8000C82448A
:100140008344AAF10107DA4501D100F064F8AFF267
:10015000090EBAE80F0013F0010F18BFFB1A43F0A5
:1001600001031847943D0300B43D03000A444FF0D7
:10017000000C10F8013B13F0070408BF10F8014B06
:100180001D1108BF10F8015B641E05D010F8016B4B
:10019000641E01F8016BF9D113F0080F1EBF10F8AF
:1001A000014BAD1C0C1B09D16D1E58BF01F801CBD2
:1001B000FAD505E014F8016B01F8016B6D1EF9D555
:1001C0009142D6D37047000000230024002500266A
:1001D000103A28BF78C1FBD8520728BF30C148BFAA
:1001E0000B607047642900F0F980752900F0F680F3
:1001F000782900F02F81632900F0FD82732900F037
:100200000283002070471FB59DE8030000F05AFAF2
:100210001FBD10B510BD00F04EFB1146FFF7F3FFF8
:1002200005F086FC00F06CFB03B4FFF7F2FF03BCA3
:1002300003F005F90948804709480047FEE7FEE753
:10024000FEE7FEE7FEE7FEE7FEE7FEE7FEE7FEE786
:1002500004480549054A064B70470000BD2B0008BD
:100260003101000890AB002090BD002090BB002021
:1002700090BB0020704770B5064600F007FA05688D
:1002800006F10B0020F00704B4429CBF002070BDB3
:100290002B466A68BAB11068A04210D304F1080175
:1002A00088423CBF5068586007D3516810194160BC
:1002B0001168091B016058601460101D70BD134661
:1002C0005268002AE7D12146284600F0E7F90028C5
:1002D000DED170BD70B50446051F00F0D7F9006887
:1002E000002C14BF446870BD002C18BFAC423CBF4A
:1002F00020466468F8D301680A18AA4218BF45600E
:1003000003D12A6805461144016028684119A142B9
:100310001CBF6C6070BD616869602168084428601A
:1003200070BD00000FB4044910B503AA029800F094
:100330006FFA10BC5DF814FB0800002070B504468D
:1003400085690068C10601D5302600E02026C00777
:1003500007D070BDD4E9012130469047206A401C87
:1003600020626D1EF6D570BD70B5044685690078B3
:10037000C00707D170BDD4E9012120209047206A31
:10038000401C20626D1EF6D570BD70B50C4605464A
:10039000012A05D02878800600D5EA69002302E00A
:1003A000012305E05B1C934202D2E05C0028F9D1F6
:1003B000A869E618C01AA861286A18442862284665
:1003C000FFF7BCFF04E0D5E9012114F8010B9047C9
:1003D000B442F8D32846FFF7C7FF70BD2DE9F041BE
:1003E0000646002410687529314616A510D0AFF3D3
:1003F0000080002802DA404213A507E031688A072E
:1004000001D512A502E0490704D511A5012401E098
:10041000AFF3008000210A2206F1240709E0B0FBB7
:10042000F2FCB0FBF2F302FB1C00303078541846AB
:10043000491C0028F3D123462A463046BDE8F04146
:1004400000F076B9000000002D0000002B00000035
:100450002000000070B504460D4621461068AFF339
:1004600000802188090502D50F4A7A4402E00E4A2D
:100470007A440E32002104F1240305E000F00F0657
:100480000009965D5E54491C0028F7D120780023AE
:10049000000704D5702D02D009B102231132204685
:1004A000BDE8704000F044B9B43603002DE9F05FB8
:1004B000894604464FF0000ADFF874B1FB44C0F8E7
:1004C00020A02046E1688847002874D0252806D05F
:1004D000D4E901219047206A401C2062F1E7002600
:1004E0005F462046E16888472028054607DB312D16
:1004F00005D2781910F8200C08B10643F1E7B007CF
:1005000001D526F00406C4F81CA00027C4F818A0E2
:100510002A2D09D0284602F08BFF38B304EB870858
:10052000303DC8F8185019E059F8041B204604EB78
:1005300087029161E1688847012F054618D1E0697B
:10054000002820DA26F020061DE0D8F8180000EB7D
:10055000800005EB40003038C8F818002046E168FC
:100560008847054602F064FF0028EED1012F0AD02B
:100570002E2D08D12046E16888477F1C0546022FB2
:1005800046F02006C4DBA069002803DA404246F0AA
:100590000106A061F00701D026F010066C2D0BD0EB
:1005A000682D09D04C2D39D06A2D35D0742D35D019
:1005B0007A2D33D016E038E0E1682F462046884790
:1005C000B842054609D16C2F26D04FF48060E1680F
:1005D000064320468847054604E06C2F1AD04FF4A6
:1005E000807006430DB3A5F14100192802D82035CB
:1005F00046F400664A462946204626604E46FFF7E6
:10060000F1FD80B101280BD0F61D26F0070000F1A6
:10061000080956E74020E4E78020D8E70020D6E725
:1006200006F104094DE7284652E7206ABDE8F09F2D
:100630008A3603004FF0000200B5134694469646F2
:10064000203922BFA0E80C50A0E80C50B1F12001E5
:10065000BFF4F7AF090728BFA0E80C5048BF0CC093
:100660005DF804EB890028BF40F8042B08BF7047F1
:1006700048BF20F8022B11F0804F18BF00F8012B63
:1006800070477047704770477047000000487047D8
:1006900034AB0020704770477047704738B5044648
:1006A0000A4600206946AFF30080002808BF38BD25
:1006B00002460099204600F0C1F8012038BD012013
:1006C00000F0F2B8F8B5AFF30080054600200C4604
:1006D000102000BF0646A819A0420DD9324669462F
:1006E0000020AFF30080070008BF00F0DDF800989D
:1006F000A04218BF0546C419FFF7C8FF05600746AA
:10070000F01D20F007004619284600F00AF8B44210
:1007100008BFF8BDA21B31463868BDE8F84000F0BC
:100720008DB800210160C0E90110704710207047AA
:100730002DE9F0470D4699469246044600F12408FB
:100740000168880604D5E06921F01001216000E00D
:100750000120A84201DD471B00E00027A1697A19AA
:1007600002EB0900081AA0612078C00602D42046D6
:10077000FFF7E4FD002608E0D4E901211AF806009D
:100780009047206A401C761C20624E45F4DB20789E
:10079000C0060AD52046FFF7D1FD06E0D4E90121C5
:1007A00030209047206A401C2062381EA7F10107C4
:1007B000F4DC07E0D4E9012118F805009047206A2D
:1007C000401C2062281EA5F10105F3DC2046FFF73E
:1007D000CBFD2078000602D50220BDE8F08701207D
:1007E000FBE710B5436913B1AFF3008001E0FFF7F9
:1007F000CCFD012010BD127800F124010A70002206
:100800004A700122EDE711684FF0FF32E9E700007E
:10081000074B70B50D467B4400F02FF80446284680
:1008200000F03EF810B14FF0FF3070BD204670BDB3
:100830008F500000004870472CAB002003464068F2
:100840008C46002818BF88423CBF03464068F8D356
:1008500018681844884207D00CF1030020F0070004
:10086000001D411A521A0146081D0A60FFF732BDE9
:1008700001694A1C02610878704700B58FB0CDE964
:1008800001310021059105497944CDE90310114654
:100890006846FFF70BFE0FB000BD0000E5FFFFFF4D
:1008A000007B00F08000704710B500F037F8BDE81D
:1008B000104000F02EB87546FFF7BCFFAE460500AD
:1008C0006946534620F00700854618B020B5FFF76B
:1008D000BFFCBDE820404FF000064FF000074FF08E
:1008E00000084FF0000B21F00701AC46ACE8C0094E
:1008F000ACE8C009ACE8C009ACE8C0098D46704757
:1009000010B50446AFF300802046BDE81040FFF765
:100910008BBC002801D002F092BD704710B50128B1
:1009200005D0002103A000F021F8012010BD09A18D
:10093000F8E7000053494752544D454D3A204F7552
:1009400074206F662068656170206D656D6F7279C7
:10095000000000003A2048656170206D656D6F727F
:100960007920636F727275707465640070B50546A6
:100970000C460A2000E06D1C02F062FD35B12878BB
:100980000028F8D102E0641C02F05AFD14B120786E
:100990000028F8D1BDE870400A2002F051BDFEE702
:1009A000704772B6FEE70022AFF3008030B50E4B01
:1009B000054601209C7B022C15D8987B00241C54F2
:1009C000987B03EB800045609D7B03F10C002A546B
:1009D000987B421C9A73303008703A2048702F2060
:1009E0008870CC70002030BD1CAB002010B590F892
:1009F00021100022022905D00421816380F82020E3
:100A0000012010BD01680B6823F00E030B60016824
:100A10000B6823F001030B6090F84030C46B012198
:100A200001FA03F3636080F8211080F8202010465B
:100A300010BD00002DE9F05F90F82110002402297C
:100A400003D004218163012485E001680A6822F053
:100A50000E020A6001680A6822F001020A603F4E35
:100A60003E4FB215DFF8F4C0DFF8F090DFF8ECA0ED
:100A7000DFF8E8B0DFF8E4E00168783F1301150221
:100A8000ACF1640CA9F15009AAF13C0AABF1280BB6
:100A9000AEF1140E4FF48018B14227D9B9420ED0EE
:100AA000614512D049451DD0514518D0594518D03F
:100AB000714501D1424615E0294EB14201D10122D2
:100AC00010E0274E1436B14201D110220AE0244E24
:100AD0002836B14206D0224A3C32914201D11A4610
:100AE00000E02A461E49091F0A602BE0B94213D0D4
:100AF000614517D0494522D051451DD059451DD0DB
:100B0000714501D142461AE0B14202D14FF08072E4
:100B100015E0134EB14201D1012210E0104E1436FF
:100B2000B14201D110220AE00D4E2836B14206D062
:100B30000B4A3C32914201D11A4600E02A4607494D
:100B400080394A60012180F82110002180F82010AE
:100B5000416B01B188472046BDE8F09F800002400C
:100B60000804024070B5044600F010F90546601C08
:100B700002D004480078044400F008F9401BA04269
:100B8000FAD370BD200200202DE9F84FDFF8C8919C
:100B9000002409F1040A0AF1040B23460F270BF184
:100BA000040ED1E00125A54006EA0502AA4276D14D
:100BB000DFF8A8C14E68A6EB0C0866452BD00DDC0B
:100BC000032E34D005DC36B3012E19D0022E2FD1DE
:100BD0001BE0112E16D0122E2AD119E0B8F5881F6D
:100BE00019D006DCB8F5803F15D0B8F5801F1FD1AD
:100BF00011E0B8F5001F0ED0B8F5041F18D10AE0B7
:100C0000CB6815E0CB681B1D12E0CB6808330FE002
:100C1000CB680C330CE08B682BB1012B4FF0080331
:100C200003D0456104E0042302E0056100E00023F5
:100C3000FF2A01D8064601E000F104064FEA8405C8
:100C400001D9A5F12005D6F8008007FA05FC28EAAD
:100C50000C0803FA05F548EA0508C6F800804D6857
:100C6000ED0070D53E4DAE6946F00106AE61AD694E
:100C700024F0030605F0010500953A4D06EB050C3E
:100C8000DCF80850A607360F07FA06F825EA08052B
:100C9000DFF8D480404503D14FF0000825E052E052
:100CA000DFF8C880404502D14FF001081DE0DFF8B1
:100CB000C080404502D14FF0020816E0DFF8B48052
:100CC000404502D14FF003080FE0DFF8AC8040450B
:100CD00002D14FF0040808E0DFF8A080404502D1BF
:100CE0004FF0050801E04FF0060808FA06F848EA58
:100CF0000508CCF808804D68D9F80060ED034D4632
:100D000001D5164300E096432E604D68DAF8006086
:100D1000AD03554601D5164300E096432E604D685D
:100D2000DBF80060ED025D4601D5164300E0964316
:100D30002E604D68DEF80060AD02754601D51643A1
:100D400000E096432E60641C0A681646E2407FF479
:100D500029AFBDE8F88F0000000401400000111029
:100D6000001002400000014000080140000C01405A
:100D7000001001400014014000180140001C014017
:100D80000AB1016170470904FBE70000014880686F
:100D90007047000020020020024881680278114458
:100DA0008160704720020020074810B5016841F0BB
:100DB00010010160032000F075F80F2000F006F824
:100DC00000F024F8002010BD0020024070B50D4D49
:100DD00004464FF47A712878B1FBF0F00A490968AB
:100DE000B1FBF0F000F06FFC48B9102C07D20022E4
:100DF0002146501E00F036F800206C6070BD0120C6
:100E000070BD0000200200202C0200200C4808B514
:100E1000816941F001018161816901F00101009165
:100E2000C16941F08051C161C06900F080500090FB
:100E30000448416821F0E06141F00071416008BD63
:100E40000010024000000140002809DB00F01F02F2
:100E5000012191404009800000F1E020C0F800111C
:100E600070470000F0B40E4B1B680C46C3F302231E
:100E7000C3F10705042D00D90425191D072901D246
:100E8000002300E0DB1E012606FA05F1491E214081
:100E900099409E40761E16403143F0BC02F0B8BA2D
:100EA0000CED00E0064900F0070208684FF6FF036A
:100EB000184040EA0220034A1043086070470000CF
:100EC0000CED00E00000FA052DE9F0470F460500A3
:100ED00061D0434E306800F00700B84209D2306854
:100EE00020F0070038433060306800F00700B84257
:100EF00051D128683B4C810712D5400703D5606863
:100F000040F4E06060602878000703D5606840F432
:100F1000605060606068A96820F0F000084360607D
:100F20002878C00728D06868012810D021680228D6
:100F300010D0890700292EDA616821F003010143EE
:100F40006160FFF723FF804641F288390DE0216898
:100F50008903EFE78901EDE7FFF718FFA0EB080130
:100F6000494502D90320BDE8F0876068696800F050
:100F70000C00B0EB810FEFD1306800F00700B842F1
:100F80000BD9306820F0070038433060306800F03B
:100F90000700B84201D00120E5E72878400705D5D1
:100FA0006068E96820F4E060084360602878000722
:100FB00006D56068296920F4605040EAC10060608D
:100FC00000F038F86168084AC1F30311515CC84069
:100FD0000649086006480068FFF7F8FE0020C2E7EF
:100FE0000020024000100240088E00082C02002061
:100FF000240200200448054900684968044AC1F3F6
:101000000221515CC84070472C02002000100240B1
:10101000188E00080448054900684968044AC1F36D
:10102000C221515CC84070472C02002000100240D1
:10103000188E000812A185B00FC98DE80F0014A00A
:10104000144A006804905168134801F00C03042B03
:1010500010D0082B0ED1C1F38343C9031DF8030040
:101060000AD5516804AAC1F34041515C0A4A504371
:10107000B0FBF1F005B0704708494843FAE70000BB
:1010800002030405060708090A0B0C0D0E0F1010C9
:10109000010200000010024000127A0000093D0029
:1010A0002DE9F84F040070D02078C04DC00749D01A
:1010B0006868C0F38100012807D06868C0F3810028
:1010C000022809D16868C00306D52868800339D58D
:1010D00060680028E7D035E06068B0F5803F0BD04D
:1010E00010B1B0F5A02F11D0286820F4803028600E
:1010F000286820F4802002E0286840F480302860CE
:10110000606890B1FFF742FE06460AE0286840F4A6
:1011100080202860F0E700BFFFF738FE801B6428BE
:1011200073D828688003F7D50CE0FFF72FFE06463A
:1011300005E000BFFFF72AFE801B6428F0D828686E
:101140008003F7D420789A4E80074FF001094FF0C2
:10115000000839D5686810F00C0F07D06868C0F334
:101160008100022809D16868C00306D42868800776
:1011700014D52069012808D110E02069B0B1C6F863
:101180000090FFF703FE074605E00AE1FFF7FEFDCA
:10119000C01B0228C4D828688007F7D52868616971
:1011A00020F0F80040EAC10028600DE0C6F8008099
:1011B000FFF7ECFD074604E0FFF7E8FDC01B02283F
:1011C00023D828688007F7D4207800072CD57948E1
:1011D000A169D9B1C0F80090FFF7D8FD074604E037
:1011E000FFF7D4FDC01B02280FD8686A8007F7D527
:1011F00071484FF4FA510068B0FBF1F0009000BF65
:101200000098411E0091FAD20EE080E0C0F8008004
:10121000FFF7BCFD074604E0FFF7B8FDC01B02283E
:1012200075D8686A8007F7D42078400760D5E869E8
:101230000027C00008D4E86940F08050E861E86900
:10124000012700F0805000905C480168C90513D464
:101250000168834641F480710160FFF797FD824683
:1012600006E000BFFFF792FDA0EB0A0064284ED80D
:10127000DBF80000C005F5D5E06801280AD008B108
:10128000052813D0286A20F001002862286A20F07F
:10129000040002E0286A40F001002862E06841F2A0
:1012A000883B98B1FFF772FD82460BE0286A40F058
:1012B00004002862EEE700BFFFF768FDA0EB0A011B
:1012C00059455AD8286A8007F6D50CE0FFF75EFD2D
:1012D000824605E0FFF75AFDA0EB0A0159454CD8BC
:1012E000286A8007F6D41FB1E86920F08050E861D1
:1012F000E06988B36968C1F38101022944D00228FA
:10130000C6F8608004D0FFF741FD044638E034E0C1
:10131000FFF73CFD074604E0FFF738FDC01B02283D
:101320002BD828688001F7D4206AB0F5803F05D11A
:101330006868A16820F4003008436860D4E90801B7
:101340000843696821F4741108436860C6F8609026
:10135000FFF71CFD044606E025E000BFFFF716FD81
:10136000001B022809D828688001F7D51BE000BFC0
:10137000FFF70CFD001B022802D90320BDE8F88FFF
:1013800028688001F4D40EE00128F7D06868226A4A
:1013900000F48031914204D1616A00F470108842F7
:1013A00001D00120EAE70020E8E700000010024039
:1013B00000004242800442422C02002000700040A3
:1013C00070B5040009D0606A002540B125616561EF
:1013D000A56294F8510040B10CE0012070BD606836
:1013E000B0F5827FF4D0E561F2E784F850502046F2
:1013F00000F040F8022084F851002068016821F0D4
:1014000040010160A088218900F4827001F4044148
:101410000843A18901F400610843217C01F0020125
:101420000843217D01F001010843218B01F4007183
:101430000843217F01F03801084394F8201001F09F
:1014400080010843218D01F40051084321680860A0
:10145000A069042101EA1040216848602068C16940
:1014600021F40061C1616565012084F8510000200C
:1014700070BD000030B585B0002400940194029442
:10148000039400681449884223D11448816941F4C7
:1014900080518161816901F480510491816941F039
:1014A0000401816180690E4D00F004000490A020C9
:1014B0000090022001900320039069462846FFF720
:1014C00063FB4020CDE90004694628460294FFF7FB
:1014D0005BFB05B030BD0000003001400010024051
:1014E000000801402DE9F84F044690F8500000270D
:1014F0000A9E1D4692468B464FF0010901280ED0E8
:10150000012084F85000FFF741FC804694F8510018
:10151000616801280CD0B1F5827F07D102E002207A
:10152000BDE8F88FA16809B9042801D00227C2E0FC
:10153000BBF1000F27D0BAF1000F24D01DB394F8EF
:101540005100042802D0052084F851000020606575
:10155000C4F838A0E587A587C4F830B0E586A5862D
:101560002064606420680168490603D4016841F082
:1015700040010160E068B0F5006F606805D0E8B335
:10158000012D46D07FE0012795E008B1012D39D12A
:10159000206B21680088C860206B801C2063E08E6F
:1015A000401EE0862EE02068816889070FD5E18E15
:1015B00069B1B9F1010F0AD1216B0988C160206BB3
:1015C000801C2063E08E401EE0864FF000092068FA
:1015D0008168C9070CD0E18F51B1C068A16B088048
:1015E000A06B801CA063E08F401EE0874FF00109D4
:1015F000FFF7CCFBA0EB0800B04200E009E001D30C
:10160000701C50D1E08E0028CDD1E08F0028CAD1C7
:101610003FE0206B216800780873206B401C20633A
:10162000E08E401EE0862EE02068816889070FD595
:10163000E18E69B1B9F1010F0AD1216B097801730B
:10164000206B401C2063E08E401EE0864FF00009B6
:1016500020688168C9070CD0E18F51B1C068A16BC7
:101660000870A06B401CA063E08F401EE0874FF025
:101670000109FFF78BFBA0EB0800B04202D3701CFE
:1016800001D010E07EB1E08E0028CDD1E08F00289F
:10169000CAD142463146204601F0F2F928B101276D
:1016A0002020606507E0032705E0A06818B92068DE
:1016B000C16880680090012084F85100002084F8FF
:1016C000500038462CE710B5401EB0F1807F01D3A2
:1016D000012010BD4FF0E02460610F21601701F080
:1016E00097FE0020A06107202061002010BD0000AF
:1016F00070B590F83C20012A2CD0012480F83C40A1
:10170000022280F83D2003685A689D6822F0700626
:101710000A6832435A60104B02689A420ED00F4B4F
:101720009A420BD0B2F1804F08D00D4B9A4205D0AF
:101730000C4B9A4202D00C4B9A4204D1496825F0D6
:1017400080031943916080F83D40002180F83C10EF
:10175000084670BD022070BD002C014000340140DD
:101760000004004000080040000C004010B50400D8
:1017700003D094F83D0010B107E0012010BD002017
:1017800084F83C00204600F01FF8022084F83D0059
:10179000211D206801F02EFA012084F8460084F80B
:1017A0003E0084F83F0084F8400084F8410084F84B
:1017B000420084F8430084F8440084F8450084F82B
:1017C0003D00002010BD000008B5006806498842B1
:1017D00008D10648C16941F00401C161C06900F047
:1017E0000400009008BD0000000800400010024006
:1017F00090F83D10012901D001207047022180F8A6
:101800003D100168CA6842F00102CA6000680E49D2
:1018100088420ED00D4988420BD0B0F1804F08D0DD
:101820000B49884205D00B49884202D00A498842B8
:1018300004D1816801F00701062903D0016841F055
:101840000101016000207047002C0140003401407C
:101850000004004000080040000C004070B5044641
:1018600090F83C00012812D0012584F83C50022059
:1018700084F83D00204601F00DFA01004FF0000011
:1018800007D084F83D5084F83C00012070BD022050
:1018900070BD2168CA6822F04002CA602168CA6827
:1018A00022F48042CA6084F83D5084F83C00002055
:1018B00070BD704770470000F8B5026804461068B4
:1018C000D168536910F00F0F4FF0000554D003F0AA
:1018D000010601F4907737435FD0C20705D0CA05EF
:1018E00003D5226C42F001022264420705D5DA07D3
:1018F00003D0226C42F002022264820705D5DA0787
:1019000003D0226C42F004022264020707D501F0E2
:101910002002324303D0226C42F008022264226C7F
:10192000002A35D0800604D5880602D5204601F06D
:1019300037FA20684069216CC0F3801001F008017B
:101940000143204625D001F013FA20684169490679
:101950001BD5416921F040014161A06BA8B15849F4
:101960004163A06BFFF766F8002811D0A06B416BB4
:1019700001B0BDE8F040084783060ED58B060CD5B4
:101980002046BDE8F84001F00BBA2046FFF792FF71
:10199000F8BDFFF78FFF2564F8BD266B2023012ECD
:1019A00052D1C60650D5CE064ED51068506800906C
:1019B000506940062AD5A16B086840680004000CF5
:1019C000EAD0A68D8642E7D9E0858869202818D01C
:1019D000D06820F48070D0602068416921F0010156
:1019E00041612068416921F04001416184F83E3045
:1019F00025632068C16821F01001C160A06BFEF76B
:101A0000F5FFA08DE18D401A81B219E0A08DE18D26
:101A1000401A81B2E08D0028BED00029BCD0D06829
:101A200020F49070D0602068426922F00102426187
:101A300084F83E3025632068C26822F01002C2603C
:101A40002046FFF736FFF8BD05062BD50D0629D534
:101A500094F83D002128F6D1A068B0F5805F01D14F
:101A60002069B0B1206A411C216221680078486079
:101A7000E08C401E0004000CE084E4D12068C168C2
:101A800021F08001C1602068C16841F04001C1605F
:101A9000F8BD206A0088C0F308005060206A801CEE
:101AA0002062E5E74006F3D54806F1D5D168204627
:101AB00021F04001D16084F83D3000F083F8F8BD9A
:101AC000612D000870B5040004D094F83D00002595
:101AD00010B106E0012070BD84F83C50204600F0B3
:101AE00023F8242084F83D002068C16821F40051C7
:101AF000C160204601F0B0F92068016921F49041ED
:101B000001612068416921F02A0141612068C168B2
:101B100041F40051C1602564202084F83D0084F820
:101B20003E00002070BD000030B585B00024009458
:101B300001940294039400681449884224D1144803
:101B4000816941F480418161816901F4804104919E
:101B5000816941F00401816180690E4D00F004004B
:101B600004904FF400700090022001900320039035
:101B700069462846FFF708F82815CDE900046946AC
:101B800028460294FFF700F805B030BD0038014048
:101B9000001002400008014090F83E30202B0ED18A
:101BA00059B152B190F83C30012B08D0012380F894
:101BB0003C300023036301F0ABB9012070470220E1
:101BC000704770477047FEE7F0B50F49064600249E
:101BD00008884D8821464543204600F077FA00F0FA
:101BE000ABFB0A494FF480774A15DFF824C0802305
:101BF00007E00F614A61CCF800604B610B610A613C
:101C0000641CAC42F5D3F0BD5C0200200010014022
:101C10000C0C014070B40C49F0222C242A254FF4FE
:101C2000A0732B2650B1012088710B804A800C8153
:101C30004D818E8170BC002000F026BA0020887192
:101C40000A804B80F3E700005C0200202DE9F74F8B
:101C5000DFF8909082468B46B9F80A0000F05AFBF4
:101C6000214C4FF48077276165156561DFF87C8032
:101C70004FEA1A21C8F800108026666126612561A6
:101C8000276165610AF0FF01C8F8001066612661EE
:101C90002561B9F80C0000F03DFB276165614FEA52
:101CA0001B21C8F800106661266125612761656106
:101CB0000BF0FF01C8F800106661266125616761BD
:101CC0006561B9F80810C8F80010666126612561E1
:101CD000276165610298C8F8000066612661256188
:101CE000BDE8FE8F5C020020001001400C0C01409A
:101CF0002DE9FF4F1F4600980C46101A401C86B273
:101D00004FF48078124D4FF4007A4FF0800BDDF8DD
:101D1000349019E02146009800F0D8F900F00CFB4F
:101D2000002051460B4B5A460AE000BFC5F8108010
:101D30006961C3F800906A612A612961401C80B220
:101D4000B042F3D3641CA4B2BC42E3D9BDE8FF8F18
:101D5000001001400C0C014070B5AA48416821F008
:101D6000E06141F0806141603220FEF7FBFE01211D
:101D7000002000F0E7FA3220FEF7F4FE002000F029
:101D80007BF9A14C4FF6FF75FF28A08004D3A84231
:101D900002D0B0F5134F10D1D32000F0BBFA00F001
:101DA00047F900F045F900F043F905EA0020A0806A
:101DB00000F03EF9A1880843A08081B293A0FEF70D
:101DC000B1FACF2000F0A6FA002000F091FAC1206D
:101DD00000F08EFA302000F08BFAED2000F09AFA35
:101DE000642000F085FA032000F082FA122000F04F
:101DF0007FFA812000F07CFAE82000F08BFA852041
:101E000000F076FA102000F073FA7A2000F070FAF1
:101E1000CB2000F07FFA392000F06AFA2C2000F085
:101E200067FA002000F064FA342000F061FA022022
:101E300000F05EFAF72000F06DFA202000F058FA6A
:101E4000EA2000F067FA002000F052FA002000F0CB
:101E50004FFAC02000F05EFA1B2000F049FAC120C2
:101E600000F058FA012000F043FAC52000F052FAC1
:101E7000302000F03DFA302000F03AFAC72000F0A0
:101E800049FAB72000F034FA362000F043FA48202F
:101E900000F02EFA3A2000F03DFA552000F028FA22
:101EA000B12000F037FA002000F022FA1A2000F0EA
:101EB0001FFAB62000F02EFA0A2000F019FAA2202C
:101EC00000F016FAF22000F025FA002000F010FAD7
:101ED000262000F01FFA012000F00AFAE02000F0AE
:101EE00019FA0F2000F004FA2A2000F001FA282045
:101EF00000F0FEF9082000F0FBF90E2000F0F8F9E0
:101F0000082000F0F5F9542000F0F2F9A92000F0C3
:101F1000EFF9432000F0ECF90A2000F0E9F90F2076
:101F200000F0E6F9002000F0E3F9002000F0E0F90D
:101F3000002000F0DDF9002000F0DAF9E12000F0E7
:101F4000E9F9002000F0D4F9152000F0D1F91720AC
:101F500000F0CEF9072000F0CBF9112000F0C8F90D
:101F6000062000F0C5F92B2000F0C2F9562000F041
:101F7000BFF93C2000F0BCF9052000F0B9F91020B1
:101F800000F0B6F90F2000F0B3F93F2000F0B0F9EF
:101F90003F2000F0ADF90F2000F0AAF92B2000F04F
:101FA000B9F9002000F0A4F9002000F0A1F9012007
:101FB00000F09EF93F2000F09BF92A2000F0AAF9DA
:101FC000002000F095F9002000F092F9002000F0C8
:101FD0008FF9EF2000F08CF9112000F09BF97820A8
:101FE000FEF7C0FD292000F095F90020FFF712FE52
:101FF0000A490120C1F8A8012846BDE87040FFF752
:10200000E3BD0000000001405C020020204C43447E
:102010002049443A25780D0A0000000000002242C1
:102020000246012000E05043491EC9B2FBD270476E
:1020300070B50F4A4FF088301060131D18600C4CBB
:1020400000200C3420600B499015086145004D615B
:1020500040264E61181D00680E6180B20D614FF080
:102060003331116019604FF6FF71216070BD0000BF
:10207000000C01400010014000B500F04BF95DF884
:1020800004EBFFF7D5BF00000F4A00219279012A27
:1020900019D0082812D2DFE800F0110406080A0C53
:1020A0000E1080210AE0402108E0C02106E0202136
:1020B00004E0602102E0A02100E0E021362041F0B0
:1020C000080100F03FB970475C0200202DE9F04F95
:1020D000DFF870B082468946BBF80A0000F01AF9B2
:1020E000194C4FF48077276165156561DFF85C80D6
:1020F0004FEA1A21C8F80010802666612661256122
:10210000276165610AF0FF01C8F800106661266169
:102110002561BBF80C0000F0FDF8276165614FEA0E
:102120001921C8F800106661266125612761656183
:1021300009F0FF01C8F80010666126612561BDE85D
:10214000F08F00005C020020001001400C0C0140E8
:102150002DE9FF4F1D460C468A46580700D0012046
:1021600000EBD50069084843203A00F0FF09D0B2DF
:102170000026DFF89CB0029045E00C2D12D0102D07
:1021800015D0182D41D10298224900EBC00000BFA4
:1021900001EB80004FF00008875D38060CD51E4823
:1021A00002880DE002981D4900EB4000F0E71C4951
:1021B000029801EB0010EDE70D9828B91648428807
:1021C00021460098FFF742FD7806070E641CBBF815
:1021D0000200A4B2A04218D9A4EB0A00A84209D177
:1021E00000985446401C80B20090BBF80010814219
:1021F0000BD906E008F1010000F0FF08B8F1080F64
:10220000CBD3761CF6B24E45B7D3BDE8FF8F0000A6
:102210005C020020AC800008000000204876000826
:10222000BC7A00082DE9FF4F81B00026DDF838A008
:102230001D46934681463446B0464FEA5A0727E08A
:10224000281B401EC1B20A20FFF7EAFEBBFBF0F0DC
:102250000A21B0FBF1F201FB120026B9691E8C4283
:1022600001DA48B101263030C2B207FB049080B2D7
:102270005346CDF8008006E007FB049080B2534639
:102280002022CDF800800299FFF762FF641CE4B2BF
:10229000AC42D5D305B0BDE8F08F2DE9F84F044628
:1022A00000F0FF0910190D46DDE90AB61FFA80F8A3
:1022B000581987B24FF0000A12E0444503D305EBEA
:1022C0000B004C4685B2BD420FD25B4629462046E4
:1022D000CDF800A0FFF73CFF04EB5B0084B2761C56
:1022E0003278A2F120005E28E7D9BDE8F88F00001F
:1022F00006494FF480720A614A154A61044B18601E
:102300008020486108610A617047000000100140A8
:102310000C0C014006494FF480724A614A154A612B
:10232000044B18608020486108610A617047000012
:10233000001001400C0C014001480089FFF7EABF82
:102340005C02002010B50C46FFF7E4FF06484FF48E
:102350008071016141154161044A1460802242612B
:102360000261016110BD0000001001400C0C014031
:1023700010B504490448FEF716FB0249491E0870CF
:1023800010BD000049020020340200202DE9F04F6A
:1023900085B0002545480095019502950395816912
:1023A00041F010018161816901F01001049181699E
:1023B00041F020018161816901F02001049181696E
:1023C00041F004018161816901F004010491816996
:1023D00041F0080181618069DFF8D49000F00800C5
:1023E0004FF48E760490002231464846FEF7C8FC32
:1023F000DFF8C08000224FF6FF614046FEF7C0FCC8
:10240000DFF8B4A04FF4F867002239465046FEF7D3
:10241000B7FCDFF8A8B0012204215846FEF7B0FC53
:10242000012211024046FEF7ABFC01240220009479
:10243000CDE9015069464846FEF7A6FBCDE90064A8
:102440000326CDE9024669464846FEF79DFB20205B
:10245000CDE90005694602945046FEF795FB4FF61C
:10246000FF70CDE90004CDE9024669464046FEF71B
:102470008BFBCDE90074CDE9024669465046FEF774
:1024800083FBE003CDE90005694602944846FEF768
:102490007BFB0420CDE90004CDE90246694658469D
:1024A000FEF772FB05B0BDE8F08F0000001002409F
:1024B00000080140000C01400010014000140140E0
:1024C000104810B50E4901604FF48271416000213F
:1024D00002228160C0E9031201224261520282613C
:1024E0000822C0E90721416281620A21C162FEF728
:1024F00067FF002803D0BDE81040FEF752BA10BDB8
:102500000030014038AA002010B588B01421684678
:10251000FEF790F8002415480594134906940160CD
:1025200042F2CF01C0E901144FF47A71C0E90314FB
:102530008461FFF71BF908B1FEF733FA009469468E
:102540000A480194FFF78AF908B1FEF72AFA0594C0
:1025500005A906480694FFF7CBF8002801D0FEF73E
:1025600020FA08B010BD00000008004090AA00202A
:102570000C4810B50A4901604FF4E1314160002177
:1025800081600C22C160C0E904128161C161FFF762
:1025900099FA002803D0BDE81040FEF702BA10BD3A
:1025A00000380140D8AA0020FEE7FEE7704700008F
:1025B00010B5012208210448FEF7E2FBBDE81040F7
:1025C000FF2000F033BA00000008014070B5054656
:1025D00001220021092000F0A9F9040004D11021F2
:1025E000284600F035F90446FFF7E2FF0CB1012060
:1025F00070BD002070BD70B505464FF6FF7401E058
:10260000641EA4B2FF2000F057F9A84202D0002CAB
:10261000F6D102E00CB1002070BDFF2070BD1FB5E7
:102620006846FFF7D3FF10B1002004B010BD9DF83D
:1026300000100120B0EB911F09D19DF808209DF8F2
:10264000091000EB0220084400048009EDE79DF822
:1026500005009DF80A1000F00F0000EBD1109DF866
:1026600009109DF8072001F0030100EB41019DF8DE
:102670000800800900EB82009DF8062002F00302AA
:1026800000EB8220401CC91F8840CEE72DE9F843AB
:1026900000F0F8F8382000F0D9F90024FF2000F00D
:1026A000C5F9641CA4B20A2CF8D314240021952285
:1026B000084600F03BF90546012802D0641EA4B28A
:1026C000F4D2474E0027012D37707AD187224FF47C
:1026D000D571082000F02AF94FF6FE7801281ED0A7
:1026E00001220021372000F021F9012200212920B8
:1026F00000F01CF901284FD8022030704446012216
:102700000021372000F012F901220021292000F0D9
:102710000DF905004DD0641EA4B2F0D249E00024AA
:102720006F46FF2000F0C8F83855641CA4B2042C92
:10273000F7D39DF80200012843D19DF80300AA2891
:102740003FD144464FF0804801220021372000F05D
:10275000EDF801224146292000F0E8F8050002D0FA
:10276000641EA4B2F0D2B4B1012200213A2000F0DC
:10277000DDF880B90024FF2000F09EF83855641C75
:10278000A4B2042CF7D39DF80000400601D5062022
:1027900000E00420307014E0012030704446012233
:1027A0000021104600F0C2F8050002D0641EA4B259
:1027B000F5D22CB101225102102000F0B7F800B17F
:1027C0003770FFF7F5FE002000F040F9307810B1C7
:1027D0000020BDE8F8830DB12846FAE7AA20F8E703
:1027E000000200202DE9F041064618481546007801
:1027F000062800D049024FF40077012D4FF0010266
:1028000019D0122000F092F83946304600F020F836
:102810006D1E044606F5007615F0FF0501D0002C6C
:10282000F2D0012200210C2000F080F8FFF7C0FE5A
:102830002046BDE8F081112000F078F80400F5D1C1
:102840003946304600F004F80446EFE70002002065
:1028500070B504460D46FE20FFF7CDFE30B10120D5
:1028600070BD00BF00F0E2F804F8010B6D1EADB2C0
:102870004FF0FF00F6D200F0D9F8FF2000F0D6F8B4
:10288000002070BD10B50B4C012204212046FEF73C
:1028900077FA012208212046FEF772FA0122102160
:1028A0002046FEF76DFA20460122BDE810400821BF
:1028B000FEF766BA0008014000F0B8B810B5002273
:1028C00008210548FEF75CFA00F05FF8002802D006
:1028D000FFF76EFE012010BD0008014070B50C46E8
:1028E000054600F052F808B1012070BD204600F006
:1028F0009DF8FD2C18D000244FF40076285D00F0E0
:1029000095F8641CA4B2B442F8D3FF2000F08EF80E
:10291000FF2000F08BF8FF20FFF7CEFF00F01F0034
:10292000052801D0022070BD002070BD70B515468D
:102930000C460646FFF73CFEFFF7C0FF08B1FF203C
:1029400070BD46F0400000F071F8200E00F06EF807
:10295000C4F3074000F06AF8C4F3072000F066F8FB
:10296000E0B200F063F8284600F060F80C2E02D1C7
:10297000FF2000F05BF81F24FF20FFF79DFF0106FA
:10298000DED5641EE4B2F7D270BD70B500246FF0DE
:102990007F45FF20FFF790FFFF2804D0641CAC4266
:1029A000F7D3012070BD002070BD000070B5064651
:1029B0001D4815460C460078062800D04C02012D13
:1029C00013D0012809D0012200213720FFF7AEFFE4
:1029D000012229461720FFF7A9FF012221461920CD
:1029E000FFF7A4FF04000AD01AE0012221461820B4
:1029F000FFF79CFF040013D1FE2130460DE0FC21BF
:102A00003046FFF76BFF6D1E06F5007615F0FF05EB
:102A100001D00028F3D0FD210020FFF75FFF04461E
:102A2000FFF7C6FD204670BD0002002001B582B050
:102A30004FF47A700090012301AA02A90248FEF720
:102A400051FD9DF804000EBD38AA00200B4910B5B9
:102A50000A68136823F0400313600A6813684FF68E
:102A6000C774234013600A6813680343136008683F
:102A7000016841F04001016010BD000038AA00204B
:102A800038B50B46009204460022802100F008F879
:102A9000002804D0606D40F020006065032038BD40
:102AA0002DE9F8431E46914688460446089DFEF7E8
:102AB0006DF9401B351AFEF769F90746254800688D
:102AC000C0F3CB30684338E0701C37D0FEF75EF9B6
:102AD000C01BA84203D215B1009860B32CE0206857
:102AE000416821F0E00141606068B0F5827F0BD160
:102AF000A068B0F5004F02D0B0F5806F04D1206817
:102B0000016821F040010160A06AB0F5005F09D1C1
:102B10002068016821F4005101602068016841F4D7
:102B200000510160012084F85100002084F8500019
:102B30000320BDE8F8830025401E009020688168CE
:102B400038EA010004D000214945BDD10020F0E75A
:102B50000121F9E72C0200207047FEF71DB930B5BE
:102B60008FB028216846FDF765FD14210AA8FDF7FE
:102B700061FD01210804CDE9001000240294022522
:102B80000491CDE907504FF4E01009906846FEF734
:102B900087FA08B172B6FEE70F20CDE90A054FF4B7
:102BA0008060CDE90C4002210AA80E94FEF78CF952
:102BB000002801D072B6FEE70FB030BD70470000AC
:102BC00010B50A4C2068C068C043C00709D1084846
:102BD0000069804721680020486221686420C8623B
:102BE000E06021686FF00100086110BD90AA00202C
:102BF000F4000020F0B502681C4B1D4D1D4E1E4F09
:102C00001E4C4FF0804C984209D0A04207D060453E
:102C100005D0A84203D0B04201D0B84204D122F07E
:102C2000700E4A6842EA0E02984209D0A04207D0CC
:102C3000604505D0A84203D0B04201D0B84203D1CC
:102C400022F44075CA682A434D6922F080022A4363
:102C500002608A68C2620A688262984201D0A04219
:102C600001D10969016301214161F0BD002C0140DE
:102C70000004004000080040000C00400034014007
:102C800010B5846842EA032224F47F440A432243B5
:102C9000826010BD10B503689A6822F070044A681B
:102CA000224322F007040A6822439A604A6812F01D
:102CB0000F0F30D11211082A2DD2DFE802F02C2C90
:102CC0002C2C0B2127040B69D1E902210068FFF7A6
:102CD000D7FF20E00A68052A10D00268136A146A38
:102CE00024F00104146202689469096924F0F00474
:102CF00044EA01119161006803620CE0012010BDFB
:102D00000A698968006800F008F804E00A698968BF
:102D1000006800F013F8002010BD10B5036A046AC3
:102D200024F001040462846924F0F00444EA0214EB
:102D300023F00A020A438461026210BD10B5036ADF
:102D400023F0100303628369046A23F4704343EAA7
:102D5000023224F0A00343EA01118261016210BD36
:102D600010B5406A0021C185C184FEF7A3FD10BDE6
:102D70000168CA6822F49072CA6001684A6922F048
:102D800001024A61016B012904D10168CA6822F07D
:102D90001002CA60202180F83E10002101637047B4
:102DA00008B590F83E10222901D0022008BD8268A3
:102DB0004FF480539A4201D1016921B1816A9A424C
:102DC0001BD04AB10AE00268816A5268C2F3080265
:102DD0000A80816A891C08E0026972B1026852683F
:102DE00002F07F020A70816A491C8162C18D491E0E
:102DF0000904090CC18503D019E002685268F1E7A3
:102E00000168CA6822F02002CA600168CA6822F418
:102E10008072CA6001684A6922F001024A61202179
:102E200080F83E10016B012903D0FEF7CAFE002096
:102E300008BD002101630168CA6822F01002CA605F
:102E400001680A68D20602D50A6849680091818D36
:102E5000FEF72FFDEBE7000070B50446006801693E
:102E6000E26821F44051114301612169A0680843DF
:102E7000616908432168CA6841F20C639A430243BE
:102E8000CA6020684169A26921F44071114341611F
:102E90001E492068884202D1FEF7BCF801E0FEF727
:102EA000A9F800EBC00101EB00126068642180000A
:102EB000B2FBF0F3B3FBF1F36FF018067343B2FB10
:102EC000F0F5B2FBF0F605EB8305322303EB0515B5
:102ED000B5FBF1F5B6FBF1F605F0F00505EB0615CF
:102EE000B2FBF0F6B2FBF0F0B0FBF1F06FF01802BD
:102EF000504306EB800003EB0010B0FBF1F02168BB
:102F000000F00F002844886070BD000000380140C8
:102F100081628285C28500210164222280F83E20E0
:102F200080F83C100168CA6842F48072CA60016887
:102F30004A6942F001024A610068C16841F020011B
:102F4000C160002070470000154830B40068006878
:102F5000C04380061BD413480068C2B212480188DF
:102F60000B0414D44C044FF0000304D50A2A0DD1ED
:102F700041F4004111E00D2A0DD0C1F30D040B4DB9
:102F8000491C89B22A550180C72900D9038030BC69
:102F90000348FEF791BC41F480410180F7E700004F
:102FA000D8AA002004380140040000206A02002052
:102FB00010B510B1012803D104E0FFF767FB18B189
:102FC000012010BD00F0B4F8002010BD10B514466B
:102FD0004FF40072082318B1012810D0012010BD51
:102FE00021B1012906D002290FD101E0002010BD36
:102FF0002260FBE7FFF713FB0FE0042010BD002960
:10300000F4D0012907D0022903D00329F5D1238068
:10301000ECE72280EAE7024840882060E6E700000B
:10302000300200202DE9F0411C0015460E4605D067
:1030300030B101280DD00120BDE8F0810420FBE76C
:10304000E2B229463046FFF7CDFB78B1FFF71EFB11
:10305000F6E74FF4007769023A46304600F094F8FC
:10306000641E05F1010506F50076F4D10020E3E7C2
:1030700002480021017000787047000030020020F3
:103080002DE9F0411C0015460E4605D030B101284F
:103090000DD00120BDE8F0810420FBE7E2B2294613
:1030A0003046FFF783FC78B1FFF7F0FAF6E74FF40C
:1030B000007769023A46304600F0EEF8641E05F1EA
:1030C000010506F50076F4D10020E3E7FEE70000F5
:1030D00070B5040300F02EF900F0D6F8124D00226E
:1030E00004212846FDF74CFE2020FFF79FFC0F48E7
:1030F0000088A0F56F41183902D1200EFFF796FC29
:10310000C4F30740FFF792FCC4F30720FFF78EFCDF
:10311000E0B2FFF78BFC012204212846FDF730FEC8
:10312000BDE8704000F0B0B800080140E8010020A0
:1031300010B5134C012204212046FDF721FE00208A
:10314000FFF784FC00F058F80E490880A0F56F41A5
:10315000183913D1032000F075F8C0070ED10022F2
:1031600004212046FDF70CFEB720FFF75FFC204648
:103170000122BDE810400421FDF702BE10BD000091
:1031800000080140E80100202DE9F041184F1546E4
:103190000C460646002204213846FDF7F1FD0320C7
:1031A000FFF744FC13480088A0F56F41183902D19D
:1031B000200EFFF73BFCC4F30740FFF737FCC4F3D6
:1031C0000720FFF733FCE0B2FFF730FC002405E0F6
:1031D000FF20FFF72BFC3055641CA4B2AC42F7D3A0
:1031E0003846BDE8F04101220421FDF7C9BD0000C9
:1031F00000080140E801002070B5114D002422466E
:1032000004212846FDF7BCFD9020FFF70FFC0020AD
:10321000FFF70CFC0020FFF709FC0020FFF706FC7D
:10322000FF20FFF703FC44EA0024FF20FFF7FEFB2A
:103230000443012204212846FDF7A2FD204670BD6B
:103240000008014070B5012803D0022803D00328EC
:1032500003D0052402E0352400E01524094D0022A6
:1032600004212846FDF78CFD2046FFF7DFFBFF20F9
:10327000FFF7DCFB0446012204212846FDF780FD10
:10328000204670BD0008014010B50120FFF7DAFFAD
:10329000C007FAD110BD00002DE9F05FC1F30B06A5
:1032A000DFF88C800F0BC6F58054894682461546A0
:1032B000A24200D8144639038B464FF48052404650
:1032C000FFF762FF002006E0321818F80210FF290D
:1032D00003D1401C80B2A042F6D3A04222D238468D
:1032E000FFF7F6FE002006E01AF800208319401CC4
:1032F00008F8032080B2A042F6D359464FF480521A
:103300004FEA080000F02AF8A5420FD0281BA2447B
:10331000A144002685B24FF480547F1CA542CAD830
:103320002C46C8E7224649465046EBE7BDE8F09FE9
:103330003203002010B5084C002204212046FDF77E
:103340001FFD0620FFF772FB20460122BDE810405A
:103350000421FDF715BD0000000801402DE9F041F2
:103360000746C8B2C0F580740E461546A24200D882
:1033700014464FF4807822463146384600F00EF865
:10338000A54208D0281B2744264485B24446A542BE
:10339000F1D82C46EFE7BDE8F08100002DE9F041BF
:1033A00015460C460646FFF7C5FF174F00220421BD
:1033B0003846FDF7E5FC0220FFF738FB134800888C
:1033C000A0F56F41183902D1200EFFF72FFBC4F38F
:1033D0000740FFF72BFBC4F30720FFF727FBE0B202
:1033E000FFF724FB002404E0305DFFF71FFB641CA3
:1033F000A4B2AC42F8D3012204213846FDF7C0FC48
:10340000BDE8F041FFF740BF00080140E80100209F
:103410000907090E002804DB00F1E02080F8001401
:10342000704700F00F0000F1E02080F8141D704795
:1034300030380A2801D201207047002070477047B9
:103440007047000010B50446002084F80402401EB6
:10345000C4F82C02204602F0C3FF08B1032010BDBF
:10346000B4F8FE01A0F52A41553901D0022010BD63
:1034700094F83600B4F8371040EA01210848B0EB60
:10348000012F08D094F85210B4F8532041EA0221D9
:10349000B0EB012F01D1002010BD012010BD0000B4
:1034A0000046415400E0401C02780AB18A42FAD139
:1034B000D0B27047D0F82422D0F80002490A90F820
:1034C0000202B1FBF0F0121D02CA19B1884203D307
:1034D000401AF8E700207047116808447047D0F898
:1034E0001422891E921E8A4201D800207047D0F80B
:1034F000282290F8020201FB002070472DE9F041DC
:103500000F00054606D002F021FA02280BD2012056
:10351000BDE8F081D5F80C621EB1D5F81402B042B6
:1035200008D8012606E0411CF2D0D5F814128142D9
:10353000EED83E463446D5F81402641CA04202D8A8
:103540000224022E0AD32146284602F0FFF938B1A0
:10355000411CDDD00128DBD0B442ECD10020D7E7FC
:103560006FF070422146284602F06BFF30B957B128
:1035700022463946284602F064FF20B1012812D0C5
:1035800001242046C4E7C5F80C42D5F81002411CBE
:10359000F7D0401EC5F8100295F8050240F0010072
:1035A00085F80502EDE74FF0FF34EAE72DE9F84F23
:1035B000884682460F6800E07F1C38782F28FBD0B1
:1035C0005C28F9D00024DAF81C622546785D6D1C71
:1035D000202827D32F2825D05C2823D0FF2C42D2A7
:1035E000A0F181017D290BD8795D6D1C01EB0020D4
:1035F000A1F1400280B23F2A02D380397F2932D222
:10360000012101F0B1FF5FEA00092CD0B9F1800F70
:1036100004D2014671A0FFF745FF20BB26F81490A5
:10362000641CD3E77A19C8F80020202801D20425A9
:1036300017E0002515E000BF06EB440030F8020C4F
:1036400020280DD02E280BD06CB1002026F81400B5
:103650000B222021DAF8180202F034FC002706E0E1
:10366000641E002CE8D10620BDE8F88F7F1C36F8D8
:1036700017002028FAD02E28F8D01FB145F00305F6
:1036800000E0641E2CB106EB440030F8020C2E283A
:10369000F7D1002081464FF0080B009036F8170054
:1036A00007F101075FEA000824D0B8F1200F04D029
:1036B000B8F12E0F04D1A74202D045F00305EDE783
:1036C0000099594501D2A7421AD1BBF10B0F0FD077
:1036D000A74201D045F003050CD84FF00800009038
:1036E0004FEA896027464FF00B0B4FEA1069D5E788
:1036F00045F00305DAF818020178E52949D04AE0D7
:103700004046B8F1800F07D301F058FF002101F0C7
:103710002BFF804645F00205B8F1FF0F13D9009941
:10372000ABF10100814204D345F00305CDF800B0B0
:10373000B4E7DAF8182200984FEA182111540098DB
:10374000401C00901CE0B8F1000F04D0014626A0F8
:10375000FFF7A8FE20B14FF05F0845F003050FE02A
:10376000A8F14100192802D849F0020908E0A8F19F
:103770006100192804D8413049F001091FFA80F886
:10378000DAF81822009902F801800098401C009095
:1037900084E705210170BBF1080F03D14FEA89606E
:1037A0004FEA1069C9F38100032803D06FEA0901C9
:1037B000890701D145F00205A90709D409F00301E1
:1037C000012901D145F01005012801D145F0080576
:1037D000DAF81802C572002046E70000222A3A3CB7
:1037E0003E3F7C7F000000002B2C3B3D5B5D0000DA
:1037F00070B50E460446002100F0D5FAA0B90025A8
:10380000D4F81012D4F8000202F0EAFD60B9D4F83E
:1038100014120978E5290BD051B100250121204669
:1038200000F0ACF80028EBD0042800D1072070BDD0
:103830006D1CB542F2D170BD2DE9FC5F054600213B
:1038400000F0B1FA00286ED1FF204FF6FF7A009009
:103850008146A5F820A200BFD5F81012D5F80002C5
:1038600002F0BEFD06000ED1D5F81442207848B112
:10387000E17AE52801F03F0170D00A0704D50F294D
:103880006CD107E0042674E00F2903D0B9F1000FD2
:103890004DD052E0D5F81C1291B3420608D5627B98
:1038A000009220F04000B5F806228146A5F82022BB
:1038B000484534D1627B0098824230D10191207812
:1038C000A04620F04000401E00EB80010027DFF8FA
:1038D000A8B001EBC00601241BF8071001EB08009B
:1038E000008874B101F06AFE0446FF2E17D20198D9
:1038F00030F81600761C01F061FEA0420FD102E004
:1039000030E050450BD17F1C0D2FE5D398F8000017
:10391000400609D544B1019830F8160020B1FF20C7
:1039200000F0FF091EE025E0A9F10100F8E72046BC
:1039300002F061FE009988421BD0D5F81802C17AC6
:10394000C9070BD10A2101E0491E06D314F8012B47
:1039500010F8013BD21AF7D000E052B14FF0FF0946
:10396000A5F820A20021284600F008F806003FF440
:1039700073AF3046BDE8FC9F208E00082DE9F04172
:10398000B0F806620446761C30040F46000C37D0AF
:10399000D4F8100298B3310773D1401CC4F8100258
:1039A000D4F80C12D4F8000231B190F80222521E61
:1039B00012EA161F05D064E0B0F80802B0421FD921
:1039C0005FE001F0C3FF054601281ED9681C3AD00C
:1039D000D4F80002D0F81412A94249D87FB1D4F823
:1039E0000C12FFF78BFD05000DD0012D0DD0681CCA
:1039F00029D0D4F8000202F066FE20BB07E0FFE702
:103A00000420BDE8F0810720FBE70220F9E74FF42E
:103A100000720021D4F8000202F054FA2946D4F8CA
:103A20000002FFF75CFDD4F8001200274FF00108F8
:103A3000C1F82C0211E000BF80F80482D4F8000223
:103A400002F041FE08B10120DBE7D4F80002D0F813
:103A50002C12491C7F1CC0F82C12D4F8000290F8DC
:103A60000212B942E8D8D0F82C12C91BC0F82C12A7
:103A7000C4F80C522946D4F80002FFF730FDC4F810
:103A80001002A4F80662D4F8000206F00F0100EB61
:103A90004110C4F814020020B3E700002DE9F05FE4
:103AA000FF248B460546274604264FF6FF784FF045
:103AB00000096AE0D5F8000202F092FC060069D124
:103AC000D5F81402017879B1C27AE52902F03F02F3
:103AD00008D02E2906D022F02003082B06D0B446A9
:103AE000DC4506D0FF2442E0042653E04FF0010CF1
:103AF000F6E70F2A01D0BCBB40E04A0607D5477B5A
:103B000021F04001B5F806220C46A5F82022A1427A
:103B10002BD1417BB94228D10178DFF884A001F094
:103B20003F01491E01EB810202EBC1010022D5F8E1
:103B30001CC201231AF802600644368833B1FF29FB
:103B400013D22CF811603346491C01E046450CD1D4
:103B5000521C0D2AEED30078400603D5FF2904D26B
:103B60002CF81190641E01E00CE0FF24E4B2002167
:103B70002846FFF703FF060007D00BE002F03BFDED
:103B8000B84209D0A5F8208206E0D5F81012002925
:103B900090D10EB1C5F810923046BDE8F09F0000FC
:103BA000208E00082DE9FF5F04460C22D4E98676BA
:103BB0003946684602F022F99DF80B00C0071AD07A
:103BC0000020F8720125C4F81C022B4632466946D3
:103BD000384601F075FE2046FFF72EFE10B96D1C29
:103BE000642DF2D3642D0CD004280BD19DF80B006A
:103BF000F872C4F81C629DF80B0080070FD50020F6
:103C000004E0072004B0BDE8F09F401C36F8101017
:103C10000029FAD10D211930B0FBF1F600E00126A0
:103C200031462046FFF7E4FD05007FD1761E5FEAAE
:103C3000060A5AD0B4F806122046A1EB0A0100F099
:103C4000B2F8050072D1D4F8180202F0D4FC039047
:103C5000D4F81012D4F8000202F0C2FB050065D1BE
:103C6000D4F81412D4F81C92039848730F20C87229
:103C70000020087388760AF0FF0BC876ABF10100CC
:103C800000EB800202EBC00500234FF6FF7E284EBA
:103C90004A1C01E0604503D039F81500F4466D1C5C
:103CA000F75CC85516F80380070A08F8027000B9D7
:103CB00060465B1C0D2BEDD3704502D039F8150022
:103CC00008B94BF0400B81F800B0D4F80012012085
:103CD00081F8040200212046FFF750FE050025D19F
:103CE000AAF101005FEA000AB2D1D4F81012D4F8A8
:103CF000000202F075FB050018D1D4F8140220224E
:103D0000002104F5007402F0DDF8D4E905010B226E
:103D100002F074F8A0696169C07A00F018000873B5
:103D20000120216800E001E081F80402284669E7EB
:103D3000208E00082DE9F041B0F820120446B0F8BA
:103D40000662A1F57F40FF3800D13146204600F0E1
:103D50002AF8050024D1E5274FF00108D4F8101205
:103D6000D4F8000202F03CFB050016D1202200210D
:103D7000D4F8140202F0A6F8D4F814020770D4F8AC
:103D8000001281F80482B4F80602B04208D2002181
:103D90002046FFF7F3FD0500E0D0042D00D10225F9
:103DA0002846BDE8F08170B5A0F80612D0F80832B8
:103DB0000D460446012B40D0D4F80002D0F814126E
:103DC00099423AD933B990F80012032906D1D0F8B4
:103DD00024321BB190F80202060114E0B0F8081278
:103DE000A9422AD9D0F8240214E001F0AFFD03461D
:103DF000401C20D0022B20D3D4F80002D0F81402AB
:103E000098421AD9AD1BD4F80002B5421946ECD23B
:103E1000FFF765FBC4F80C3278B100EB1510C4F85D
:103E20001002D4F8000205F00F0100EB4110C4F8B5
:103E30001402002070BD012070BD022070BD000082
:103E4000084910B50B5C002253B901220A540A1824
:103E500001EB8000127B40680168104688470246EB
:103E6000104610BD1CAB002030B4054C231804EBE9
:103E700080001B7B406804691846A44630BC60473C
:103E80001CAB002030B4054D2C1805EB8000247BC2
:103E9000406885682046AC4630BC60471CAB0020BB
:103EA000044A111802EB8000097B4068426808460A
:103EB000104700001CAB002030B4054D2C1805EB5A
:103EC0008000247B4068C5682046AC4630BC604713
:103ED0001CAB00207CB50D4600211446009101AAC0
:103EE000694600F058F800280CD10199009AD1F8E1
:103EF000143291F802129B1E4B4351435A08490851
:103F00002A6021607CBD000070B5154D00244FF47F
:103F10000C76304602F080FA45F8240018B1641C93
:103F2000E4B2022CF5D34FF40A76304602F074FA6C
:103F30000B4D0C3D2860304602F06EFA68604FF47D
:103F4000007002F069FAA860022C06D1296821B13C
:103F5000696811B108B1002070BD012070BD00007A
:103F60001002002010B5044601F056F9002807D1D0
:103F7000204603F051FB002802D10021C4F80012B2
:103F800010BD10B5044603F047FB002802D1002104
:103F9000C4F8001210BD2DE9F74F14468A460022DE
:103FA0006946204601F01CFB24685FEA000853D1F3
:103FB000D4E98407B91E884202D8CAF800004BE051
:103FC00094F800920025B9F1010F02D0D4F82062D4
:103FD00017E002263146204601F0B8FC411C03D010
:103FE000012803D028B105E0012000E0022080462E
:103FF00028E06D1CD4F81402761C8642EAD321E036
:1040000051B93146761C204602F0EAF95FEA000811
:1040100018D120464FF40071B9F1020F07D0027891
:10402000D0F8013042EA0322120106D006E00288ED
:1040300002B96D1C801C891E02E06D1C001D091F49
:104040007F1EDDD1C4F8105294F8050240F0010043
:1040500084F80502CAF800504046BDE8FE8FF7B567
:10406000ADF50A7D17460D4600228AA980A801F009
:10407000B7FA040039D10DB300263146684682965E
:10408000FFF791FE040030D101216846FFF706FDDD
:10409000040002D0042C0FD027E00B22284685997B
:1040A00001F0ACFE0B20EE7201E02E5430B1401E48
:1040B000295C2029F9D001E02E700024AFB180984E
:1040C000D0F81C1202F08CF904000ED1809890F800
:1040D000000203280DD027208099809A095C401C9B
:1040E0001044006841EA002038600DF50D7D20463F
:1040F000F0BD4320F0E72DE9FC410025904607463E
:1041000004464E1E0FE001AB01226946404600F016
:1041100021FE0198012808D19DF800006D1C04F8CB
:10412000010B0A2801D0B542EDDB0020207015B14B
:104130003846BDE8FC810020FBE700002DE9FC5F6C
:104140000D46044603F068FA5FEA000973D194F85B
:10415000070200286FD1D4F8240201274FF0020A89
:10416000002869D0691C33D0D4F80C02A84200D2D0
:104170000546C4F80852002D5CD02046691EFFF7A2
:1041800099F90146C4F81402D4F80002FFF7A7F920
:1041900000287CD0D4F800126D1E91F80222521E25
:1041A00002EA55221518B4F80802C005E4D0D4F884
:1041B0001822AA42E0D094F80602400646D591F8AB
:1041C000010201232146FFF777FE002874D137E072
:1041D00002C80091D4F810128346022509B30026C4
:1041E000AD1C01918846761CD4F8000201F0AEFBAC
:1041F000014601284BD9481C5ED008F101008142DC
:10420000F0D00098854206D8CBF800600BF104008E
:10421000019A04C08346D4F80002D0F81402884200
:10422000DDD8D4F8240205600098854205D8002125
:10423000CBF80010C2E09DE016E04FF01109BDE0A0
:1042400094F8060220F0400084F80602D4F8000238
:1042500001232A4690F801022146FFF713FE0028A9
:104260002AD1C4F81852A9E0D4F80C02A84204D20A
:1042700094F80612890700D405464FF00008D4F8D8
:104280000802C4F808824DB3D4F8002200E06EE0C2
:1042900092F802124E0280B1691E401EB1FBF6F187
:1042A000B0FBF6F3994208D3711E8843C4F80802A4
:1042B0002D1AD4F8141210E06EE0D4F8101251B98F
:1042C00000211046FFF71AF9014601284FD0481C7B
:1042D00062D0C4F81012C4F8141211BB31E000BF50
:1042E00094F806028007D4F8000205D5FFF706F916
:1042F000010004D1354616E001F028FB0146481CB8
:104300004AD0012933D9D4F80002D0F814028842E7
:104310002DD9C4F81412D4F80802AD1B3044C4F8E7
:104320000802B542DCD8D4F808022844C4F80802D0
:10433000E80506D0D4F80002FFF7D1F8B8B100EBD9
:104340005528B4F80802C0052CD0D4F818224245EC
:1043500028D094F80602400614D5D4F800020123B0
:10436000214690F80102FFF7A7FDA8B904E084F800
:1043700007A20220BDE8FC9F94F8060220F040004E
:1043800084F80602D4F800020123424690F80102A4
:104390002146FFF777FD18B184F807720120E9E79D
:1043A000C4F81882D4E98201884207D9C4F80C0203
:1043B00094F8060240F0200084F806024846D9E747
:1043C0002DE9F14FADF50E7D01F021FB07460122ED
:1043D0008EA980A801F004F9040073D14FF4007095
:1043E00001F0E8F85FEA00090BD08BA8CDE9860957
:1043F00068468E9901F01EFA040007D0042C07D0FD
:1044000099E011200DF50F7DBDE8F08F082492E0B2
:1044100000218098FFF772F8060009D0012E09D01C
:10442000701C09D0809802F04EF9040006D067E0B5
:10443000072465E0022463E0012461E031468098AE
:10444000FFF74DF8809D80464FF40072002128460A
:1044500001F038FD0B222021284601F033FD2E24E7
:104460002C701020E872F8B28A90A875C7F3072064
:104470008990E875C7F3074B85F818B04FEA176ABB
:1044800085F819A03146284602F0ADF805F1200064
:1044900020222946074601F0B1FC85F8214080988A
:1044A000829990F80002032805D18098D0F8240260
:1044B000884200D10021384602F095F8809890F8A3
:1044C000027216E03AE080990120C1F82C828099AE
:1044D00008F1010881F80402809802F0F4F8040061
:1044E0000ED14FF400720021284601F0EBFC7F1E34
:1044F000FFB2002FE7D16846FFF754FB040004D059
:104500003146809802F038F815E085981021C17284
:104510008A9981758999C17580F818B080F819A0B9
:10452000314602F060F88099012081F804028098F9
:1045300002F06EF80446484601F03EF8204661E776
:104540002DE9F74F8EB015460F98012803D9132097
:1045500011B0BDE8F08F0EA801F0C2FA002801DA10
:104560000B20F5E7FE4951F8204054B1002184F8B2
:104570000012C0B20390FFF763FCC10703D0032011
:10458000E6E70C20E4E7400701D50A20E0E708AAA7
:1045900001210398FFF768FC00287DD10899802944
:1045A0007AD30F9808B1002000E03F208046A1EBAD
:1045B0000801681E0542089100D17DB94FF4FA60E8
:1045C000B1FBF0F20020E74B00E0401C33F8105044
:1045D0009542FAD8E34A163232F81050B5F5007F0A
:1045E00000D36D0A85B1802D00D98025B1FBF5F08F
:1045F000012640F6F672904200D302264FF6F6727C
:10460000904203D3032620E00125EFE7032E1CD0C0
:10461000012E23D04000001D00F2FF10470A4FF08A
:1046200001092020834608EB090A0AEB07005844D9
:1046300042190090A2EB0800884247D809AA03213A
:104640000398FFF711FCA0B90EE040F2072202EB3D
:104650008000470A4FF020090020E3E700EB40000C
:10466000401C4008C01CD7E7099810B1B0F5004FB6
:1046700001D901200990099900980844401E491E5B
:1046800088430099401A0990032E12D007440898D5
:10469000A0EB0901CA1B00E0DDE0A2EB0B01B1FBBE
:1046A000F5F10D91022E07D0032E0AD0012E15D060
:1046B00019E081448244EAE740F6F672914205D35C
:1046C00011E008464FF6F671884201D20E203FE70E
:1046D0000C2002900F9868B1F02045E0B0F5803FC3
:1046E00006D20120F5E7B0F5803F01D20420F0E7C3
:1046F0000620EEE74FF400720021204601F0E2FBB5
:1047000004F5DF700121417081700021C170029AAF
:104710000271FE224271089B08EB030243F6C1635B
:10472000B2FBF3F23F2343EA920C099280F806C0F1
:10473000C271037241728172C172089901730A0ACF
:1047400042730A0C8273090EC173552084F8FE016E
:10475000AA2084F8FF010123002221460398FFF7D5
:10476000ABFB002877D1F82002904FF400720021B3
:10477000204601F0A7FB0B227BA1204601F03EFB67
:104780000021E17202202073657384F80E904FEAD5
:104790001920E07301202074032E0BD040026074B6
:1047A000000AA0740898B0F5803F05D2E074000AB2
:1047B00020750CE00020F2E784F82000020A84F85B
:1047C0002120020C84F82220000E84F82300029895
:1047D00060753F202076002060764FF0FF0984F856
:1047E0001A90E07684F81C804FEA182060774FEA30
:1047F0001840A0774FEA1860E07701F008F98021AF
:1048000029220990032E27D084F82700030A84F870
:104810002830030C84F82930000E84F82A00A7758C
:10482000380AE07584F8241084F82620132251A158
:1048300004F12B0001F0E2FA552084F8FE01AA20D1
:1048400084F8FF010123424621460398FFF734FB19
:10485000002800D133E0BDE084F84300030A84F867
:104860004430030C84F84530000E84F8460084F888
:104870002470380A84F82500380C84F82600380E95
:1048800084F82700022084F82C00002084F82D00F2
:1048900084F82E0084F82F00012384F8303084F847
:1048A0003100062384F8323084F8330084F8401055
:1048B00084F84220132234A104F14700BAE7032E02
:1048C00006D1012308F1060221460398FFF7F4FA06
:1048D0004FF400720021204601F0F4FA0299099188
:1048E000032E12D0012E0ED06FF0FF000843099066
:1048F00020700998000A60700998000CA07009984F
:10490000000EE0701EE02548F0E761F0FF0009901E
:1049100020700998000A60700998000CA07009982E
:10492000000EE07084F8049084F8059084F80690F6
:1049300084F8079084F8089084F8099084F80A9025
:104940000F20E07252460AF1010901232146039823
:10495000FFF7B2FAF0BB4FF40072002120461FE0CF
:10496000540200202E8E0008EBFE904D53444F530E
:10497000352E30004E4F204E414D45202020204600
:1049800041542020202020004E4F204E414D4520F4
:1049900020202046415433322020200000FFFF0019
:1049A00001F090FA01200AE04A4609F101090123C9
:1049B00021460398FFF780FA60B90998401C0990D6
:1049C000B842F1D3032E00D05D464A4609F10109F1
:1049D000012300E042E021460398FFF76DFAE8BBAF
:1049E0006D1EF2D1032E3CD15220207060706120E8
:1049F000A0704121E170722284F8E42184F8E5215D
:104A000084F8E61184F8E7010D980123401E84F82C
:104A1000E801010A84F8E911010C84F8EA11000E9A
:104A200084F8EB01022084F8EC01002084F8ED0109
:104A300084F8EE0184F8EF01552084F8FE01AA20E5
:104A400084F8FF0108F1010221460398FFF734FAC8
:104A5000012308F107022146039800E009E0FFF76F
:104A60002BFA002211460398FFF7FEF900283FF4C5
:104A700078AD01206CE5000017B581B014460298AE
:104A80000090684601F02CF8002802DA0B2004B0F0
:104A900010BD0D4A002352F8201009B181F80032F0
:104AA0000199002902D000BF81F8003242F820109D
:104AB00001D0012C01D00020E9E7002202A901A8C1
:104AC00000F08EFDE3E70000540200202DE9F74FCF
:104AD000ADF50C7D06000ED04FF0000902F01F0767
:104AE00027F001028DA980A8C6F8009200F078FD99
:104AF000040005D0A5E009200DF50F7DBDE8F08F7D
:104B00004FF4007000F056FD5FEA00080AD089A853
:104B1000CDE9860868468D9900F08CFE859D0400DD
:104B200002D003E01120E7E705B9062417F01C0FB7
:104B30004ED054B1042C03D16846FFF733F8044635
:104B4000859D47F0080754B147E0E87A10F0110F4F
:104B500001D0072441E0780701D508243DE038075B
:104B60004DD500F054FFA873010AE973010C2974B4
:104B7000000E687485F80B9085F81C9085F81D90E0
:104B800085F81E9085F81F902946809800F0C6FF92
:104B900082460021284601F026FD80990120BAF1C5
:104BA000000F81F8040228D080985146D0F82CB22A
:104BB00001F0E2FC040010D18099AAF10100C1F8D3
:104BC0000C025946809801F00BFC040013D004E05D
:104BD0001CB9E87AC10605D50424404600F0ECFC77
:104BE000ACB12EE0B90706D5C00704D00724404673
:104BF00000F0E2FC25E0380701D547F02007809857
:104C0000D0F82C02C6E98705404600F0D5FC86F8AE
:104C1000067286F807924F46294606F50076809878
:104C200000F07CFF3061287FD5F81D1040EA01209C
:104C3000C6E90270B761776280983060B0F806020A
:104C4000B080204658E773B584B0050007D0002235
:104C500005A9684600F0C4FC040003D032E0092036
:104C600006B070BD0098C5F800024FF4007000F067
:104C7000A1FC06000CD001A8C5E9860628460599C6
:104C800000F0D8FD0446304600F096FC14B116E062
:104C90001120E5E7D5F8141239B1C87AC00616D547
:104CA000009800F03BFFC5F8080200980021B0F81A
:104CB0000602A5F804022846FFF775F80446042CFE
:104CC00005D014B10020C5F800022046C8E705242D
:104CD000F8E700B595B002910021039104910146D7
:104CE00002A801F02AFC039800280DDB024601AB64
:104CF00005A9029800F04CFB30B90199039888424D
:104D000002D1049815B000BD4FF0FF30FAE710B59E
:104D100096B004460020CDE90210049003E002A8FA
:104D2000641C01F00AFC21780029F8D103980028BE
:104D30000DDB024601AB05A9029800F029FB30B952
:104D400001990398884202D1049816B010BD4FF023
:104D5000FF30FAE72DE9F84F8846002199461546BD
:104D60000446196002F058FC002812D194F807029A
:104D700000280ED194F80602C00709D0D4E98201B8
:104D8000081A01274FF0020A854200D90546A2E021
:104D90000720BDE8F88F00BFD4F80812C8057CD101
:104DA000D4F8000290F80222521E02EA512212F0B8
:104DB000FF0614D131B1D4F8242232B12046FEF7D7
:104DC00079FB06E0D4F8100203E0D4F8141200F0E6
:104DD000BDFD022823D3411C5BD0C4F81402D4F8D3
:104DE0001412D4F80002FEF77AFBC0B130440090F0
:104DF000680A5FEA000B2AD0D4F8001206EB0B0217
:104E000091F80202824201D9A0EB060B91F801024F
:104E10005B464146009AFFF735F8D0BB03E084F8C3
:104E200007A20220B5E794F8060240060CD5D4F894
:104E300018120098081A584506D208EB40204FF483
:104E40000072214600F0DAFF4FEA4B2637E0D4F833
:104E500018220098824221D094F8060240060ED50E
:104E6000D4F800020123214690F80102FFF724F84C
:104E700078B994F8060220F0400084F80602D4F8CD
:104E800000020123214690F80102009AFEF7FAFF82
:104E900020B184F8077201207BE702E00098C4F893
:104EA0001802B4F80802C0F30800C0F50076AE425C
:104EB00000D92E4601193246404600F09FFFD4F833
:104EC0000802B0443044C4F80802D9F8000081193F
:104ED000AD1BC9F80010002D7FF45EAF002058E72D
:104EE0002DE9FE438846054602F096FB040031D1C9
:104EF000B8F1000F12D04FF4007000F05BFB060019
:104F000012D06846C5E9860600212846FEF7C6FD90
:104F10000027044604280AD05CB118E00021284686
:104F2000FEF741FF044615E01120BDE8FE83C5F8F9
:104F300010724146284600F06CFD00212846FEF71D
:104F40001DFD0446042802D10024C5F81072304625
:104F500000F032FB2046E8E773B5ADF58E6D012217
:104F60000DF58E610DF5856000F03AFB040075D1FA
:104F7000DDF8280481904FF4007000F01BFB050061
:104F80000CD00DF588610DF2644021C18AA8DDF8CE
:104F9000701400F04FFC040004D076E011200DF5F1
:104FA0008F6D70BDDDF83C04E0B100F10B011522FE
:104FB0000DF24C4000F022FF4FF409728AA901A8BB
:104FC00000F01CFF0DF2744000F08AFD00280BDB9E
:104FD00001A8DDF8741400F02DFC040006D0042CA8
:104FE00006D052E0042450E00B244EE008244CE0AC
:104FF00001A8FEF7D7FD040047D1869C13220DF2CD
:105000004E4104F10D0000F0F9FE9DF84C0401261C
:1050100040F02000E072DDF8280480F80462E07AB5
:10502000C00628D58399DDF83004884223D0214674
:10503000DDF8280400F072FD0146DDF82804FEF7D3
:105040004EFA01000BD0DDF8280401F0C9F9040084
:10505000DDF8280400F1200003D016E018E0022457
:1050600013E041782E2906D1839901F0BCFADDF8CE
:10507000280480F804628AA8FEF75CFE040004D1CC
:10508000DDF8280401F0C4FA0446284600F094FA3A
:10509000204684E72DE9F143ADF50C7D01228CA972
:1050A00080A800F09DFA00287AD180468DF82482ED
:1050B00045468C9800E06D1C415D0029FBD100E065
:1050C0006D1E9DB3411911F8011C2029F8D0002450
:1050D00026460DF509798C99885D761CA0F1810230
:1050E0007D2A10D80A2C0DD2AE420BD2895DA1F1D7
:1050F00040023E2A02D9403A7E2A03D841EA0020E3
:10510000761C00E00020012100F02EFA00F056FA93
:10511000002100F029FA07005CD001463AA0FEF712
:10512000C1F9E0BBFF2F02D90A2001E018E00B20F3
:10513000A0424FD9FF2F03D9390A09F80410641C83
:10514000484609F80470641CAE42C4D320210B2CDD
:1051500002D20155641CFAE79DF82402E52839D0F3
:1051600000216846CDF80882FEF71DFE002832D1E6
:1051700001216846FEF792FC012480B304282AD15D
:105180009DF824120020002925D001216846FEF751
:105190002FFB00281FD120220021859801E019E073
:1051A00019E000F08FFE0B2289A9859800F026FEF9
:1051B0008599082081F80B0000F029FC85998875F5
:1051C000859A010AD175859A010C000E1176859990
:1051D000487611E006200DF50D7DBDE8F083FFE770
:1051E0009DF8240228B10B2289A9859800F006FEBB
:1051F000E2E78599E5200870809880F8044280985D
:1052000001F006FAE7E70000222A2B2C2E3A3B3C5D
:105210003D3E3F5B5D7C7F0070B5044602F0FCF9CB
:10522000002811D194F806128A060DD5480612D529
:10523000D4F800020123214690F80102D4F8182284
:10524000FEF73AFE08B1012070BD94F8060220F086
:10525000400084F80602D4F81C12D4F8000201F0D1
:10526000BFF80028F0D1D4F82052E87A40F02000AE
:10527000E87294F80C022877B4F80C02000A6877F8
:10528000D4F80C02000CA877D4F80C02000EE877D2
:10529000D4F81012284604F5007401F0A4F900F0C7
:1052A000B6FBA875010AE975010C2976000E68762F
:1052B0000020A874E874A07920F02000A071216873
:1052C000012081F804022068BDE8704001F0A0B917
:1052D00071B5ADF2544D01220DF2544180A800F099
:1052E0007FF9040052D14FF4007000F063F906001A
:1052F0000BD00DF58960CDE986066846DDF85414BB
:1053000000F098FA040004D03DE011200DF58B6DFB
:1053100070BD859C1CB1E07AC00722D101E0062453
:1053200031E02146809800F0F9FB05001BD0E07ABF
:10533000C00618D54FF40972694689A800F05EFDD1
:10534000022189A8CDF82C54FEF72DFD04001AD1B6
:10535000002189A8FEF7A2FB040002D0042C02D091
:1053600011E007240FE06846FEF7E4FC04000AD1D0
:105370002DB12946809801F0FFF8040003D18098F0
:1053800001F046F90446304600F016F92046BDE724
:105390002DE9F84F884600219946154604461960C4
:1053A00002F03AF9002808D194F80702002804D145
:1053B00094F80602800702D40720BDE8F88FD4F8DD
:1053C0000802012741194FF0020A81427BD3B9E05C
:1053D000D4F80812C80577D1D4F8002292F8020256
:1053E000401E00EA512010F0FF061ED131B1D4F862
:1053F000240240B12046FEF75DF809E0D4F810021F
:1054000040B9002101E0D4F814121046FEF776F8F6
:10541000002858D001283DD0411C6CD0C4F814029B
:10542000D4F8101209B9C4F8100294F80602400624
:1054300010D5D4F800020123214690F80102D4F8D7
:105440001822FEF739FDE8BB94F8060220F0400070
:1054500084F80602D4F81412D4F80002FEF73FF8DC
:10546000C0B130440090680A5FEA000B30D0D4F835
:10547000000206EB0B0290F802128A4201D9A1EB5E
:10548000060B90F801025B464146009AFEF714FDB8
:10549000C0B903E084F807A202208EE7D4F81812FE
:1054A0000098081A58450CD208EB40214FF40072BE
:1054B000204600F0A3FC94F8060220F0400084F897
:1054C000060202E017E040E01CE04FEA4B262DE028
:1054D000D4F818120098814211D0D4E98201884290
:1054E0000DD2D4F800020123214690F80102009A5F
:1054F000FEF7C8FC18B184F8077201205DE7009838
:10550000C4F81802B4F80802C0F30800C0F5007629
:10551000AE4200D92E4620443246414600F06EFC91
:1055200094F8060240F0400084F80602D4F808021D
:10553000B0443044C4F80802D9F800008119AD1B0A
:10554000C9F80010002D7FF443AFD4E982018842EE
:1055500001D9C4F80C0294F8060240F0200084F847
:105560000602002029E7000070B580281BD345F211
:10557000205309B10D4D00E00D4D002110245A1AA1
:1055800002EBD27201EB620235F82260864206D04D
:1055900001D2114600E01346641EF0D104E01CB1B4
:1055A00005EB8200408870BD002070BDDEE201087E
:1055B0005A8E0008FAF75FBEFAF78CBE0021064B40
:1055C00000E0491C33F81120002A04D08242F8D1AF
:1055D000024830F811007047623703084239030867
:1055E0002DE9FF474FF000090746C0F80090164626
:1055F000084600F075FA050003D50B2004B0BDE89D
:10560000F087894850F82540A4B13C6094F8000226
:1056100028B194F80102FEF743FCC1070CD084F8CE
:105620000092E8B284F80102FEF70AFCC10708D034
:105630000320E3E70C20E1E70EB1400704D400208B
:10564000DCE71EB1400701D50A20D7E7002529462F
:105650002046FDF7F7FE012823D100204FEA0D0771
:1056600004EB001191F8C22101F5DF712AB10A7A29
:10567000D1F8091042EA012100E0002147F820108A
:10568000401C0428ECD3002657F826502DB129469B
:105690002046FDF7D7FE08B909E00220761C042E4B
:1056A000F2D3032801D0E0BB01E00120A6E7B4F863
:1056B0000B00B0F5007F60D1E28A2AB994F824008B
:1056C000D4F8251040EA0122C4F81822217C84F87D
:1056D0000312012901D002294FD1607B514384F884
:1056E0000202F0B1431E184247D1B4F81130A4F8B9
:1056F00008321E0741D1B4F813602EB994F8206027
:10570000D4F8217046EA0726B4F80EC0BCF1000FA9
:1057100033D00CEB010707EB1317BE422DD3F61B5A
:1057200000E02AE0B6FBF0F038B3012640F6F67848
:10573000404500D302264FF6F678404500D30326B5
:10574000801C2F44C4F82872AC44C4F81402C4E985
:10575000875C032E13D083B16144C4F82412022E57
:1057600019D000F0010100EB400001EB500000BF38
:1057700000F2FF10B2EB502F0FD20D203EE7002BAE
:10578000FBD194F82C10D4F82D30800041EA03218D
:10579000C4F82412ECE74000EAE74FF0FF30C4F809
:1057A0001002C4F80C02802084F80502032E30D1C8
:1057B000208E01282DD12046691C00F011FE40BB2F
:1057C00084F80592B4F8FE01A0F52A41553920D19C
:1057D0002078D4F8011040EA01201449884218D1F9
:1057E00094F8E401D4F8E51140EA01201049884218
:1057F0000FD194F8E801D4F8E91140EA0120C4F887
:10580000100294F8EC01D4F8ED1140EA0120C4F83C
:105810000C02054984F80062091F0888401C0880B2
:10582000A4F806020BE70000540200205252614126
:105830007272416173B50446019801782F2901D035
:105840005C2901D1401C01900025C4F80852019840
:105850000078202806D200212046FEF7A4FAC4F8DA
:1058600014527CBD01A92046FDF7A0FE0028F8D106
:105870002046FDF7E1FFD4F81812C97A28B10428B0
:10588000EFD14907EDD405207CBD4907FCD4D4F8FD
:105890001412C87AC006F6D5D4F8000200F03EF91A
:1058A000C4F80802DEE7000004490A685206FCD585
:1058B000024AC1B2121D1160704700000038014059
:1058C0007CB516461C4605460B2200F097FA052CBF
:1058D00011D91D4A0CE00021B61C2346044663F38F
:1058E0005F044008E30300D55440491C1029F4D359
:1058F00030880028EFD107214FEA0D0304F00F0094
:105900003030392800D9C01D5854491E2409F5D11A
:105910007E20002258544C1E06E081387D2802D893
:10592000A24206D0521C521C8A4202D2A85C2028F5
:10593000F3D1082902D2585C491C00E02020A85469
:10594000521C082AF5D37CBD211001002DE9F0413D
:105950000D46044602290DD3D4F81402A84209D9F1
:1059600094F800024FF0FF36012807D002282AD011
:10597000032836D001263046BDE8F081D4F8200255
:1059800005EB550700EB5721204600F029FD0028C4
:10599000F1D1C7F308007F1C14F80080D4F820026E
:1059A00000EB5721204600F01BFD0028E3D1C7F390
:1059B0000800215C48EA0120E90701D00609DAE77E
:1059C000C0F30B06D7E7D4F8200200EB15212046E0
:1059D00000F006FD0028CED1E8B204EB40000688B6
:1059E000C9E7D4F8200200EBD511204600F0F8FCFE
:1059F0000028C0D140F2FF1000EA85002044017861
:105A0000D0F8010041EA002020F07046B3E7002002
:105A100070472DE9F0410C4601F10902D0F810124F
:105A200079B30025D0F814322E26595D6D1C20293B
:105A300019D0052900D1E521092D01D102F8016B0A
:105A4000A1F14107192F0CD81F7B092D02D34FF06C
:105A5000100C01E04FF0080C17EA0C0F01D02031B8
:105A6000C9B202F8011B0B2DDFD3D97A2172197F3D
:105A7000D3F81D5041EA05212160198BA180D98AF4
:105A8000E1804FF0000882F80080A669002E25D042
:105A9000D0F810120025F9B1E169E9B1B0F820128F
:105AA000A1F57F42FF3A17D0D0F81C7210E0002118
:105AB000FFF75AFD40B1FF2802D9010A71556D1C4C
:105AC000E169491EA94201D8002505E070556D1C09
:105AD00037F8020B0028EAD106F80580BDE8F0810E
